:020000040804EE
:1000000038D90120C101040865490408A92E040853
:1000100061490408A50C0408C56D0408000000002F
:1000200000000000000000000000000089610408DA
:10003000D518040800000000354A04087567040854
:10004000DB010408DB010408DB010408DB01040810
:10005000DB010408DB010408DB010408DB01040800
:10006000DB010408DB010408DB010408DB010408F0
:10007000DB010408DB010408DB010408DB010408E0
:10008000DB010408DB01040805070408DB010408A0
:10009000DB010408DB010408DB010408DB010408C0
:1000A000DB010408DB010408DB010408DB010408B0
:1000B000DB01040805690408DB010408DB0104080E
:1000C000DB010408DB010408DB010408DB01040890
:1000D000DB010408DB010408DB010408DB01040880
:1000E000DB010408DB010408DB010408DB01040870
:1000F000DB010408DB010408DB010408DB01040860
:10010000DB010408FD4D0408DB010408DB010408E1
:10011000DB010408DB010408DB010408DB0104083F
:10012000DB010408DB010408DB0104088116040874
:10013000DB010408DB010408DB010408DB0104081F
:10014000DB010408DB010408DB010408DB0104080F
:10015000DB010408DB010408DB010408DB010408FF
:10016000DB010408DB010408DB010408DB010408EF
:10017000DB010408DB010408DB010408DB010408DF
:10018000DB010408DB010408DB010408DB010408CF
:10019000DB010408DB010408DB010408DB010408BF
:1001A000DB010408DB010408DB010408DFF80CD0E4
:1001B00000F000F900480047A9F9040838D90120E7
:1001C0000648804706480047FEE7FEE7FEE7FEE7F1
:1001D000FEE7FEE7FEE7FEE7FEE7FEE73568040818
:1001E000AD0104082DE9F05F0546002092469B46CC
:1001F00088460646814640241BE02846414647463D
:10020000224600F08EF853465A46C01A914110D348
:1002100011461846224600F075F82D1A67EB0108C2
:100220004F4622460120002100F06CF817EB000930
:100230004E41201EA4F10104DFDC484631462A4627
:100240004346BDE8F09F40EA01039B0703D009E065
:1002500008C9121F08C0042AFAD203E011F8013BB2
:1002600000F8013B521EF9D27047D2B201E000F80B
:10027000012B491EFBD270470022F6E710B513464A
:100280000A4604461946FFF7F0FF204610BD421EFD
:1002900012F8013F002BFBD111F8013B02F8013BA2
:1002A000002BF9D17047421C10F8011B0029FBD12B
:1002B000801A704710B5002200E0521C835C8C5CF1
:1002C000A34201D1002BF8D1D8B2E1B2401A10BD3F
:1002D00030B504460020034600E05B1C934203D285
:1002E000E05CCD5C401BF8D030BD70B5064606F032
:1002F0008FFD046805460A220021304600F021F8EF
:100300002C6070BD202A04DB203A00FA02F10020A4
:1003100070479140C2F1200320FA03F31943904043
:100320007047202A04DB203A21FA02F000217047AE
:1003300021FA02F3D040C2F120029140084319464D
:1003400070472DE9F04791460F4680460446002647
:1003500014F8015B2DB100F03FF80068405DC00764
:10036000F6D12B2D02D02D2D18D0641E4A463946C9
:10037000204600F035F827B13968A14201D1C7F80D
:10038000008071054FF002040BD54042002803DDC8
:1003900006F03EFD0460A007BDE8F08746F48066E5
:1003A000E4E70028F8DA06F033FD04606FF000405F
:1003B000F2E70000064C074D06E0E06840F001035C
:1003C00094E8070098471034AC42F6D3FFF7F2FEEA
:1003D000A4A90508C4A905080048704798A80508FD
:1003E0002DE9F05F82460078002715468B460AF11A
:1003F0000104B946302801D09DB113E014F8010B77
:100400000127782803D0582801D045B10AE00DB162
:10041000102D07D10027102514F8010B02E0082544
:1004200000E00A250026B0460EE005FB080005FBAB
:1004300006F1012701EB10461FFA80F8B6F5803F60
:1004400000D3B94614F8010B294600F018F800282B
:10045000EBDABBF1000F05D00FB1641E00E054468B
:10046000CBF80040B9F1000F06D006F0D1FC022114
:100470000160C81EBDE8F09F48EA0640FAE73A2846
:1004800000D2303820F02002412A01D3A2F13700F7
:10049000884201D34FF0FF30704770B58C1810F8C8
:1004A000015B15F0070301D110F8013B2A1106D1B9
:1004B00010F8012B03E010F8016B01F8016B5B1ED3
:1004C000F9D12B0705D40023521E0DD401F8013BAE
:1004D000FAE710F8013BCB1A921C03E013F8015B1A
:1004E00001F8015B521EF9D5A142D8D3002070BD9E
:1004F00000220A12D3430360704721B1826842F0A0
:100500000102826003E0826822F00102826070478B
:100510000021084A1168084A1140D0E900231A4313
:1005200083681A43C3681A431143044AC2F8041388
:100530007047000004230140E030FCFF0020014030
:100540001CB50121202004F077FA4FF48060009060
:1005500003208DF8040000208DF8070069465B48F1
:1005600002F0DAFA0121202004F066FA4FF48070DC
:10057000009003208DF8040000208DF807006946E4
:10058000524802F0C9FA0121202004F055FA402017
:10059000009003208DF8040000208DF807006946C4
:1005A0004A4802F0B9FA0121084604F045FA202031
:1005B000009003208DF8040000208DF807006946A4
:1005C000434802F0A9FA0121084604F035FA082050
:1005D000009003208DF8040000208DF80700694684
:1005E0003B4802F099FA0121202004F025FA10205E
:1005F000009003208DF8040000208DF80700694664
:10060000324802F089FA0121202004F015FA4FF453
:100610000070009003208DF8040000208DF8070082
:1006200069462A4802F078FA0121202004F004FAF1
:100630008020009003208DF8040000208DF8070032
:100640006946224802F068FA0121202004F0F4F9FA
:100650002020009003208DF8040000208DF8070072
:1006600069461A4802F058FA0121202004F0E4F902
:100670000820009003208DF8040000208DF807006A
:100680006946124802F048FA0121084604F0D4F9FC
:100690001020009003208DF8040000208DF8070042
:1006A00069460B4802F038FA0121084604F0C4F903
:1006B0004020009003208DF8040000208DF80700F2
:1006C0006946034802F028FA1CBD000000140240ED
:1006D000000002400146C86C80B2704770B5024607
:1006E0000020002300240B12556801268E4005EAE5
:1006F000060415681D4015B10CB1012000E0002072
:1007000070BD000010B540F205213748FFF7E6FF45
:1007100088B340F205213448FFF7EAFE3248FFF77C
:10072000D9FF3249097801EB4101314A127811446D
:10073000304A126822F811002D480078401C2C49DC
:10074000087008460078032815DB00200870274849
:100750000078401C2549087008460078042801DB11
:10076000002008702448214A1278815C0523012268
:100770001D4800F0F9F840F205212048FFF7AEFFD0
:1007800088B340F205211D48FFF7B2FE1B48FFF772
:10079000A1FF1B49097801EB41011A4A1278114463
:1007A000194A126822F8110016480078401C1549B1
:1007B000087008460078032815DB002008701048F0
:1007C0000078401C0E49087008460078082801DBB4
:1007D000002008700D480A4A1278815C0523012226
:1007E000064800F0C1F810BD00200140DE000020E6
:1007F000F2000020A8000020CC00002000220140D0
:10080000F1000020F3000020C0000020DF000020E5
:1008100010B50B460021D9B2012404FA01F11AB136
:1008200044680C43446002E044688C43446010BD5B
:1008300030B50246002000235068104C20400D794E
:100840000C6844EA05242043506090680C4C20401A
:10085000D1E903542C438D682C434D7944EA450477
:1008600020439060D06A20F470000C7D641EE4B2D6
:10087000234340EA0350D06230BD0000FFFEFFFC7E
:10088000FDF7FFC000B58BB00121080204F024F988
:100890000020019002900390049001A8FFF738FE19
:1008A000002005908DF818008DF819000790099028
:1008B00001208DF8280005A92548FFF7B9FF254834
:1008C000254A1278815C00230122214800F04CF86F
:1008D00001211F48FFF711FE012240F205211C48AB
:1008E000FFF796FF1A4800F09BF80121880204F0F8
:1008F000F3F80020019002900390049001A8FFF704
:1009000007FE002005908DF818008DF8190007905B
:10091000099001208DF8280005A91048FFF788FFED
:100920000F48104A1278815C002301220B4800F026
:100930001BF801210948FFF7E0FD012240F20521E3
:100940000648FFF765FF054800F06AF80BB000BDE8
:1009500000200140CC000020DE00002000220140E9
:10096000DF000020F1000020F0B504460D46002015
:100970000021092D11DDE068A5F10A0606EB460706
:10098000072606FA07F18843A5F10A0606EB460694
:1009900003FA06F10843E0600CE0206905EB450727
:1009A000072606FA07F1884305EB450603FA06F128
:1009B00008432061072A0FDA606B561E06EB860794
:1009C0001F2606FA07F18843561E06EB860605FA2F
:1009D00006F10843606322E00D2A0FDA206BD61F70
:1009E00006EB86071F2606FA07F18843D61F06EB9B
:1009F000860605FA06F10843206310E0E06AA2F1DA
:100A00000D0606EB86071F2606FA07F18843A2F1BA
:100A10000D0606EB860605FA06F10843E062F0BD16
:100A2000816841F0804181607047000010B5054841
:100A300005490860183005490860FFF781FDFFF798
:100A400021FF10BDE04C0020A8000020C0000020C5
:100A50001CB501208DF8040000208DF8060001204F
:100A60008DF8070002208DF805000121402003F0D9
:100A7000E3FF202000906946864802F04DF80121EE
:100A8000402003F0D9FF402000906946814802F0E1
:100A900043F80121022003F0CFFF80200090694637
:100AA0007D4802F039F80121022003F0C5FF202023
:100AB00000906946784802F02FF80121402003F0A9
:100AC000BBFF4FF4805000906946724802F024F852
:100AD0000121402003F0B0FF0820009069466D48D6
:100AE00002F01AF80121082003F0A6FF4020009030
:100AF00069466A4802F010F80121402003F09CFF8B
:100B00004FF4806000906946624802F005F80121C8
:100B1000022003F091FF4020009069465E4801F0FA
:100B2000FBFF0121402003F087FF4FF400400090BD
:100B30006946584801F0F0FF0121402003F07CFF96
:100B40004FF4006000906946524801F0E5FF012132
:100B5000402003F071FF1020009069464D4801F0DD
:100B6000DBFF0121082003F067FF082000906946A1
:100B70004A4801F0D1FF0121402003F05DFF4FF40E
:100B8000007000906946434801F0C6FF0121202013
:100B900003F052FF4FF4006000906946404801F0B6
:100BA000BBFF0121022003F047FF022000906946AD
:100BB000394801F0B1FF0121022003F03DFF01207F
:100BC00000906946344801F0A7FF02208DF8050027
:100BD00000208DF804008DF80700002220212D4808
:100BE00002F010F8002240212A4802F00BF80022FF
:100BF0008021294801F072FF00222021264801F0BF
:100C00006DFF00224FF48051224801F067FF00225F
:100C10000821204801F062FF002240211F4801F016
:100C20005DFF00224FF480611A4801F057FF002257
:100C30004021194801F061FF00224FF4004115489E
:100C400001F05BFF00224FF40061124801F055FFF4
:100C5000002210210F4801F050FF002208210F4808
:100C600001F04BFF00224FF400710A4801F045FFEC
:100C700000224FF400610A4801F021FF0022022106
:100C8000054801F00DFF00220121034801F008FF93
:100C90001CBD00000018024000040240000C02408D
:100CA0000014024000BFFEE72DE9F04F87B08146F7
:100CB0000020059004900024002603900290DFF8A5
:100CC0008CB10122494662480BF0BEFE61490870B2
:100CD0000846007800287BD15F48007940F0010089
:100CE0005D4908715D4806AB4FF40062D0F81C12F4
:100CF00057480BF0A3FF57490870002154480BF0E8
:100D0000B3F954490870564D5148C068471901F06D
:100D10001FFDF32001F076FC284601F085FF0590C9
:100D2000384601F081FF0490059E1CE00221304608
:100D300001F06EFC092811D04AA1584606F054F87B
:100D400059464F4805F0D2FC032000214FF6FF73AF
:100D50004B4ACDE90010902017F0CEFA582E01D161
:100D6000283600E0083604988642DFD92C463B48F6
:100D7000D0F81C821BE0E00AC002A0420CD1374828
:100D800006AB4FF40062D0F81C1231480BF056FF4E
:100D9000304908704FF0000A50460AF1010A58F82D
:100DA0002010204601F0ACFC092800D1241DBC42D3
:100DB000E1D301F09BFC2C462848D0F81C8200218E
:100DC00023480BF051F9234908700020029031E0CC
:100DD00033E020680390E00AC002A0420CD11F4813
:100DE00006AB4FF40062D0F81C1219480BF026FF36
:100DF000184908704FF0000A50460AF1010A58F8E5
:100E000020000399884214D00298401C029015A13A
:100E1000584605F0E9FF5946194805F067FC0320DC
:100E200000214FF6FF73164ACDE90010902017F00D
:100E300063FA241DBC42CCD300BF05480BF0F9F87F
:100E40000449087007B0BDE8F08F0000F4120020DC
:100E5000C4320120301100200C43012068520020D0
:100E6000000004084552524F523A20464C41534824
:100E70005F4572617365536563746F720D0A00009C
:100E8000A49400207FB50025FB4890F83400422848
:100E90007ED10020F94981F80C010122F8A1FE4819
:100EA0000BF0D2FDFD4908700846007890BBF3486E
:100EB000D0F8142202ABD0F81C12F7480BF0BEFE9B
:100EC000F64908700020ED49D1F81C12029A8854A6
:100ED000F2480078C0B903A84FF48071CDE9001042
:100EE000E64901F58673EEA2D1F81C02EDA106F0E9
:100EF00059FF0446ED48FFF7D6F928B1EC480079D0
:100F000040F08000EA490871E3480BF092F8E349A9
:100F1000087089E0FFE7E0480BF08BF8DF490870C4
:100F20000122E4A1DC480BF08FFDDC490870084683
:100F30000078002873D1D148D0F8142202ABD0F841
:100F40001C12D5480BF07AFED44908700846007888
:100F5000002864D103A84FF48071CDE90010C7497F
:100F6000D24BDAA2D1F81C02DAA106F0C5FFCF48B5
:100F7000FFF799F9002852D0CD48007940F04000A1
:100F8000CB49087103A88021CDE90010BB4900E0DE
:100F9000EDE001F18803D0A2D1F81C02D0A106F047
:100FA00001FF04460122D2A1D7480BF04DFDBB49F9
:100FB00008700846007848BBB048D0F8202202AB41
:100FC000D0F82812D0480BF039FEB449087003A8B5
:100FD0008021CDE90010A94901F1080301F188023F
:100FE000D1F82802C9A106F0DDFE0446A348007A24
:100FF000542806D1AE48007940F02000AC49087171
:1010000008E000209D4981F80C0103E000209B4985
:1010100081F80C01BC480BF00CF8A04908709E4800
:101020000BF007F89D4908709B480BF002F89B49AC
:1010300008709F48407900287DD101209C49487163
:101040009A4AB5A19A48183005F0CEFE0122B6A101
:1010500091480BF0F9FC9149087008460078002887
:101060003AD18648D0F8142202ABD0F81C128A4834
:101070000BF0E4FD8949087000208049D1F81C126A
:10108000029A885403A88021CDE900107B4901F120
:10109000880383A2D1F81C0282A106F083FE0446D5
:1010A000824984398148FFF705F9A8B903A880214E
:1010B000CDE90010714901F1880379A2D1F81C0231
:1010C0009FA106F06FFE04466C4890F888005928EE
:1010D00002D10020764948716F480AF0AAFF6F4993
:1010E0000870734840790128A6D1974800686FF3CB
:1010F0001300401C68B101F02BFBF32001F082FAD1
:10110000914801F091FD0646022101F081FA01F0BB
:10111000EDFA0A2284A160480BF096FC5F49087042
:101120005649624AD1F81C0288A105F05DFE534978
:10113000D1F81C0200E034E1FFF7B5F806464F484D
:1011400002AB3246D0F81C1253480BF040FF534913
:10115000087051480AF06DFF504908705448183023
:10116000FFF7A2FD7F4800685149486119E1032259
:101170006DA149480BF068FC4849087008460078A2
:10118000002855D13D48D0F8142202ABD0F81C12EB
:1011900041480BF053FD4149087000203749D1F810
:1011A0001C12029A885403A84FF48071CDE90010F4
:1011B00032493E4B3AA2D1F81C023AA106F0F2FDA8
:1011C00004463A492C483430FFF774F888BB03A82A
:1011D0004FF48071CDE90010284901F1880330A255
:1011E000D1F81C0256A106F0DDFD0446234890F814
:1011F000880059281CD0BDF80C1027480AF034FF8D
:10120000264908701D49D1F8280257A105F0ECFDC8
:101210001A49D1F82802FFF746F806461748534BFB
:101220003246D0F828121C480BF0D1FE1B4908703A
:10123000B2E0FFE703A84FF48071CDE900100F4939
:1012400001F1880316A2D1F81C023DA106F0AAFD07
:1012500004460A4890F8880059280BD1BDF80C10B4
:101260000D480AF001FF0D4908700449D1F8280221
:101270003FA17FE090E00000F41A002068520020B7
:1012800061726561352F61726561355F636F6E668E
:1012900069672E7478740000C43201203011002078
:1012A000220000002262696E223A2200745300205C
:1012B0000C43012061726561352F61726561355F94
:1012C000696E666F2E747874000000002E62696E7D
:1012D000000000005F0000002E62696E2200000026
:1012E00022646F776E6C6F616455726C223A2200D3
:1012F00061726561352F61726561355F696E666F18
:101300002E67657400000000A02201202268616E33
:10131000646C65223A22000061726561352F257385
:101320002E62696E0000000061726561352F617286
:101330006561355F7570646174652E6F757400004A
:101340002272756E223A2200000004085B22626954
:101350006E223A222573222C2272756E223A223096
:10136000225D0000400000205900000034110020E0
:101370004E00000005F038FD0A49D1F82802FEF7BA
:1013800092FF06460748084B3246D0F82812074815
:101390000BF01DFE0649087004480AF04AFE044995
:1013A00008707FBD6852002034110020C432012033
:1013B0003011002070B500254FF4803400E0641E29
:1013C00024B1802003F0EEFC0028F8D014B90325E6
:1013D000284670BD40F2FF5003F0A0FC2846F8E715
:1013E0002DE9F041064600274848056801E04748D6
:1013F000056805F045000028F9D005F0040030B17B
:101400000327042003F08AFC3846BDE8F08105F08C
:10141000010028B10127012003F080FC3846F4E7E1
:1014200003F0BAFCB04202D010273846EDE740F294
:10143000FF5003F073FC002003F0D4FC0446344852
:10144000204008B93846E0E704F0004008B11C200D
:10145000DBE704F0804008B10920D6E704F0005033
:1014600008B10A20D1E704F0805008B10B20CCE786
:1014700004F0006008B10C20C7E704F0806008B1F8
:101480000D20C2E704F0807008B10E20BDE704F41F
:10149000000008B10F20B8E704F4800008B1102064
:1014A000B3E704F4001008B11120AEE704F4801093
:1014B00008B11220A9E704F4002008B11320A4E722
:1014C00004F4802008B114209FE704F4003008B130
:1014D00015209AE704F4803008B1162095E704F44B
:1014E000004008B1172090E704F4804008B11820AC
:1014F0008BE704F4005008B1192086E704F00800D7
:1015000008B11A2081E738467FE70000342C0140FB
:1015100008E0FFFD70B500251048046801E00F48A1
:10152000046804F045000028F9D004F0040028B154
:101530000325042003F0F2FB284670BD04F00100EF
:1015400028B10125012003F0E9FB2846F5E740F228
:10155000FF5003F0E3FB2846EFE70000342C014086
:1015600070B500250B48046801E00A48046804F0DF
:1015700045000028F9D004F0040028B10325042018
:1015800003F0CCFB284670BD40F2FF5003F0C6FBD1
:101590002846F8E7342C01402DE9F04106460F4675
:1015A0004FF000082248056801E02148056805F071
:1015B00045000028F9D005F0040038B14FF00308C9
:1015C000042003F0ABFB4046BDE8F08105F00100CC
:1015D00030B14FF00108012003F0A0FB4046F3E7D3
:1015E00003F0DAFBB04203D04FF010084046EBE7BF
:1015F00040F2FF5003F092FB002003F0F3FB04469F
:1016000004F4604018B9200C38804046DCE704F44C
:10161000005008B11320D7E704F4804008B110202F
:10162000D2E704F4004008B10F20CDE74046CBE7F5
:10163000342C014070B500264FF480350F48046803
:1016400002E06D1E0D48046804F0450008B9002D45
:10165000F7D115B104F0040028B10326042003F0EB
:101660005DFB304670BD04F0400028B100264020EC
:1016700003F054FB3046F5E73046F3E7342C0140E5
:1016800010B504F0B7F810BD0246094B9A4201D2DA
:10169000084801E00648103801F000531BB1064B22
:1016A0000B40C36002E0044B0B40836070470000B6
:1016B00010640240006002407D0F7D0F21B102687E
:1016C00042F00102026003E0026822F001020260BF
:1016D00070470000016821F00101016000210160F4
:1016E00041608160C1600161212141614A498842B4
:1016F00004D13D21484A103A91608CE046491831A6
:10170000884205D14FF47461434A103A916082E0F7
:1017100041493031884205D14FF474113E4A103AA4
:10172000916078E03C494831884205D14FF07461BE
:10173000394A103A91606EE037496031884204D1ED
:101740003649354A103AD16065E0334978318842EC
:1017500004D13349304A103AD1605CE02E499031CF
:10176000884204D12F492C4A103AD16053E02A49CB
:10177000A831884205D14FF03D51274A103AD16037
:1017800049E02949884204D13D21274A083A11609D
:1017900041E025491831884205D14FF47461224A4D
:1017A000083A116037E020493031884205D14FF4C2
:1017B00074111D4A083A11602DE01B4948318842D6
:1017C00005D14FF07461184A083A116023E01649B8
:1017D0006031884204D11149134A121F11601AE086
:1017E00011497831884204D10D490F4A121F116006
:1017F00011E00D499031884204D10A490A4A121F6A
:10180000116008E00849A831884204D14FF03D51E9
:10181000054A121F11607047106002403D00002011
:10182000400F002000003D201064024021B10268FA
:1018300042F02002026003E0026822F0200202600F
:10184000704710B501F080034BB122B1436943F0FA
:101850008003436103E0436923F0800343618029EF
:101860000BD02AB1036801F01E042343036004E097
:10187000036801F01E04A343036010BD10B50022ED
:101880000268134B1A40CC680B6823434C6923430E
:101890008C692343CC6923430C6A23434C6A23435A
:1018A0008C6A23434C6B23438C6B23431A430260A3
:1018B000426922F00702D1E90B3423431A43426103
:1018C0000B6943604B6883608B68C36010BD000088
:1018D0003F801CF07047000000B587B0264805F037
:1018E0007DF90121084603F0A7F80121102003F03B
:1018F000F3F807220A21214801F056F907220921AD
:101900001E4801F051F900208DF81A0001208DF8D1
:101910001B0002208DF818000002059002208DF8AF
:10192000190005A9154801F0F7F802208DF81800F4
:101930004002059005A9114801F0EEF84FF4E1309E
:1019400001900020ADF80800ADF80A00ADF80C00D9
:10195000ADF810000C20ADF80E0001A9064805F006
:10196000C3F90121044805F02CF94021024805F093
:101970001FF907B000BD0000001001400000024048
:1019800001B504490098086000BF024800680028BB
:10199000FBD108BD40110020044A116800BF034A72
:1019A0001268521A8242FAD37047000040000020A9
:1019B00010B500F04BF900F0C5FB0121002000F04C
:1019C000B3FC00F0040028B10348006840F01000A8
:1019D0000149086010BD000054110020344800681F
:1019E000006800F00040E8B931480068006800F481
:1019F0008070B8B12F4800688068401C2D49096884
:101A000088602C4800688068012804D12848006854
:101A1000284909680860264800682649096848601E
:101A20000120704722480068006800F00040F0B9CB
:101A30001F480068006800F40070C0B11C480068CE
:101A4000006800F4807090B9194800681949096865
:101A50000860002017490968486001201549096895
:101A6000886013480068C068114908601DE010488C
:101A70000068006800F00040B8B90D4800680068D0
:101A800000F4007088B90A480068006800F48070AB
:101A900058B9084800688068401C06490968886091
:101AA00003480068C068024908600020B9E70000E8
:101AB000481100204C11002070B50546012100207E
:101AC00000F032FC00F0040444B10B48007828B95F
:101AD0000A4811F0BDFA0120074908705CB90648B0
:101AE000007840B1012006490870044811F09BFAC3
:101AF00000200149087070BD5911002030120020EB
:101B00005811002030B10749896941F00201054AA6
:101B1000916105E00349896921F00201014A91615F
:101B2000704700000090024070B50C46134600213B
:101B3000124D286000BF18E000EB41124FF0004545
:101B4000156044F2F4555560C1EBC11505EB450530
:101B500004EB850595605D1E8D4204D900EB4115AF
:101B60002035D56000E0D060491C9942E4D3044D93
:101B7000E860044D044E356070BD0000481100203F
:101B800000900240447401204C11002030B10749FC
:101B9000896941F40051054A916105E00349896969
:101BA00021F40051014A9161704700000090024009
:101BB00030B50C46134600210F4D286000BF15E0DC
:101BC00000EB41124FF480151560C1EBC11505EB18
:101BD000450504EB850595605D1E8D4204D900EB3B
:101BE00041152035D56000E0D060491C9942E7D30B
:101BF000024D286130BD00004411002000900240D9
:101C000002680A430260704710B50121480602F0DD
:101C100023FF00214FF0007002F01EFF10BD0000F6
:101C200008B5002000900848806940F480100649FB
:101C300088610846806900900120FFF7A1FE0249F3
:101C40000098886108BD0000009002401CB5012189
:101C500040F2471002F0F0FE0121880302F03CFF41
:101C6000012004F093FA0220009003208DF8050073
:101C700001208DF8040000208DF806008DF8070083
:101C80006946414800F048FF02213F4800F0B8FF94
:101C90000520FFF775FE02213B4800F0C2FF05203A
:101CA000FFF76EFE0420009003208DF8050002204F
:101CB0008DF8040000208DF806008DF807006946B5
:101CC000324800F029FF0B220221304800F06CFF5F
:101CD0000220009069462E4800F01EFF0B220121D1
:101CE0002B4800F061FF022000906946274800F071
:101CF00013FF0B220121254800F056FF80200090A1
:101D00006946224800F008FF0B2207211F4800F017
:101D10004BFF1020009069461D4800F0FDFE0B228D
:101D200004211B4800F040FF20200090694618481D
:101D300000F0F2FE0B220521154800F035FF4FF4AC
:101D4000006000906946134800F0E6FE0B22114641
:101D5000104800F029FF4FF40050009069460E48EB
:101D600000F0DAFE0B220D210B4800F01DFF4FF4AE
:101D7000804000906946084800F0CEFE0B220E21FC
:101D8000054800F011FF1CBD002002400000024089
:101D900000080240000402400018024000200449EC
:101DA000096801F0010109B1012000E0002070473D
:101DB000009002401EB50021002200920192029282
:101DC0000C4A12681268C2F30D42111F00910A4AB0
:101DD000126812680292084A1268126892680192A8
:101DE000044A1268D268034B1A609DE81C0080E820
:101DF0001C001EBD481100204C1100202DE9F041AF
:101E000088B004460F464FF00008002500200790D8
:101E1000B54E029001200190B448056925F01C05DB
:101E200003A802F079FE049EB148864205D3B1486A
:101E3000864202D245F008051AE0AE48864205D334
:101E4000A948864202D245F00C0511E0A648864218
:101E500003D3A948864200D20AE0A748864205D3A8
:101E6000A648864202D245F0040501E045F010057F
:101E70009E4805614FF400420021384600F00EFBF9
:101E800010B9002001906AE0FF20FFF779FD20687B
:101E9000002850D000BF0298401C02900121384613
:101EA00000F042FA00F0040018B9954902988842FF
:101EB000F1D393490298884202D1002001904EE06C
:101EC000002002904FF480520021384600F0E6FADC
:101ED00008B90020019000BF0298401C0290012127
:101EE000384600F021FA00F0200018B98449029821
:101EF0008842F1D382490298884202D100200190A1
:101F00002DE0002002901F21384600F00DFA804697
:101F100008F0100018B14FF40060206201E00020CA
:101F2000206208F0040010B10020606116E04FF458
:101F30008040606112E0206AC0F3CF006169C1F3A4
:101F40004F0140EA01020021384600F0A7FA08B923
:101F50000020019040F6FF70FFF712FD00BF0198CE
:101F600020B94FF400602062C00060615F480568DE
:101F700064480540D4E901010843E1680843216948
:101F8000084361690843A1690843E1690843216A7C
:101F90000843616A0843A16A0843E16A0843216B68
:101FA0000843616B084305435048056005680120FC
:101FB000FFF7E6FC4D480560D4E90E010843216CAB
:101FC0000843616C0843A16C0843E16C0843216D30
:101FD0000843616D0843454948600846456801204B
:101FE000FFF7CEFC414845604049A06D8860E06D38
:101FF000C860084685694FF641700540B4F8601026
:10200000606E40EA0140A16E0843E16E0843216F13
:102010000843616F084305433448856185690120A1
:10202000FFF7AEFC31488561D4E91E0108432F4912
:10203000C8610846C5690120FFF7A2FC2B48C561AD
:102040003148856931480540D4E920010843D4F876
:1020500088100843D4F88C100843D4F89010084333
:10206000D4F894100843D4F898100843D4F89C107E
:102070000843D4F8A01008430543234885618569C7
:102080000120FFF77DFC20488561D4E92901084340
:10209000D4F8AC100843D4F8B0100843D4F8B41006
:1020A00040EA8100D4F8B810084340F40000164913
:1020B0000860084605680120FFF762FC12480560C9
:1020C000006840F08000104908600846056801205B
:1020D000FFF756FC0C4805600198012802D108B0B2
:1020E000BDE8F0810020FAE70087930300800240FA
:1020F000002D3101C00E160200E1F50580D1F00877
:10210000FFFF04000F8120FF00900240233FDEF814
:1021100010B50B794C7943EA0422094B03441A6445
:10212000CB781B068C7843EA04434C7843EA0423BB
:102130000C7843EA0402024B03445A6410BD0000C9
:102140000080024010B501214FF0606002F074FC85
:10215000FFF75AFD00F01EF900BFFFF71FFE012830
:10216000FBD01E4800F040F901201C490860002007
:10217000C8614FF4007088620020C86288634864B8
:10218000C864086548654FF4806048620020C1F863
:1021900080004FF00070C1F884000011C1F88C007D
:1021A0000020C1F89400C1F898000420C1F8A000F4
:1021B000C005C1F8A4004012C1F8A8008001C1F810
:1021C000AC004012C1F8B0004000C1F8B8000021D6
:1021D0000248FFF713FE0249086010BD5074012049
:1021E0005411002038B504460020009034B10B484B
:1021F000006840F004000949086005E007480068ED
:1022000020F004000549086004480068009001209F
:10221000FFF7B6FB01490098086038BD0080024016
:1022200038B504460020009034B10B48006840F0F7
:1022300008000949086005E00748006820F0080028
:10224000054908600448006800900120FFF798FBEA
:1022500001490098086038BD0080024070B5024610
:102260000023002500242E480068006800F000408C
:1022700008B1002070BD2A48016840F2F450824243
:1022800008DD92FBF0F392FBF0F600FB162010B194
:102290005B1C00E00123012B0CD1086840F040508A
:1022A0000860C2F30C004860086840F00040086015
:1022B000C96826E0002422E0086820F04050086049
:1022C0001CB9086840F08050086040F2F450486043
:1022D000581EA0420DD1086840F000500860581EFA
:1022E000C0EBC01000EB4000A2EB8005C5F30C0072
:1022F0004860086840F000400860C968641C9C425F
:10230000DAD3074801600748406900F0040020B1B3
:102310000420044E7061002070600120AAE70000D4
:10232000441100200090024018B502460B460021DF
:10233000002000901548016901F01C014FF478401D
:1023400000EAC22001434FF4F86000EA8310014321
:1023500021F0020141F001010C48016100BF009829
:10236000401C00900948016901F0010018B1084CB7
:102370000098A042F3D3064C0098A04201D100205F
:1023800018BD0248406980B2FAE7000000800240B0
:10239000FFFF04000348006840F0010001490860A5
:1023A000704700000090024010B50120FFF738FF91
:1023B0000120FFF717FFFFF733FC0120FFF7E6FBD3
:1023C0000120FFF79FFB10BD10B50020FFF7DEFBDB
:1023D0000020FFF797FB0020FFF704FFFFF720FC2A
:1023E0000020FFF71DFF10BD0121016000214160A9
:1023F0008160C16001614FF48041416100218161D0
:10240000C1614FF400610162002141628162C162D9
:10241000016341638163C163402101642021416400
:1024200000218164C164016541658165C165016602
:102430008021416600218166C1660167416781672D
:10244000C1674FF08061C0F880104910C0F8841057
:102450000021C0F888104FF40011C0F88C10002142
:10246000C0F89010C0F89410C0F89810C0F89C10F4
:10247000C0F8A0104FF00071C0F8A4104912C0F8C5
:10248000A8108901C0F8AC104912C0F8B0100021A2
:10249000C0F8B410C0F8B8107047000038B5034653
:1024A0000C460021002000901448016901F01C0135
:1024B0004FF4784000EAC32001434FF4F86000EA8B
:1024C0008410014341F0020141F001010B484261D7
:1024D000016100BF0098401C00900848016901F0AC
:1024E000010018B1064D0098A842F3D3044D00989E
:1024F000A84201D1002038BD0120FCE70080024045
:10250000FFFF04007FB506460020039096F83100D7
:10251000C0F3001000285CD034480068002842D086
:10252000002003904FF4805200210846FFF7B6FFC9
:1025300000BF0398401C039001210020FFF7F4FE28
:1025400000F0200018B92A4903988842F1D30020EE
:1025500003901F21FFF7E8FE044604F0100020B1AD
:102560004FF400602149086202E000201F49086220
:1025700004F0040018B100201C49486103E04FF446
:1025800080401A4948611B48056818484069174946
:10259000096A08430543174805600120FFF7F0F971
:1025A000144805680560FFF7FFFE002002900190C7
:1025B00000900120104908706B4601AA02A90F483B
:1025C00010F0BCFC0D4810F071FD00200C490870A3
:1025D0000AE0FFF7F9FE052007490870304606F0CB
:1025E000B9FC064810F0C4FC7FBD00005074012007
:1025F000FFFF0400008002403C0000203012002059
:102600005811002001490860704700000C3C02404E
:1026100070B504460A460026092502B909E0012AD8
:1026200001D1160205E0022A01D1160201E04FF4A1
:10263000407600F09FF80546092D28D1154800681E
:1026400020F4407013490860084600683043086071
:102650000846006820F0F80008600846006844F06A
:10266000020108430B4908600846006840F48030C6
:10267000086000F07FF805460648006820F0020078
:10268000044908600846006820F0F8000860284601
:1026900070BD0000103C024009201349096801F494
:1026A0008031B1F5803F01D101201CE00E4909685D
:1026B00001F0100109B1062015E00B49096801F489
:1026C000807109B102200EE00749096801F0E001BC
:1026D00009B1072007E00449096801F0020109B1C6
:1026E000082000E0092070470C3C024003480068C5
:1026F00040F000400149086070470000103C024073
:1027000030B502460C46092500F034F80546092D7F
:1027100019D10E48006820F440700C490860084642
:10272000006840F4007008600846006840F001004E
:102730000860146000F01EF805460448006820F0A8
:10274000010002490860284630BD0000103C0240EC
:102750000548006800F0004028B1044802490C39DF
:102760000860034808607047103C02402301674539
:10277000AB89EFCD08B509200090FFF78DFF0090E1
:1027800002E0FFF789FF00909DF800000128F8D0D3
:102790009DF8000008BD000051B18200A2F1C042C6
:1027A000126842F001038200A2F1C042136009E006
:1027B0008200A2F1C0421268034B1A408300A3F1C9
:1027C000C0431A6070470000FEFF0F0010B50022E2
:1027D000002103689B00A3F1C04319684A4B1940CC
:1027E000D0E901342343C468234304692343446983
:1027F000234384692343C4692343046A2343446A0B
:102800002343846A2343C46A2343046B2343446BF6
:102810002343194303689B00A3F1C04319608368F5
:10282000082B0BD103689B00A3F1C0431B6843F046
:10283000400403689B00A3F1C0431C60436BB3F5E5
:10284000801F19D10368BBB14FF020435B6823F4AC
:1028500070024FF020431B68446B23434FF0204429
:10286000236023461B6843F480732360836B1B8AB9
:102870005B1E42EA03536360836B1B68846B64686E
:1028800043EA0413846BA46843EA0423846BA48999
:1028900043EA0443846B248A43EA0453846B247D13
:1028A00043EA0463846BA46923430468641CA400A2
:1028B000A4F1C0442360836AB3F5804F1BD1C36B7E
:1028C0001B68C46B646843EA0413C46BA46843EADE
:1028D0000423C46B248A43EA0453C46B247D43EA73
:1028E0000463C46BA46923430468A400A4F1C04436
:1028F000C4F8043107E06FF0704403689B00A3F153
:10290000C043C3F8044110BD8000E7FF2DE9FC413E
:1029100007460D4600260024002000900190082064
:102920005B49086010204860402088600020C86033
:102930004FF480600861084602F092FA1020FEF71A
:102940004FFD044614B12046BDE8FC815148008883
:1029500000044F490860372048604020886000200C
:10296000C8604FF480600861084602F079FA3720A9
:10297000FEF736FD04460CB12046E5E74FF0FF3088
:102980004549086008204860302088600220C860FF
:102990000020086101204861084602F0D7F90020B4
:1029A0003B49086033204860402088600020C860B0
:1029B0004FF480600861084602F052FA3320FEF7B7
:1029C0000FFD04460CB12046BEE709E04FF40010AD
:1029D00002F0E8F920B102F03DFA4DF82600761C2D
:1029E0002E48006840F22A6108400028EED00820F6
:1029F00002F0D8F928B1082002F090F9042420460A
:102A0000A2E7022002F0CEF928B1022002F086F9F6
:102A10000224204698E7202002F0C4F928B12020A3
:102A200002F07CF9062420468EE74FF4007002F095
:102A3000B9F930B14FF4007002F070F90724204664
:102A400082E740F2FF5002F069F900980006009911
:102A500001F47F4140EA0120009901F47F0140EA3E
:102A60001120009940EA1160686001980006019900
:102A700001F47F4140EA0120019901F47F0140EA1D
:102A80001120019940EA1160286020465CE70000AF
:102A9000B075012060110020C4750120342C014064
:102AA00070B505460E46144624B93146284600F056
:102AB000B8F803E03146284600F0A2F870BD70B5C2
:102AC00005460E46144624B93146284600F0A9F8BA
:102AD00003E03146284600F093F870BD70B5054616
:102AE0000E46144624B93146284600F089F803E022
:102AF0003146284600F095F870BD70B505460E4683
:102B0000144624B93146284600F07AF803E03146ED
:102B1000284600F086F870BDF0B50A460021002373
:102B2000002400BF3DE0012505FA01F3156805EA20
:102B300003049C4234D105684F000326BE40B543D0
:102B4000056015794E00B540066835430560157976
:102B5000012D02D01579022D16D185684F0003266C
:102B6000BE40B543856055794E00B5408668354313
:102B70008560456801268E40B54345604568967975
:102B80008E40B6B235434560C5684F000326BE404F
:102B9000B543C560D5794E00B540C6683543C560BC
:102BA000491C1029BFD3F0BDF0B5002300244D0708
:102BB000ED0E02FA05F3CE1000F1200555F826506F
:102BC0004E07F70E0F26BE40B543CF1000F120068A
:102BD00046F82750CE1000F1200555F8265045EA5A
:102BE0000304CE1000F1200545F82640F0BD024652
:102BF000002013690B400BB1012000E0002070475A
:102C00004183704770B505460E46144624B93146D7
:102C10002846FFF7F5FF03E03146284600F001F8AB
:102C200070BD018370470000014600205C4A91425C
:102C300003D2B1F1006F00D3B0E05A4A914204D2FE
:102C4000574A914201D30820A8E0574A914204D242
:102C5000544A914201D31020A0E0544A914204D238
:102C6000514A914201D3182098E0514A914204D22E
:102C70004E4A914201D3202090E04E4A914204D224
:102C80004B4A914201D3282088E04B4A914204D21A
:102C9000484A914201D3302080E0484A914204D210
:102CA000454A914201D3382078E0454A914204D206
:102CB000424A914201D3402070E0424A914204D2FC
:102CC0003F4A914201D3482068E03F4A914204D2F2
:102CD0003C4A914201D3502060E0B1F1016F04D22F
:102CE000394A914201D3582058E0384A914204D2DF
:102CF000B1F1016F01D3802050E0354A914204D2F6
:102D0000324A914201D3882048E0324A914204D2AB
:102D10002F4A914201D3902040E02F4A914204D2A1
:102D20002C4A914201D3982038E02C4A914204D297
:102D3000294A914201D3A02030E0294A914204D28D
:102D4000264A914201D3A82028E0264A914204D283
:102D5000234A914201D3B02020E0234A914204D279
:102D6000204A914201D3B82018E0204A914204D26F
:102D70001D4A914201D3C02010E01D4A914204D265
:102D80001A4A914201D3C82008E01A4A914204D25B
:102D9000174A914201D3D02000E0D82070470000AC
:102DA000004000080080000800C000080000010882
:102DB00000000208000004080000060800000808DF
:102DC00000000A0800000C0800000E08004010086F
:102DD0000080100800C01008000011080000120850
:102DE00000001408000016080000180800001A0867
:102DF00000001C0800001E08002009E00649095CCC
:102E0000064A32F81110064A22F81010411CC8B2C6
:102E10000C28F3DB70470000F4000020E04C002099
:102E2000604F002000220C4BDA700C4A1168506889
:102E3000116850680A0D1205B2F1005F07D1020D4A
:102E40001205B2F1006F02D10122DA7002E0022213
:102E5000014BDA70704700000C43012000000408A9
:102E600070B50446002560686FF31300B0F1006F81
:102E700001D145F0010520686FF31300B0F1005F48
:102E800001D145F00205032D0AD172B6206880F306
:102E9000088800BF606803490860084600688047EA
:102EA00070BD00003C1100201CB50E4C0EA003F0BC
:102EB0008BFF0DA1204603F097FF21460E480068C6
:102EC00016F0F0F908A10D4803F010FC03200021D2
:102ED0004FF6FF73094ACDE90010902015F00CFA67
:102EE00000BFFEE7F4120020686172646661756CD1
:102EF000742121210A0000001C010020A49400205C
:102F000070B505460C4645F2555000F027F82846A6
:102F100000F018F8204600F01BF800F00BF800F065
:102F200001F870BD4CF6CC400149086070470000C4
:102F3000003000404AF6AA200149086070470000AE
:102F400000300040014948607047000000300040F8
:102F50000149886070470000003000400149086066
:102F600070470000003000401CB50121402001F0F6
:102F700063FD00208DF8040001208DF807008020FB
:102F8000009069460148FFF7C7FD1CBD00180240CC
:102F90002DE9F04304460D4616461F46DDF81C8019
:102FA0003B4632462946204600F0AEFB00F0CEFB01
:102FB000781B401C311B491C00FB01F902E008484A
:102FC000A0F80080B9F10000A9F10109F7D1F023C0
:102FD0004FF4A0720021084600F096FBBDE8F08394
:102FE0000000026010B50120FEF7CAFCE2204FF09D
:102FF000C04108800120FEF7CFFC2320C44908808F
:103000000120FEF7C9FC0220C14908800120FEF71B
:10301000C3FC0420BE4908800120FEF7BDFCE0206F
:103020004FF0C04108800120FEF7B6FC0120B849EE
:103030000880FEF7B1FCE0204FF0C041088001207D
:10304000FEF7AAFC0320B24908800120FEF7A4FC89
:1030500001204FF0C0410880FEF79EFCE6200107EA
:1030600008800120FEF798FC0020A9490880012073
:10307000FEF792FCDB20A64908800120FEF78CFCBD
:103080000020A3490880B020410608800120FEF7F7
:1030900083FC20209E4908800120FEF77DFC002053
:1030A0009B4908800120FEF777FC012098490880A1
:1030B000FEF772FC3F20964908800120FEF76CFC69
:1030C0000020934908800120FEF766FCEF2090491C
:1030D00008800120FEF760FC00208D490880012057
:1030E000FEF75AFCB4204FF0C04108800120FEF7E3
:1030F00053FC012086490880FEF74EFCA520844938
:1031000008800120FEF748FC00208149088001204A
:10311000FEF742FC46207E4908800120FEF73CFC79
:1031200001207B490880FEF737FC002078490880A1
:103130000120FEF731FC0020754908800120FEF7D0
:103140002BFC0020724908800120FEF725FCB620E8
:10315000010708800120FEF71FFC01206C49088050
:10316000FEF71AFC0C206A4908800120FEF714FCC7
:103170000020674908800120FEF70EFC0D206449FD
:1031800008800120FEF708FC012061490880FEF755
:1031900003FC00205E4908800120FEF7FDFB0020B3
:1031A0005B4908800120FEF7F7FB2A204FF0C04161
:1031B00008800120FEF7F0FB00205549088001201F
:1031C000FEF7EAFB0020524908800120FEF7E4FBED
:1031D00001204F490880FEF7DFFB3F204C49088063
:1031E0000120FEF7D9FB2B20410708800120FEF7C4
:1031F000D3FB0020464908800120FEF7CDFB0020CC
:10320000434908800120FEF7C7FB002040490880A1
:103210000120FEF7C1FBEF203D4908800120FEF7A9
:10322000BBFBBA204FF0C04108800120FEF7B4FB81
:103230000520374908800120FEF7AEFBB8204FF08B
:10324000C04108800120FEF7A7FB07203049088015
:103250000120FEF7A1FB01202D490880FEF79CFB11
:103260003620010708800120FEF796FB3020284910
:1032700008800120FEF790FBF0204FF0C04108804D
:103280000120FEF789FB0320214908800120FEF779
:1032900083FB29204FF0C04108800120FEF77CFB12
:1032A000BE204FF0C04108800120FEF775FB0620CC
:1032B000174908800120FEF76FFB80201449088021
:1032C0000120FEF769FB012011490880FEF764FB2D
:1032D000F0200F4908800120FEF75EFB00200C491A
:1032E00008800120FEF758FB0020094908800120D2
:1032F000FEF752FBD0204FF0C04108800120FEF7BE
:103300004BFB0D20024908800120FEF745FB10BD54
:103310000000026010B54FF480511A48FFF770FCAE
:103320004FF400511748FFF76BFC04211648FFF7D4
:1033300067FCC820FEF730FB04211348FFF771FC3F
:103340004FF480510F48FFF76CFC4FF400510D48CB
:10335000FFF767FC4FF480510A48FFF751FC4FF428
:1033600000510848FFF74CFCFFF73CFE4FF480513A
:103370000448FFF756FC4FF400510248FFF751FC98
:1033800010BD0000000C02400018024000B59BB0C8
:1033900000201A9001217A2001F04EFB01210846FD
:1033A00001F06AFB4FF40040189001208DF8640092
:1033B00000208DF8660002208DF8650001208DF850
:1033C000670018A98048FFF7A7FB4CF233701890EC
:1033D00002208DF8640000208DF8660003208DF82F
:1033E000650001208DF8670018A97848FFF794FB65
:1033F0004FF68070189002208DF8640000208DF840
:10340000660003208DF8650001208DF8670018A97B
:103410006F48FFF781FB4FF40060189002208DF891
:10342000640000208DF8660003208DF865000120FF
:103430008DF8670018A96548FFF76EFB4FF48050C0
:10344000189001208DF8640000208DF8660003209C
:103450008DF8650001208DF8670018A95B48FFF71B
:103460005BFB4FF40050189001208DF864000020A1
:103470008DF8660003208DF8650001208DF8670047
:1034800018A95248FFF748FB0420189001208DF836
:10349000640000208DF8660003208DF8650001208F
:1034A0008DF8670018A94B48FFF736FB0C22002166
:1034B0004648FFF779FB0C2201214448FFF774FBD3
:1034C0000C2204214148FFF76FFB0C2205213F48E5
:1034D000FFF76AFB0C2208213C48FFF765FB0C2232
:1034E00009213A48FFF760FB0C220A213748FFF711
:1034F0005BFB0C220B213548FFF756FB0C220E21FB
:103500003248FFF751FB0C220F213048FFF74CFBEC
:103510000C2207212E48FFF747FB0C2208212C48DC
:10352000FFF742FB0C2209212948FFF73DFB0C2243
:103530000A212748FFF738FB0C220B212448FFF70C
:1035400033FB0C2211462248FFF72EFB0C220D21E3
:103550001F48FFF729FB0C220E211D48FFF724FB13
:103560000C220F211A48FFF71FFB0F2001900020AB
:1035700002903C2003900020049005900690079054
:10358000089009900A9010200B9000200C900D904C
:1035900013900E900F904FF48050109000201190D7
:1035A0004FF4804012900020149001A816901790BC
:1035B00008A8FFF70BF901210020FFF7EDF83220F2
:1035C000FEF7EAF91BB000BD00040240000C024007
:1035D00000100240001802402DE9F04180464548A5
:1035E00090F8360030287DDD404614F091FFB7207A
:1035F0004FF0C04108800A2400BF201EA4F1010141
:10360000CCB2FAD13C4807884FF6FF7000EA072792
:1036100039480088384487B2404614F05DFF0A24D8
:1036200000BF201EA4F10101CCB2FAD1404614F033
:103630006FFFE32041070880642400BF201EA4F12F
:103640000101CCB2FAD12C4805882D02008805442E
:103650002D02294800880544404614F03DFF0A2405
:1036600000BF201EA4F10101CCB2FAD1404614F0F3
:103670004FFFE7204FF0C0410880642400BF201EA8
:10368000A4F10101CCB2FAD11B48068836020088A9
:1036900006443602184800880644404614F01CFFD1
:1036A000B7F5867F05D11548854202D1B6F55B4F47
:1036B0001ED01348C07940EA08001149C871FFF7CD
:1036C00029FE104800680E4908610E4801680C4840
:1036D0004163406C0B490968081A09498864084627
:1036E000406C00E004E007490968091A0448C16415
:1036F000BDE8F081F41A00200000026004022300FB
:10370000702400204000002030B52A244FF0C0452E
:103710002C80C0F30F240C4D2C80C4B22C80C2F33B
:103720000F242C80D4B22C802B2465072C80C1F36D
:103730000F24054D2C80CCB22C80C3F30F242C8099
:10374000DCB22C8030BD0000000002602C20C106DD
:10375000088070472DE9F041ADF50A7DFC4FFD482A
:10376000407800287ED10120FA4948704EF660204A
:103770004864801008664FF47A70C86241F288305D
:10378000C8604FF4FA60086200241CE0204604EB95
:10379000D0714910A4EB4101491CCAB2ED4908316E
:1037A0000A55022C03DB0021EA48083001550021AC
:1037B000E848C01C015571300155092100F517700A
:1037C0000155601CC4B2042CE0DB002409E0002198
:1037D00004EB8402DF48783000EB42000181601C7A
:1037E000C4B23C2CF3DB002435E0DB480168D94847
:1037F000303040F82410D8480168D648483040F8A6
:1038000024104038005D002823DDD2480830005DD8
:103810001F21F0234FF4A072CDE9001000210846CB
:1038200014F00CFDCD4ACEA1384603F0DDFA38463F
:10383000FCF739FD7821A1EB800803204FF6FF71DA
:1038400000233A46CDE9001041464FF4967014F03B
:1038500011FD601CC4B2042CC7DBC048343880782A
:10386000002800E013E011D0BC4834388278BFA1B2
:10387000384603F0B9FA03204FF6FF7100233A46A9
:10388000CDE900102821184614F0F4FCFEE3B348FB
:10389000343890F8340042281AD1002416E0AD489C
:1038A000C01C005D03280FD00321AA48C01C01558D
:1038B000401D005D4FF47841F023A022CDE90010B7
:1038C0000021104614F0BAFC601CC4B2042CE6DBE4
:1038D000A048406AA0490968081A9E49096A8842B6
:1038E00010D99C48406A9B49096A08449949486232
:1038F0004CF2186000900846438D028D0021084666
:1039000002F0DAFC9548343890F88A0800F010008C
:10391000C0B100250AE08F48406C8F490968091A38
:103920008C48483040F82410681CC5B2042DF2DBE6
:103930008A48343890F88A0820F0100087493439D2
:1039400081F88A080024FDE38248103050F82400F2
:1039500081490968081A7F49C968884213D97D4896
:103960000830005D00280EDD7B4801687948103082
:1039700040F824100838005D002804DD754908313E
:10398000085DFFF729FE7348C01C005DC0BB71488D
:10399000303050F8240070490968081A6D49C96A26
:1039A000884232D96B480830005D00282DDD694817
:1039B000303050F824006749C96A01446548303006
:1039C00040F824100921283001555838406C6249CC
:1039D0000968091A5F48483040F824105E480168B9
:1039E0005C48303040F82410002100F52870015563
:1039F000634830F8140020B101215648C01C01551D
:103A000003E002215348C01C01555248C01C005D10
:103A100001287DD14F48303050F824004E490968C4
:103A2000081A4C49C96A884272D94A480830005D70
:103A300000286DDD4748303050F824004549C96AF8
:103A400001444448303040F8241000F52870005DEF
:103A500005287ADC3F485830005D022876D0484877
:103A600030F81400401C81B2454820F81410394841
:103A7000406C39490968091A3648483040F8241022
:103A8000012240A1434808F0DFFF4349087008467F
:103A90000078D0B93F48C26804EB84203F4B03EB69
:103AA00040013F4B3B4809F0C9F83B4908700020F2
:103AB00004EB8421394A02EB410181F8000804EB50
:103AC000842102EB410181F80108324808F0B1FA83
:103AD0003149087033480078032829D10120314941
:103AE00008701120487002211A48583001550920E9
:103AF0002C49887017485830025D2BA1294808309E
:103B000003F072F913480830005D4FF4097200E0C9
:103B1000C0E12449083189906846FCF794FB2148AC
:103B200000210CC8084603F0ECFA03201D49087078
:103B3000094801680748643040F8241006480168C5
:103B40000448303040F82410C5E355E134E000006B
:103B5000F41200207024002040000020281B0020C8
:103B600056657273696F6E3A257300005344206383
:103B7000617264206572726F723A25640000000001
:103B8000AA1F002061726561322F30342E626D7081
:103B900000000000C4320120301100205C370020FA
:103BA000341100203C50002061726561322F502595
:103BB000642E626D70000000F948007803287DD102
:103BC0000120F74908701120487009208870F548D5
:103BD00030F814004FF4616190FBF1F201FB120028
:103BE0004FF4167190FBF1F84246EFA1EC48083013
:103BF00003F0FAF8F048005D4FF40972E849083123
:103C000089906846FCF71FFBE54876210CC80E201A
:103C100003F077FAE34830F814004FF4167190FB84
:103C2000F1F201FB12003C2190FBF1F84246DEA1CB
:103C3000DB48083003F0D8F8DF48005D4FF4097224
:103C4000D749083189906846FCF7FDFAD4488B21A2
:103C50000CC80E2003F055FAD24830F814003C216D
:103C600090FBF1F201FB12000A2190FBF1F84246B1
:103C7000CDA1CB48083003F0B7F8CF48005D4FF432
:103C80000972C749083189906846FCF7DCFAC448D4
:103C9000AE210CC80E2003F034FAC24830F81400EC
:103CA0000A2190FBF1F201FB12084246BEA1BC487A
:103CB000083003F099F8C048005D00E020E04FF4C0
:103CC0000972B749083189906846FCF7BCFAB448D4
:103CD000C3210CC80E2003F014FAB748005D4FF65C
:103CE000FF71CDE9001004EB8420B44901EB4002E0
:103CF00000231946572014F087F90320A8490870BB
:103D0000AD485C3050F82400AD490968081AAA494A
:103D10000839096E88426FD9A7485C3050F82400F2
:103D2000A5490839096E0144A3485C3040F82410C5
:103D30009B48007803284CD1012099490870112034
:103D40004870092088709C496C31095D01EB810243
:103D50009949703101EB42009149083109F0E0FDC9
:103D600001228F490831974808F06EFE9649087085
:103D700008460078A8B990486C30005D00EB8001DF
:103D80008D48703000EB41000089401C81B28A48A8
:103D90006C30005D00EB80028748703000EB420021
:103DA0000181884808F045F9874908708248005D1C
:103DB0004FF409727A49083189906846FCF743FA52
:103DC000774800210CC8742003F09BF90320744944
:103DD000087079486C30005D401CC1B276486C3088
:103DE0000155005D7449083991F85D10884203DB84
:103DF000002171486C3001556A4830F8140030B920
:103E00007248005D401CC1B27048015502E00021BB
:103E10006E4801556D48005D05283BDD0021664870
:103E2000401F015500250AE0694850F8250020B9D7
:103E30006849674840F8251003E0681CC5B2082DA2
:103E4000F2DB00BF082D03DB62486349C1F88C0830
:103E5000002511E05E4850F8250058B95F495C48DC
:103E600040F82510A0F62700015D00F6470000F895
:103E7000251003E0681CC5B2082DEBDB00BF082D40
:103E800008DB56495448C0F890186530015D653824
:103E900080F8B0184848401F005D02287ED146488F
:103EA000403050F8240046490968081A4249083948
:103EB000496C884273D94048005D00286FDD404856
:103EC00001683D48403040F82410364830F814006E
:103ED000002864D13848005D4FF6FF71F0234FF49D
:103EE000A072CDE900100021084614F0A7F92C4873
:103EF00000780328EDD1012029490870112048706D
:103F00002D485030005D401CC1B22B485030015547
:103F1000005D012803DD00212748503001550920AC
:103F20001F49887024485030025DAFF284311C482C
:103F3000083002F059FF2048005D4FF4097218491B
:103F4000083189906846FCF77EF9154800210CC8B5
:103F5000084603F0D6F82048AD3000EBC412AFF2AB
:103F6000F8310F48083002F03FFF13485030005D31
:103F7000B0BB1148005D4FF40972094908318990BE
:103F80006846FCF760F9064838210CC8502003F059
:103F9000B8F80948035D104A243222E068E05EE088
:103FA0003C500020AA1F002061726561322F542509
:103FB000642E626D70000000782400205C370020C1
:103FC00040000020C4320120301100204027002092
:103FD00080230020DD220508F41A00204D25050865
:103FE00011E0C2A1384602F0FFFEC248005D4FF664
:103FF000FF7100233A46CDE900106E214FF487701F
:1040000014F038F927E0BB485030005D012822D178
:10401000B848005D4FF40972B74989906846FCF7CB
:1040200012F9B548083838210CC8732003F069F834
:10403000B048035DB14AADA1384602F0D5FEAD48A7
:10404000005D4FF6FF7100233A46CDE900106E2166
:104050000F2014F00FF90320A74908390870A84869
:1040600030F81400002803DD0121A248401F01554B
:10407000A048401F005D03287ED19E48403050F884
:104080002400A0490968081A9A4900E028E1083983
:10409000496C88425FD99748005D00285BDD9948EC
:1040A00001689448403040F824104038005D4FF4D7
:1040B0007841F023A022CDE900100021104614F031
:1040C000BDF88E48243890F8340041282DD18A4814
:1040D00008380078032828D101208749083908705A
:1040E00011204870092088708248005D401EC87009
:1040F0008248893000EBC412AFF294517E4802F03E
:1041000073FE7C48005D4FF409727B4989906846D4
:10411000FCF799F87848083838210CC8B02002F02C
:10412000F0FF03207449083908707248035D734A30
:104130006EA1384602F058FE6E48005D4FF478419B
:10414000002300E0C9E03A46CDE9001019464FF4DB
:10415000987014F08FF84FF490766648283050F835
:10416000240068490968081A62490839C96A8842FE
:1041700002D96048283000E0ACE050F824005D49E6
:104180000839C96A01445B48283040F824105C486B
:10419000083830F814205CA1384602F025FE0320D0
:1041A0004FF47841CDE90010202101FB1460002379
:1041B0003A46194614F05EF8514830F8142054A1DC
:1041C000384602F011FE03204FF47841CDE900108B
:1041D000202101FB1461A1F1100000233A46194689
:1041E00014F048F84C4882784CA1384602F0FCFDA7
:1041F0004048005D4FF4784100233A46CDE9001075
:10420000BE214FF4987014F035F83C48243890F8EB
:10421000340042285ED1394A1032AFF2BC613846D0
:1042200002F0E2FD3846FCF73EF87821A1EB800869
:1042300003204FF6FF7100233A46CDE900104146B6
:10424000301F14F017F837484379027936A1384601
:1042500002F0CAFD3846FCF726F87821A1EB800869
:1042600003204FF6FF7100233A46CDE90010414686
:104270004FF4857013F0FEFF2A48C2782EA138460D
:1042800002F0B2FD3846FCF70EF87821A1EB800869
:1042900003204FF6FF7100233A46CDE90010414656
:1042A000F82013F0E7FF1F48827825A1384602F076
:1042B0009BFD3846FBF7F7FF7821A1EB8008032030
:1042C0004FF6FF7100233A46CDE900104146E62043
:1042D00013F0D0FF00BF601CC4B2042CFFF634AB57
:1042E00000200DF50A7DBDE8F081000025733A2518
:1042F000640000007824002044500020181B002097
:10430000AA1F002040000020533A2564000000004E
:10431000553A256400000000442700204B563A25FA
:10432000640000000C43012042494E3D25643B508F
:10433000524F3D25640000004150503D256400006F
:104340004B4545503D2564001CB50121602000F01F
:1043500073FB01208DF8040000208DF80600012079
:104360008DF8070000208DF80500012000906946B7
:104370000D48FEF7D1FB4FF40040009069460B4812
:10438000FEF7CAFB4FF48040009069460748FEF7ED
:10439000C3FB0120044918310880C00303491831C8
:1043A0000880401008801CBD001802400014024024
:1043B00010B586B0924C93480078012802D00228AC
:1043C0007ED128E002208F4908708F4804F058FD04
:1043D00000208E4908608EA002F0F6FC92A002F048
:1043E000F3FC97A002F0F0FC9BA1A14802F07EF93B
:1043F0008DA19F4802F07AF991A19D4802F076F9CB
:10440000032000214FF6FF73994ACDE90010902058
:1044100013F072FFF0E07C4840687C490860084671
:10442000006800287DD0032076490870764804F0A3
:1044300091FD90A002F0C8FC95A002F0C5FC734865
:104440000068000E0090714801780068C0F30743CF
:104450006E480088C0F3072294A002F0B5FC6A48B9
:104460008068000E009068488068C0F30743664883
:104470000089C0F307226448017A91A002F0A4FCED
:104480006148C068000E00905F48C068C0F30743F1
:104490005D488089C0F307225B48017B8EA002F053
:1044A00093FC01209249088092A1714802F01EF904
:1044B00096A16F4802F01AF954480068000E00E017
:1044C00099E052490968C1F30741CDE900104F480E
:1044D00002780088C0F3072391A1204602F084FCF3
:1044E0002146634802F002F947488068000E4649B9
:1044F0008968C1F30741CDE9001043480089C0F342
:1045000007234148027A6EA1204602F06DFC214645
:10451000574802F0EBF83C48C068000E3A49C968B9
:1045200000E01CE0C1F30741CDE900103648808966
:10453000C0F307233448027B67A1204602F054FCF5
:1045400021464B4802F0D2F8032000214FF6FF73BA
:10455000474ACDE90010902013F0CEFE4AE02A48E9
:10456000406A407B042845DD04202649087026481F
:1045700004F0F0FC704805906FF07F4004906F48A5
:10458000039003AB04AA05A91F480EF0D7FC6CA04A
:1045900002F01AFC70A002F017FCC8200023A82229
:1045A000C021009041A002F00FFC0020FF231A461A
:1045B0001946009042A002F007FC01200023A82227
:1045C000C021009044A002F0FFFB01204849088070
:1045D00067A1274802F08AF869A1254802F086F809
:1045E000032000214FF6FF73214ACDE900109020EF
:1045F00013F082FE00E000BF00BF06B010BD000057
:10460000F41200203C000020301200203000002076
:104610000A20202020204C6F6F6B696E6720666F28
:1046200072202020200A000020202020204448431F
:104630005020736572766572202020200A000000E9
:104640002020202020706C6561736520776169747B
:104650002E2E2E200A00000020202020204C6F6FDC
:104660006B696E6720666F72202020200A000000B0
:10467000A49400200A20204950206164647265736C
:10468000732061737369676E6564200A000000001F
:104690002020202062792061204448435020736507
:1046A000727665722020200A0000000049503A20EE
:1046B00025642E25642E25642E25640A0000000042
:1046C0004E45544D41534B3A2025642E25642E25EA
:1046D000642E25640A000000476174657761793AA9
:1046E0002025642E25642E25642E25640A000000F2
:1046F0001818024049502061646472657373206128
:10470000737369676E6564200A0000006279206136
:104710002044484350207365727665720A00000099
:1047200053454C465F49503A2025642E25642E257A
:10473000642E25640A000000C0A800C8C0A80001BB
:104740000A20202020444843502074696D656F750D
:1047500074202020200A00002020537461746963B3
:1047600020495020616464726573732020200A0020
:10477000444843502074696D656F75740A000000E9
:104780005374617469632049502061646472657375
:10479000730A000000B587B00EF028F90EF084FA15
:1047A000002006900590049019481A49002204AB95
:1047B000CDE90021029005AA06A917480EF086FB54
:1047C00015480EF0CFFB1548006811280ED112488D
:1047D00090F8310040F010000F4981F83100084690
:1047E0000EF064FC01200E4908700BE00A480EF040
:1047F000BFFB05200A4908700AA002F0E5FA0FA0E5
:1048000002F0E2FA134904480EF00AFC07B000BDBA
:1048100021BF0408D9BF0408301200205411002021
:104820003C0000200A20204E6574776F726B204395
:1048300061626C6520697320200A0000202020201E
:104840006E6F7420636F6E6E6563746564202020E4
:104850000A0000000525040801B52B4900980968E5
:10486000401AFA2804D328490098086012F048FD3D
:10487000264900980968401A41F28831884204D3D9
:1048800022490098086007F0A9FA214900980968B0
:10489000401AB0F57A7F05D30020FDF70DF91C49C9
:1048A000009808601B4900980968401AB0F5FA7F23
:1048B0001BD318490098086003F0E8FD16480078FB
:1048C000032812D01448007804280ED0124800782B
:1048D00005280AD01148006880F001000F490860DF
:1048E0000FA002F071FAFFF763FD184900980968FC
:1048F000401A4EF66021884204D31449009808609B
:1049000003F046FC08BD0000240000202800002021
:104910002C000020340000203C000020141802402D
:104920000A46696E65204448435020706572696F7D
:104930006469632070726F63657373206576657256
:1049400079203530306D730A0000000038000020F7
:1049500010B5024807F058FB10BD000030120020CF
:1049600000BFFEE7704708B525208DF80000012044
:104970008DF8010000208DF8020001208DF8030061
:10498000684600F011F812208DF8000001208DF823
:10499000010000208DF8020001208DF80300684618
:1049A00000F002F808BD000070B5002100230F22BE
:1049B000C4781CB3174C246804F4E064C4F5E064C4
:1049C000C4F30721C1F10404E3B20A4144789C40D6
:1049D000E1B28478144021430C07210E0E4C057877
:1049E0006155047804F01F050124AC4005786D1171
:1049F000AD0005F1E025C5F8004109E0047804F0B8
:104A00001F050124AC40054D0678761145F8264077
:104A100070BD00000CED00E000E400E080E100E08B
:104A200002490143024A1160704700000000FA0584
:104A30000CED00E07047000029B1064A12680243FD
:104A4000044B1A6004E0034A12688243014B1A6067
:104A5000704700003038024029B1064A126802430C
:104A6000044B1A6004E0034A12688243014B1A6047
:104A7000704700001038024029B1064A126802430C
:104A8000044B1A6004E0034A12688243014B1A6027
:104A9000704700003838024029B1064A12680243C4
:104AA000044B1A6004E0034A12688243014B1A6007
:104AB000704700004038024029B1064A126802439C
:104AC000044B1A6004E0034A12688243014B1A60E7
:104AD000704700002038024029B1064A126802439C
:104AE000044B1A6004E0034A12688243014B1A60C7
:104AF000704700004438024029B1064A1268024358
:104B0000044B1A6004E0034A12688243014B1A60A6
:104B10007047000024380240F0B500210022002434
:104B2000022500260223324F3F6807F00C0121B115
:104B3000042905D0082937D105E02E4F076036E05B
:104B40002D4F076033E02A4F3F1F3F68C7F3805661
:104B5000274F3F1F3F6807F03F036EB1264FB7FB5B
:104B6000F3F7DFF88CC0ACF1040CDCF800C0CCF338
:104B7000881C07FB0CF40CE01E4FB7FBF3F7DFF8C3
:104B800070C0ACF1040CDCF800C0CCF3881C07FB4F
:104B90000CF4174F3F1F3F68C7F301477F1C7D0090
:104BA000B4FBF5F7076002E0124F076000BF00BFDB
:104BB0000F4F3F6807F0F0010909104F7A5C076852
:104BC000D74047600A4F3F6807F4E051890A0B4F0E
:104BD0007A5C4768D7408760054F3F6807F46041BB
:104BE000490B064F7A5C4768D740C760F0BD0000AC
:104BF000083802400024F40040787D0114000020B1
:104C00007CB50546002400200090019000F0EAF8F1
:104C100000F0007010B10E2420467CBD3D4909888B
:104C200088B26946FDF772FE04460CB12046F4E7EF
:104C3000012D36D1019800F4802000282ED035486F
:104C400000880004344908603720486040208860AC
:104C50000020C860A8020861084600F001F937206A
:104C6000FCF7BEFB04460CB12046D6E702202A49D9
:104C7000086006204860402088600020C8604FF42B
:104C800080600861084600F0EBF80620FCF7A8FBFE
:104C900004460CB12046C0E72046BEE72524204646
:104CA000BBE7019800F4803078B31A48008800040C
:104CB0001949086037204860402088600020C8609B
:104CC0004FF480600861084600F0CAF83720FCF70E
:104CD00087FB04460CB120469FE700200E49086080
:104CE00006204860402088600020C8604FF4806043
:104CF0000861084600F0B4F80620FCF771FB044692
:104D00000CB1204689E7204687E7FFE725242046A7
:104D100083E7000060110020B075012001490860A0
:104D200070470000382C01400149086070470000BE
:104D3000382C01400149086070470000A0802542DE
:104D400001490860704700008C85254200210B4B0B
:104D500002681A601B1D42681A601A1D116821F052
:104D6000F701D0E902231A4303691A4343691A433E
:104D70001143024A0832116070470000242C0140A0
:104D800010B50121C802FFF7B7FE00214FF4006003
:104D9000FFF7B2FE10BD000001480068C0B27047C6
:104DA000102C014001460020034A12680A400AB153
:104DB000012000E000207047342C01400146002013
:104DC000034A12680A400AB1012000E0002070473F
:104DD000342C01400248006800F0030070470000D6
:104DE000002C014008B5014600200090024808440C
:104DF00000900098006808BD142C014010B500F028
:104E00000DFD10BD29B1064A12680243044B1A6019
:104E100004E0034A12688243014B1A6070470000A5
:104E20003C2C014000210A4A116847F6FF62914379
:104E3000027D83681A4343681A43C3681A430368B0
:104E40001A4303691A431143014A11607047000075
:104E5000042C01400148006870470000802C01408C
:104E60000021094B02681A601A1D11686FF30A01CC
:104E7000D0E901231A43C3681A4303691A43114353
:104E8000014A121D11607047082C01400149086059
:104E900070470000002C014008B5012000909DF8EB
:104EA000000008BD70B504460025204800680328AE
:104EB00002D12725284670BD1C48006838B11B4820
:104EC0000068012803D01948006802282CD1B4F5E5
:104ED000805F02D127252846EDE7B4F5006F13D196
:104EE0000120FFF78DFE0546F5B900201049087531
:104EF0000860486088604FF40060C8600020086166
:104F00000846FFF78FFF0FE00020FFF779FE054608
:104F100055B9002006490875086048608860C86077
:104F200008610846FFF77EFF2846C4E75C110020B1
:104F300098750120F0B5014600200022C04B1B7877
:104F400081F85630BF4B1B88A1F85430BE4B1B680C
:104F50001A0E93090B70C2F383034B7002F0030324
:104F60008B70B94B1B68C3F30742CA70B64B1B88E2
:104F7000C3F307220A71B44B1A784A715B681A0EA0
:104F80001301CB80B04B5B68C3F30742CB8843EA85
:104F90001213CB8002F00F030B72AB4B9B88C3F351
:104FA0000722D3094B72C2F380138B72C2F34013F2
:104FB000CB72C2F300130B7300234B73A04B1B681F
:104FC0001BB19F4B1B68012B4FD193071B0D0B612E
:104FD0009D4B1A790B6943EA82030B619A4B9B68DC
:104FE0001A0E0B6943EA92130B61C2F3C2030B75ED
:104FF00002F007034B75944B9B68C3F307425309B8
:105000008B75C2F38203CB7593075B0F0B768E4BC8
:105010001B89C3F307220B7E43EAD2130B760B697D
:105020005B1C0024C1E912340B7ED1E912469B1CA3
:10503000012505FA03F3DF17A4FB035C06FB03C39A
:1050400004FB0733C1E912530C7A0123A3400B651B
:105050000027D1E912560B6DA5FB034C06FB03C3D9
:1050600005FB0733C1E9124336E0754B1B68022B81
:1050700032D1754B1A7993069B0A0B61724B9B6870
:105080001A0E0B6943EA02230B616F4B9B68C3F353
:1050900007420B6913430B616B4B1B89C3F3072258
:1050A0000B6900245B1C44EB04074FF400760025D9
:1050B000A3FB064C07FB06C603FB05664FF48065A1
:1050C0000027A4FB053C06FB05C504FB0754C1E90A
:1050D00012344FF400730B65C2F3801301F8193FCB
:1050E00093065B0E4B70584B1A7A4B7843EAD213F7
:1050F0004B7002F07F038B70534BDB681A0ED309A1
:10510000CB70C2F341130B71C2F382034B7193074F
:105110001B0F8B714C4BDB68C3F307428B7943EA5F
:1051200092138B71C2F34013CB7100230B7202F008
:1051300001034B72444B9B89C3F30722D3098B7243
:10514000C2F38013CB72C2F340130B73C2F300138C
:105150004B73C2F381038B7302F00303CB733A4B9F
:105160001A7B53080B7401234B74384B1B681A0EBF
:10517000CA741939354B1B68C3F307421402CC8536
:10518000324B1B88C3F30722CB8D1343CB852F4BA8
:105190001A7814060C635B681A0E0B6B43EA024420
:1051A0000C632A4B5B68C3F307420B6B43EA022490
:1051B0000C63264B9B88C3F307220B6B13430B63D3
:1051C000224B1A7934235A54204B9B681A0E3523EC
:1051D0005A541E4B9B68C3F3074214068C631B4B47
:1051E0001B89C3F307228B6B43EA02448C63174B82
:1051F0001A7A8B6B43EA02248C63144BDB681A0E19
:105200008B6B13438B63114BDB68C3F307423C2367
:105210005B5C43EA12143C235C5413071C0DCC87DF
:105220000A4B9B89C3F30722CB8F1343CB87074BD2
:105230001A7B540840235C54012441235C54F0BD84
:105240005C110020601100201075012020750120E4
:1052500008B500200090FFF71FFE012809D168461D
:1052600000F0CAFB08B1FF2008BD0098C0F343203E
:10527000FAE7FF20F8E710B50424FFF7E9FF04463A
:10528000042C01D1002010BDFF2C01D10220FAE72F
:105290000120F8E71CB5002001904FF4C060FFF733
:1052A000BFFB31208DF8000001208DF801000020A7
:1052B0008DF8020001208DF803006846FFF774FBAB
:1052C0003B208DF8000001208DF801006846FFF7B3
:1052D0006BFB00F06DF9FFF753FD00F0BBF9019097
:1052E0009DF8040010B19DF804001CBD00F032F8D8
:1052F00001909DF8040010B19DF80400F5E700202E
:1053000012490875086048608860C86008610846EE
:10531000FFF788FD0E48FFF70DFE01909DF8040091
:1053200040B90B48B0F8540002041046002100F0C8
:1053300047FB01909DF8040020B94FF40060FFF78F
:10534000B1FD01909DF80400CFE7000098750120A1
:105350004075012038B5002401200090FFF73AFD88
:1053600010B92524204638BD44480068042828D0B8
:1053700000204349086002204860C0208860002067
:10538000C8604FF4806008610846FFF769FDFCF7CC
:10539000C1F804460CB12046E5E70020FFF722FDE6
:1053A000384908600420FFF71DFD36494860082091
:1053B000FFF718FD334988600C20FFF713FD3149D2
:1053C000C8602E48006858B12C480068012807D0F2
:1053D0002A480068062803D028480068022816D109
:1053E0000020274908600320486040208860002092
:1053F000C8604FF4806008610846FFF731FD6946D8
:105400000320FCF7C9F804460CB12046ABE71B4863
:10541000006804282ED0BDF800001B490860BDF8C4
:10542000000000041649086009204860C020886018
:105430000020C8604FF4806008610846FFF710FD47
:10544000FCF768F804460CB120468CE70020FFF713
:10545000C9FC0E4908600420FFF7C4FC0B494860F2
:105460000820FFF7BFFC094988600C20FFF7BAFC51
:105470000649C8600024204675E700005C11002042
:10548000B0750120207501206011002010750120E9
:1054900030B58FB004460D464FF0FA511E48FCF768
:1054A000F3F800211C48FCF709F91B48FCF712F936
:1054B0004FF0006000901948019002940020039082
:1054C00001200490002005904FF480600690800039
:1054D000079080000890002009904FF440300A9017
:1054E00004200B9003200C904FF400000D908010CE
:1054F0000E9069460848FCF7C1F9012210210648C0
:10550000FCF79FF920210448FCF790F9012102489B
:10551000FCF7D4F80FB030BD58640240802C014035
:1055200030B58FB004460D464FF0FA511E48FCF7D7
:10553000ABF800211C48FCF7C1F81B48FCF7CAF87F
:105540004FF00060009019480190029440200390B1
:1055500001200490002005904FF4806006908000A8
:10556000079080000890002009904FF440300A9086
:1055700004200B9003200C904FF400000D9080103D
:105580000E9069460848FCF779F901221021064877
:10559000FCF757F920210448FCF748F9012102489B
:1055A000FCF78CF80FB030BD58640240802C0140ED
:1055B0001CB501210C20FFF73FFA0C2208212348DB
:1055C000FDF7F2FA0C2209212048FDF7EDFA0C2232
:1055D0000A211E48FDF7E8FA0C220B211B48FDF7B3
:1055E000E3FA0C2211461948FDF7DEFA0C220221DB
:1055F0001748FDF7D9FA4FF47060009002208DF83B
:1056000005008DF8040000208DF8060001208DF8BB
:10561000070069460D48FDF77FFA042000906946AF
:105620000B48FDF779FA4FF48050009000208DF878
:10563000070069460548FDF76FFA0121C802FFF728
:105640004BFA01218805FFF7F7F91CBD000802405D
:10565000000C0240F8B50020009000250024002630
:10566000002776205F490875002008604860886040
:10567000C86008610846FFF7D5FB0320FFF706FC6A
:105680000120FFF757FB00205749086048608860F9
:10569000C8604FF4806008610846FFF7E1FBFBF744
:1056A00089FE00909DF8000010B19DF80000F8BD43
:1056B0004FF4D5704C49086008204860402088604D
:1056C0000020C8604FF4806008610846FFF7C8FBFF
:1056D000FBF7B0FF00909DF8000020B9012043497E
:1056E0000860870712E000203F49086037204860C3
:1056F000402088600020C8604FF480600861084640
:10570000FFF7AEFB3720FBF76BFE00900020364919
:10571000086037204860402088600020C8604FF44F
:10572000806008610846FFF79BFB3720FBF758FEB7
:1057300000909DF80000002851D13BE000202A494C
:10574000086037204860402088600020C8604FF41F
:10575000806008610846FFF783FB3720FBF740FEB7
:1057600000909DF8000010B19DF800009FE72048D0
:1057700038431D4908602920486040208860002087
:10578000C8604FF4806008610846FFF769FBFBF7CB
:10579000E7FE00909DF8000010B19DF8000086E73C
:1057A0000020FFF71FFB0546012080EAD57080F03E
:1057B0000106641C1EB94FF6FF708442BED34FF63B
:1057C000FF70844204D31B2000909DF800006EE718
:1057D00005F08040051E02D00220044908609DF8B3
:1057E000000064E798750120B07501205C1100206D
:1057F0000000108010B50748006800F0C05040B1AC
:105800000120054908604FF0C25102485830FBF7AB
:105810003BFF10BD006402407011002010B54FF432
:105820008070FFF7CBFA50B10020254908704FF483
:105830008070FFF779FA01202249086037E00220E2
:10584000FFF7BCFA30B10220FFF76EFA02201C49C4
:1058500008702CE00820FFF7B1FA30B10820FFF7FC
:1058600063FA04201649087021E02020FFF7A6FA09
:1058700030B12020FFF758FA06201149087016E0D1
:105880001020FFF79BFA30B11020FFF74DFA0520EA
:105890000B4908700BE04FF40070FFF78FFA30B13E
:1058A0004FF40070FFF740FA072005490870002107
:1058B0004CF23A30FFF7A6FA0148007810BD00001C
:1058C000681100206C1100202DE9F0478146144634
:1058D0001D46DDE90868002700203249087032497A
:1058E0000860012031490860002031490860012129
:1058F00040F22A30FFF786FA08FB06F14846FFF728
:10590000C7FD0120FFF71CFA2A480068022808D1C9
:1059100006020202002320462946FAF763FC0446E9
:105920000D462548066010202349486040208860C5
:105930000020C8604FF4806008610846FFF790FAC5
:105940001020FBF74DFD074617B13846BDE8F0873C
:105950004FF0FF301949086008FB06F048609020BE
:1059600088600220C8600020086101204861084664
:10597000FFF7ECF91048046012200F4948604020FE
:1059800088600020C8604FF4806008610846FFF717
:1059900067FA1220FBF724FD07460FB13846D5E71A
:1059A0003846D3E7681100206C11002064110020F4
:1059B0002C2C01405C110020B0750120C475012021
:1059C00070B504460D4600260A48046007200949C0
:1059D0004860402088600020C8604FF48060086103
:1059E0000846FFF73DFA0720FBF7FAFC064630466B
:1059F00070BD0000B075012070B50446002514B9D3
:105A00002625284670BD0F48008800040E4908600E
:105A10000D204860402088600020C8604FF48060FE
:105A200008610846FFF71CFA0D20FBF7D9FC054674
:105A30000DB12846E6E70020FFF7D4F9206028469C
:105A4000E0E7000060110020B075012010B50024CF
:105A500000200A4908600C2048604020886000202F
:105A6000C8604FF4806008610846FFF7F9F90C2020
:105A7000FBF7B6FC0446204610BD0000B0750120BF
:105A800070B500256C1E00E0641E1848006838B927
:105A90001748006820B91748007808B9002CF3D1DE
:105AA000002012490860441E00E0641E124800688D
:105AB00000F4005008B1002CF7D11048006801280C
:105AC00005D1FFF7C3FF054600200C4908600CB95B
:105AD00005B9042540F2FF50FFF720F9054800788A
