:020000040800F2
:10000000E0B50120C1010008BD3B0008AD23000898
:10001000B93B0008A50C0008395D0008000000008D
:10002000000000000000000000000000C1530008B4
:10003000C9110008000000008D3C00089559000817
:10004000DB010008DB010008DB010008DB01000820
:10005000DB010008DB010008DB010008DB01000810
:10006000DB010008DB010008DB010008DB01000800
:10007000DB010008DB010008DB010008DB010008F0
:10008000DB010008DB01000805070008DB010008B0
:10009000DB010008DB010008DB010008DB010008D0
:1000A000DB010008DB010008DB010008DB010008C0
:1000B000DB010008FD5A0008DB010008DB01000835
:1000C000DB010008DB010008DB010008DB010008A0
:1000D000DB010008DB010008DB010008DB01000890
:1000E000DB010008DB010008DB010008DB01000880
:1000F000DB010008DB010008DB010008DB01000870
:10010000DB01000835400008DB010008DB010008C6
:10011000DB010008DB010008DB010008DB0100084F
:10012000DB010008DB010008DB010008750F000897
:10013000DB010008DB010008DB010008DB0100082F
:10014000DB010008DB010008DB010008DB0100081F
:10015000DB010008DB010008DB010008DB0100080F
:10016000DB010008DB010008DB010008DB010008FF
:10017000DB010008DB010008DB010008DB010008EF
:10018000DB010008DB010008DB010008DB010008DF
:10019000DB010008DB010008DB010008DB010008CF
:1001A000DB010008DB010008DB010008DFF80CD0F0
:1001B00000F000F90048004731E60008E0B50120F2
:1001C0000648804706480047FEE7FEE7FEE7FEE7F1
:1001D000FEE7FEE7FEE7FEE7FEE7FEE7395A000826
:1001E000AD0100082DE9F05F0546002092469B46D0
:1001F00088460646814640241BE02846414647463D
:10020000224600F08EF853465A46C01A914110D348
:1002100011461846224600F075F82D1A67EB0108C2
:100220004F4622460120002100F06CF817EB000930
:100230004E41201EA4F10104DFDC484631462A4627
:100240004346BDE8F09F40EA01039B0703D009E065
:1002500008C9121F08C0042AFAD203E011F8013BB2
:1002600000F8013B521EF9D27047D2B201E000F80B
:10027000012B491EFBD270470022F6E710B513464A
:100280000A4604461946FFF7F0FF204610BD421EFD
:1002900012F8013F002BFBD111F8013B02F8013BA2
:1002A000002BF9D17047421C10F8011B0029FBD12B
:1002B000801A704710B5002200E0521C835C8C5CF1
:1002C000A34201D1002BF8D1D8B2E1B2401A10BD3F
:1002D00030B504460020034600E05B1C934203D285
:1002E000E05CCD5C401BF8D030BD70B5064605F033
:1002F00049FD046805460A220021304600F021F835
:100300002C6070BD202A04DB203A00FA02F10020A4
:1003100070479140C2F1200320FA03F31943904043
:100320007047202A04DB203A21FA02F000217047AE
:1003300021FA02F3D040C2F120029140084319464D
:1003400070472DE9F04791460F4680460446002647
:1003500014F8015B2DB100F03FF80068405DC00764
:10036000F6D12B2D02D02D2D18D0641E4A463946C9
:10037000204600F035F827B13968A14201D1C7F80D
:10038000008071054FF002040BD54042002803DDC8
:1003900005F0F8FC0460A007BDE8F08746F480662D
:1003A000E4E70028F8DA05F0EDFC04606FF00040A7
:1003B000F2E70000064C074D06E0E06840F001035C
:1003C00094E8070098471034AC42F6D3FFF7F2FEEA
:1003D000288A0108488A0108004870471C890108DA
:1003E0002DE9F05F82460078002715468B460AF11A
:1003F0000104B946302801D09DB113E014F8010B77
:100400000127782803D0582801D045B10AE00DB162
:10041000102D07D10027102514F8010B02E0082544
:1004200000E00A250026B0460EE005FB080005FBAB
:1004300006F1012701EB10461FFA80F8B6F5803F60
:1004400000D3B94614F8010B294600F018F800282B
:10045000EBDABBF1000F05D00FB1641E00E054468B
:10046000CBF80040B9F1000F06D005F08BFC02215B
:100470000160C81EBDE8F09F48EA0640FAE73A2846
:1004800000D2303820F02002412A01D3A2F13700F7
:10049000884201D34FF0FF30704770B58C1810F8C8
:1004A000015B15F0070301D110F8013B2A1106D1B9
:1004B00010F8012B03E010F8016B01F8016B5B1ED3
:1004C000F9D12B0705D40023521E0DD401F8013BAE
:1004D000FAE710F8013BCB1A921C03E013F8015B1A
:1004E00001F8015B521EF9D5A142D8D3002070BD9E
:1004F00000220A12D3430360704721B1826842F0A0
:100500000102826003E0826822F00102826070478B
:100510000021084A1168084A1140D0E900231A4313
:1005200083681A43C3681A431143044AC2F8041388
:100530007047000004230140E030FCFF0020014030
:100540001CB50121202003F0A3FB4FF48060009034
:1005500003208DF8040000208DF8070069465B48F1
:1005600001F086FE0121202003F092FB4FF4807001
:10057000009003208DF8040000208DF807006946E4
:10058000524801F075FE0121202003F081FB40203C
:10059000009003208DF8040000208DF807006946C4
:1005A0004A4801F065FE0121084603F071FB202056
:1005B000009003208DF8040000208DF807006946A4
:1005C000434801F055FE0121084603F061FB082075
:1005D000009003208DF8040000208DF80700694684
:1005E0003B4801F045FE0121202003F051FB102083
:1005F000009003208DF8040000208DF80700694664
:10060000324801F035FE0121202003F041FB4FF478
:100610000070009003208DF8040000208DF8070082
:1006200069462A4801F024FE0121202003F030FB16
:100630008020009003208DF8040000208DF8070032
:100640006946224801F014FE0121202003F020FB1E
:100650002020009003208DF8040000208DF8070072
:1006600069461A4801F004FE0121202003F010FB26
:100670000820009003208DF8040000208DF807006A
:100680006946124801F0F4FD0121084603F000FB21
:100690001020009003208DF8040000208DF8070042
:1006A00069460B4801F0E4FD0121084603F0F0FA29
:1006B0004020009003208DF8040000208DF80700F2
:1006C0006946034801F0D4FD1CBD0000001402403F
:1006D000000002400146C86C80B2704770B5024607
:1006E0000020002300240B12556801268E4005EAE5
:1006F000060415681D4015B10CB1012000E0002072
:1007000070BD000010B540F205213748FFF7E6FF45
:1007100088B340F205213448FFF7EAFE3248FFF77C
:10072000D9FF3249097801EB4101314A127811446D
:10073000304A126822F811002D480078401C2C49DC
:10074000087008460078032815DB00200870274849
:100750000078401C2549087008460078042801DB11
:10076000002008702448214A1278815C0523012268
:100770001D4800F0F9F840F205212048FFF7AEFFD0
:1007800088B340F205211D48FFF7B2FE1B48FFF772
:10079000A1FF1B49097801EB41011A4A1278114463
:1007A000194A126822F8110016480078401C1549B1
:1007B000087008460078032815DB002008701048F0
:1007C0000078401C0E49087008460078082801DBB4
:1007D000002008700D480A4A1278815C0523012226
:1007E000064800F0C1F810BD00200140DE000020E6
:1007F000F2000020A8000020CC00002000220140D0
:10080000F1000020F3000020C0000020DF000020E5
:1008100010B50B460021D9B2012404FA01F11AB136
:1008200044680C43446002E044688C43446010BD5B
:1008300030B50246002000235068104C20400D794E
:100840000C6844EA05242043506090680C4C20401A
:10085000D1E903542C438D682C434D7944EA450477
:1008600020439060D06A20F470000C7D641EE4B2D6
:10087000234340EA0350D06230BD0000FFFEFFFC7E
:10088000FDF7FFC000B58BB00121080203F040FA6C
:100890000020019002900390049001A8FFF738FE19
:1008A000002005908DF818008DF819000790099028
:1008B00001208DF8280005A92548FFF7B9FF254834
:1008C000254A1278815C00230122214800F04CF86F
:1008D00001211F48FFF711FE012240F205211C48AB
:1008E000FFF796FF1A4800F09BF80121880203F0F9
:1008F0000FFA0020019002900390049001A8FFF7E6
:1009000007FE002005908DF818008DF8190007905B
:10091000099001208DF8280005A91048FFF788FFED
:100920000F48104A1278815C002301220B4800F026
:100930001BF801210948FFF7E0FD012240F20521E3
:100940000648FFF765FF054800F06AF80BB000BDE8
:1009500000200140CC000020DE00002000220140E9
:10096000DF000020F1000020F0B504460D46002015
:100970000021092D11DDE068A5F10A0606EB460706
:10098000072606FA07F18843A5F10A0606EB460694
:1009900003FA06F10843E0600CE0206905EB450727
:1009A000072606FA07F1884305EB450603FA06F128
:1009B00008432061072A0FDA606B561E06EB860794
:1009C0001F2606FA07F18843561E06EB860605FA2F
:1009D00006F10843606322E00D2A0FDA206BD61F70
:1009E00006EB86071F2606FA07F18843D61F06EB9B
:1009F000860605FA06F10843206310E0E06AA2F1DA
:100A00000D0606EB86071F2606FA07F18843A2F1BA
:100A10000D0606EB860605FA06F10843E062F0BD16
:100A2000816841F0804181607047000010B5054841
:100A300005490860183005490860FFF781FDFFF798
:100A400021FF10BD7C4A0020A8000020C00000202B
:100A50001CB501208DF8040000208DF8060001204F
:100A60008DF8070002208DF805000121402003F0D9
:100A70000FF9202000906946864801F0F9FB01211A
:100A8000402003F005F9402000906946814801F0BC
:100A9000EFFB0121022003F0FBF880200090694663
:100AA0007D4801F0E5FB0121022003F0F1F8202050
:100AB00000906946784801F0DBFB0121402003F0FB
:100AC000E7F84FF4805000906946724801F0D0FB7F
:100AD0000121402003F0DCF80820009069466D48B1
:100AE00001F0C6FB0121082003F0D2F8402000905D
:100AF00069466A4801F0BCFB0121402003F0C8F8B8
:100B00004FF4806000906946624801F0B1FB01211A
:100B1000022003F0BDF84020009069465E4801F0D5
:100B2000A7FB0121402003F0B3F84FF400400090F0
:100B30006946584801F09CFB0121402003F0A8F8C9
:100B40004FF4006000906946524801F091FB01218A
:100B5000402003F09DF81020009069464D4801F0B8
:100B600087FB0121082003F093F8082000906946D4
:100B70004A4801F07DFB0121402003F089F84FF441
:100B8000007000906946434801F072FB012120206B
:100B900003F07EF84FF4006000906946404801F091
:100BA00067FB0121022003F073F8022000906946E0
:100BB000394801F05DFB0121022003F069F80120B2
:100BC00000906946344801F053FB02208DF805007F
:100BD00000208DF804008DF80700002220212D4808
:100BE00001F0BCFB002240212A4801F0B7FB0022A3
:100BF0008021294801F01EFB00222021264801F017
:100C000019FB00224FF48051224801F013FB00220F
:100C10000821204801F00EFB002240211F4801F06E
:100C200009FB00224FF480611A4801F003FB002207
:100C30004021194801F00DFB00224FF400411548F6
:100C400001F007FB00224FF40061124801F001FBA4
:100C5000002210210F4801F0FCFA002208210F4861
:100C600001F0F7FA00224FF400710A4801F0F1FA9E
:100C700000224FF400610A4801F0CDFA002202215F
:100C8000054801F0B9FA00220121034801F0B4FA45
:100C90001CBD00000018024000040240000C02408D
:100CA0000014024000BFFEE770B500254FF4803409
:100CB00000E0641E24B1802003F090F90028F8D0F1
:100CC00014B90325284670BD40F2FF5003F042F9E5
:100CD0002846F8E72DE9F041064600274848056810
:100CE00001E04748056805F045000028F9D005F007
:100CF000040030B10327042003F02CF93846BDE886
:100D0000F08105F0010028B10127012003F022F94C
:100D10003846F4E703F05CF9B04202D010273846B9
:100D2000EDE740F2FF5003F015F9002003F076F9EB
:100D300004463448204008B93846E0E704F0004053
:100D400008B11C20DBE704F0804008B10920D6E799
:100D500004F0005008B10A20D1E704F0805008B137
:100D60000B20CCE704F0006008B10C20C7E704F0CA
:100D7000806008B10D20C2E704F0807008B10E2039
:100D8000BDE704F4000008B10F20B8E704F48000C8
:100D900008B11020B3E704F4001008B11120AEE749
:100DA00004F4801008B11220A9E704F4002008B16F
:100DB0001320A4E704F4802008B114209FE704F472
:100DC000003008B115209AE704F4803008B11620ED
:100DD00095E704F4004008B1172090E704F4804040
:100DE00008B118208BE704F4005008B1192086E7F9
:100DF00004F0080008B11A2081E738467FE70000B8
:100E0000342C014008E0FFFD70B50025104804684F
:100E100001E00F48046804F045000028F9D004F010
:100E2000040028B10325042003F094F8284670BD7F
:100E300004F0010028B10125012003F08BF82846B9
:100E4000F5E740F2FF5003F085F82846EFE7000091
:100E5000342C014070B500250B48046801E00A48B5
:100E6000046804F045000028F9D004F0040028B11B
:100E70000325042003F06EF8284670BD40F2FF50B1
:100E800003F068F82846F8E7342C01402DE9F041DA
:100E900006460F464FF000082248056801E0214849
:100EA000056805F045000028F9D005F0040038B1C8
:100EB0004FF00308042003F04DF84046BDE8F081F0
:100EC00005F0010030B14FF00108012003F042F8B5
:100ED0004046F3E703F07CF8B04203D04FF010082F
:100EE0004046EBE740F2FF5003F034F8002003F0F7
:100EF00095F8044604F4604018B9200C3880404648
:100F0000DCE704F4005008B11320D7E704F4804074
:100F100008B11020D2E704F4004008B10F20CDE75B
:100F20004046CBE7342C014070B500264FF48035A5
:100F30000F48046802E06D1E0D48046804F0450087
:100F400008B9002DF7D115B104F0040028B103262B
:100F5000042002F0FFFF304670BD04F0400028B1CD
:100F60000026402002F0F6FF3046F5E73046F3E772
:100F7000342C014010B503F059FD10BD0246094B59
:100F80009A4201D2084801E00648103801F00053A7
:100F90001BB1064B0B40C36002E0044B0B40836067
:100FA0007047000010640240006002407D0F7D0F1A
:100FB00021B1026842F00102026003E0026822F0FF
:100FC0000102026070470000016821F00101016028
:100FD0000021016041608160C160016121214161A6
:100FE0004A49884204D13D21484A103A91608CE038
:100FF00046491831884205D14FF47461434A103A8A
:10100000916082E041493031884205D14FF474113A
:101010003E4A103A916078E03C494831884205D117
:101020004FF07461394A103A91606EE0374960318F
:10103000884204D13649354A103AD16065E03349D7
:101040007831884204D13349304A103AD1605CE0AB
:101050002E499031884204D12F492C4A103AD16050
:1010600053E02A49A831884205D14FF03D51274A23
:10107000103AD16049E02949884204D13D21274AEC
:10108000083A116041E025491831884205D14FF4F2
:101090007461224A083A116037E0204930318842B1
:1010A00005D14FF474111D4A083A11602DE01B4917
:1010B0004831884205D14FF07461184A083A1160EE
:1010C00023E016496031884204D11149134A121FA6
:1010D00011601AE011497831884204D10D490F4A54
:1010E000121F116011E00D499031884204D10A4964
:1010F0000A4A121F116008E00849A831884204D149
:101100004FF03D51054A121F1160704710600240B8
:101110003D000020400F002000003D2010640240F0
:1011200021B1026842F02002026003E0026822F06E
:1011300020020260704710B501F080034BB122B16C
:10114000436943F08003436103E0436923F0800374
:10115000436180290BD02AB1036801F01E042343A8
:10116000036004E0036801F01E04A343036010BDA4
:1011700010B500220268134B1A40CC680B68234359
:101180004C6923438C692343CC6923430C6A234372
:101190004C6A23438C6A23434C6B23438C6B23435D
:1011A0001A430260426922F00702D1E90B3423435B
:1011B0001A4342610B6943604B6883608B68C3606C
:1011C00010BD00003F801CF07047000000B587B0E4
:1011D0000121084602F05CFD0121102002F098FD7B
:1011E00007220A211F4801F08BF8072209211D4818
:1011F00001F086F800208DF81A0001208DF81B0000
:1012000002208DF818000002059002208DF81900C8
:1012100005A9144801F02CF802208DF818004002AE
:10122000059005A90F4801F023F84FF4E130019033
:101230000020ADF80800ADF80A00ADF80C00ADF8DC
:1012400010000C20ADF80E0001A9074804F006FDBF
:101250000121054804F0E9FC4021034804F0DCFCCE
:1012600007B000BD000002400010014001B5044974
:101270000098086000BF024800680028FBD108BD44
:1012800038110020044A116800BF034A1268521A3C
:101290008242FAD3704700004000002010B500F0F1
:1012A0004BF900F0C5FB0121002000F0B3FC00F079
:1012B000040028B10348006840F0100001490860AC
:1012C00010BD00004C11002034480068006800F098
:1012D0000040E8B931480068006800F48070B8B197
:1012E0002F4800688068401C2D49096888602C4898
:1012F00000688068012804D12848006828490968E6
:10130000086026480068264909684860012070473F
:1013100022480068006800F00040F0B91F480068EB
:10132000006800F40070C0B11C480068006800F458
:10133000807090B919480068194909680860002050
:1013400017490968486001201549096888601348F1
:101350000068C068114908601DE010480068006816
:1013600000F00040B8B90D480068006800F4007053
:1013700088B90A480068006800F4807058B90848C5
:1013800000688068401C0649096888600348006856
:10139000C068024908600020B9E700004011002041
:1013A0004411002070B505460121002000F032FCF8
:1013B00000F0040444B10B48007828B90A4810F042
:1013C000EBF80120074908705CB90648007840B185
:1013D000012006490870044810F0C9F800200149AE
:1013E000087070BD511100202812002050110020FB
:1013F00030B10749896941F00201054A916105E070
:101400000349896921F00201014A91617047000096
:101410000090024070B50C4613460021124D286022
:1014200000BF18E000EB41124FF00045156044F298
:10143000F4555560C1EBC11505EB450504EB850579
:1014400095605D1E8D4204D900EB41152035D560B5
:1014500000E0D060491C9942E4D3044DE860044D9B
:10146000044E356070BD0000401100200090024025
:10147000F05001204411002030B10749896941F43E
:101480000051054A916105E00349896921F4005141
:10149000014A9161704700000090024030B50C464F
:1014A000134600210F4D286000BF15E000EB4112EC
:1014B0004FF480151560C1EBC11505EB450504EB34
:1014C000850595605D1E8D4204D900EB41152035E0
:1014D000D56000E0D060491C9942E7D3024D2861F5
:1014E00030BD00003C1100200090024002680A4319
:1014F0000260704710B50121480602F0D9FB0021B7
:101500004FF0007002F0D4FB10BD000008B50020C1
:1015100000900848806940F48010064988610846B8
:10152000806900900120FFF7A1FE024900988861C0
:1015300008BD0000009002401CB5012140F2471098
:1015400002F0A6FB0121880302F0E2FB012003F078
:1015500039FF0220009003208DF8050001208DF84E
:10156000040000208DF806008DF807006946414808
:1015700000F07EFE02213F4800F0EEFE0520FFF75E
:1015800075FE02213B4800F0F8FE0520FFF76EFED5
:101590000420009003208DF8050002208DF804003F
:1015A00000208DF806008DF807006946324800F0EB
:1015B0005FFE0B220221304800F0A2FE02200090C4
:1015C00069462E4800F054FE0B2201212B4800F002
:1015D00097FE022000906946274800F049FE0B2242
:1015E0000121254800F08CFE8020009069462248A9
:1015F00000F03EFE0B2207211F4800F081FE102064
:10160000009069461D4800F033FE0B2204211B4860
:1016100000F076FE202000906946184800F028FE71
:101620000B220521154800F06BFE4FF4006000907E
:101630006946134800F01CFE0B221146104800F0CA
:101640005FFE4FF40050009069460E4800F010FE17
:101650000B220D210B4800F053FE4FF48040009008
:101660006946084800F004FE0B220E21054800F0F0
:1016700047FE1CBD0020024000000240000802405E
:10168000000402400018024000200449096801F0EB
:10169000010109B1012000E00020704700900240E4
:1016A0001EB5002100220092019202920C4A12689B
:1016B0001268C2F30D42111F00910A4A12681268A3
:1016C0000292084A1268126892680192044A1268EB
:1016D000D268034B1A609DE81C0080E81C001EBD08
:1016E00040110020441100202DE9F04188B004464B
:1016F0000F464FF00008002500200790B54E0290DD
:1017000001200190B448056925F01C0503A802F0EA
:101710001FFB049EB148864205D3B148864202D2DF
:1017200045F008051AE0AE48864205D3A94886422E
:1017300002D245F00C0511E0A648864203D3A94821
:10174000864200D20AE0A748864205D3A6488642D0
:1017500002D245F0040501E045F010059E48056100
:101760004FF400420021384600F00EFB10B9002073
:1017700001906AE0FF20FFF779FD2068002850D033
:1017800000BF0298401C02900121384600F042FA46
:1017900000F0040018B9954902988842F1D39349A2
:1017A0000298884202D1002001904EE00020029071
:1017B0004FF480520021384600F0E6FA08B90020C4
:1017C000019000BF0298401C02900121384600F0B1
:1017D00021FA00F0200018B9844902988842F1D318
:1017E00082490298884202D1002001902DE0002019
:1017F00002901F21384600F00DFA804608F01000D4
:1018000018B14FF40060206201E00020206208F06F
:10181000040010B10020606116E04FF48040606168
:1018200012E0206AC0F3CF006169C1F34F0140EAC2
:1018300001020021384600F0A7FA08B90020019003
:1018400040F6FF70FFF712FD00BF019820B94FF47A
:1018500000602062C00060615F4805686448054020
:10186000D4E901010843E16808432169084361693B
:101870000843A1690843E1690843216A0843616A92
:101880000843A16A0843E16A0843216B0843616B7E
:10189000084305435048056005680120FFF7E6FC52
:1018A0004D480560D4E90E010843216C0843616C82
:1018B0000843A16C0843E16C0843216D0843616D46
:1018C000084345494860084645680120FFF7CEFCBB
:1018D000414845604049A06D8860E06DC860084699
:1018E00085694FF641700540B4F86010606E40EABB
:1018F0000140A16E0843E16E0843216F0843616F08
:10190000084305433448856185690120FFF7AEFC33
:1019100031488561D4E91E0108432F49C861084652
:10192000C5690120FFF7A2FC2B48C56131488569D4
:1019300031480540D4E920010843D4F88810084311
:10194000D4F88C100843D4F890100843D4F89410BD
:101950000843D4F898100843D4F89C100843D4F8EE
:10196000A010084305432348856185690120FFF7DE
:101970007DFC20488561D4E929010843D4F8AC10E6
:101980000843D4F8B0100843D4F8B41040EA8100FA
:10199000D4F8B810084340F400001649086008461F
:1019A00005680120FFF762FC12480560006840F0FE
:1019B000800010490860084605680120FFF756FCC2
:1019C0000C4805600198012802D108B0BDE8F081FB
:1019D0000020FAE70087930300800240002D3101C8
:1019E000C00E160200E1F50580D1F008FFFF0400EB
:1019F0000F8120FF00900240233FDEF810B50B79E5
:101A00004C7943EA0422094B03441A64CB781B0641
:101A10008C7843EA04434C7843EA04230C7843EA85
:101A20000402024B03445A6410BD000000800240CF
:101A300010B501214FF0606002F02AF9FFF75AFD5E
:101A400000F01EF900BFFFF71FFE0128FBD01E4863
:101A500000F040F901201C4908600020C8614FF4E3
:101A6000007088620020C86288634864C8640865A2
:101A700048654FF4806048620020C1F880004FF054
:101A80000070C1F884000011C1F88C000020C1F87A
:101A90009400C1F898000420C1F8A000C005C1F866
:101AA000A4004012C1F8A8008001C1F8AC004012A7
:101AB000C1F8B0004000C1F8B80000210248FFF7AB
:101AC00013FE0249086010BDFC5001204C1100209B
:101AD00038B504460020009034B10B48006840F04F
:101AE00004000949086005E00748006820F0040088
:101AF000054908600448006800900120FFF7B6FB24
:101B000001490098086038BD0080024038B504469D
:101B10000020009034B10B48006840F008000949EB
:101B2000086005E00748006820F0080005490860E3
:101B30000448006800900120FFF798FB01490098D5
:101B4000086038BD0080024070B5024600230025C1
:101B500000242E480068006800F0004008B1002012
:101B600070BD2A48016840F2F450824208DD92FBC1
:101B7000F0F392FBF0F600FB162010B15B1C00E0C6
:101B80000123012B0CD1086840F040500860C2F3DB
:101B90000C004860086840F000400860C96826E012
:101BA000002422E0086820F0405008601CB9086852
:101BB00040F08050086040F2F4504860581EA04247
:101BC0000DD1086840F000500860581EC0EBC010EE
:101BD00000EB4000A2EB8005C5F30C0048600868EC
:101BE00040F000400860C968641C9C42DAD3074892
:101BF00001600748406900F0040020B10420044E51
:101C00007061002070600120AAE700003C110020F4
:101C10000090024018B502460B46002100200090BB
:101C20001548016901F01C014FF4784000EAC22018
:101C300001434FF4F86000EA8310014321F00201F0
:101C400041F001010C48016100BF0098401C009068
:101C50000948016901F0010018B1084C0098A04240
:101C6000F3D3064C0098A04201D1002018BD0248D1
:101C7000406980B2FAE7000000800240FFFF0400E4
:101C80000348006840F00100014908607047000007
:101C90000090024010B50120FFF738FF0120FFF748
:101CA00017FFFFF733FC0120FFF7E6FB0120FFF7EA
:101CB0009FFB10BD10B50020FFF7DEFB0020FFF7F3
:101CC00097FB0020FFF704FFFFF720FC0020FFF741
:101CD0001DFF10BD01210160002141608160C160D4
:101CE00001614FF48041416100218161C1614FF484
:101CF00000610162002141628162C162016341634E
:101D00008163C16340210164202141640021816419
:101D1000C164016541658165C165016680214166D7
:101D200000218166C166016741678167C1674FF025
:101D30008061C0F880104910C0F884100021C0F8FC
:101D400088104FF40011C0F88C100021C0F89010DA
:101D5000C0F89410C0F89810C0F89C10C0F8A010FB
:101D60004FF00071C0F8A4104912C0F8A810890102
:101D7000C0F8AC104912C0F8B0100021C0F8B4107F
:101D8000C0F8B8107047000038B503460C46002173
:101D9000002000901448016901F01C014FF47840C4
:101DA00000EAC32001434FF4F86000EA84100143C5
:101DB00041F0020141F001010B484261016100BFA5
:101DC0000098401C00900848016901F0010018B11A
:101DD000064D0098A842F3D3044D0098A84201D1C3
:101DE000002038BD0120FCE700800240FFFF040016
:101DF0007FB506460020039096F83100C0F300102E
:101E000000285CD034480068002842D000200390AD
:101E10004FF4805200210846FFF7B6FF00BF039839
:101E2000401C039001210020FFF7F4FE00F0200089
:101E300018B92A4903988842F1D3002003901F2142
:101E4000FFF7E8FE044604F0100020B14FF40060F4
:101E50002149086202E000201F49086204F00400E2
:101E600018B100201C49486103E04FF480401A4932
:101E700048611B480568184840691749096A0843C2
:101E80000543174805600120FFF7F0F9144805687D
:101E90000560FFF7FFFE00200290019000900120F6
:101EA000104908706B4601AA02A90F480FF0EAFA20
:101EB0000D480FF09FFB00200C4908700AE0FFF767
:101EC000F9FE052007490870304605F0CFFE0648A8
:101ED0000FF0F2FA7FBD0000FC500120FFFF04006C
:101EE000008002403C0000202812002050110020F9
:101EF00051B18200A2F1C042126842F00103820097
:101F0000A2F1C042136009E08200A2F1C04212684F
:101F1000034B1A408300A3F1C0431A6070470000CE
:101F2000FEFF0F0010B50022002103689B00A3F103
:101F3000C04319684A4B1940D0E901342343C468AF
:101F40002343046923434469234384692343C469C5
:101F50002343046A2343446A2343846A2343C46AB1
:101F60002343046B2343446B2343194303689B00BF
:101F7000A3F1C04319608368082B0BD103689B0051
:101F8000A3F1C0431B6843F0400403689B00A3F126
:101F9000C0431C60436BB3F5801F19D10368BBB10C
:101FA0004FF020435B6823F470024FF020431B681E
:101FB000446B23434FF02044236023461B6843F4C3
:101FC00080732360836B1B8A5B1E42EA035363604A
:101FD000836B1B68846B646843EA0413846BA46896
:101FE00043EA0423846BA48943EA0443846B248A70
:101FF00043EA0453846B247D43EA0463846BA4693D
:1020000023430468641CA400A4F1C0442360836AD1
:10201000B3F5804F1BD1C36B1B68C46B646843EA84
:102020000413C46BA46843EA0423C46B248A43EA00
:102030000453C46B247D43EA0463C46BA469234343
:102040000468A400A4F1C044C4F8043107E06FF0B0
:10205000704403689B00A3F1C043C3F8044110BD62
:102060008000E7FF2DE9FC4107460D4600260024CD
:1020700000200090019008205B4908601020486013
:10208000402088600020C8604FF4806008610846E6
:1020900002F002F81020FEF71DFE044614B120469F
:1020A000BDE8FC815148008800044F490860372092
:1020B0004860402088600020C8604FF4806008615C
:1020C000084601F0E9FF3720FEF704FE04460CB194
:1020D0002046E5E74FF0FF3045490860082048609A
:1020E000302088600220C86000200861012048611B
:1020F000084601F047FF00203B4908603320486054
:10210000402088600020C8604FF480600861084665
:1021100001F0C2FF3320FEF7DDFD04460CB120467E
:10212000BEE709E04FF4001001F058FF20B101F0C4
:10213000ADFF4DF82600761C2E48006840F22A615B
:1021400008400028EED0082001F048FF28B1082000
:1021500001F000FF04242046A2E7022001F03EFF28
:1021600028B1022001F0F6FE0224204698E7202044
:1021700001F034FF28B1202001F0ECFE06242046B7
:102180008EE74FF4007001F029FF30B14FF400707A
:1021900001F0E0FE0724204682E740F2FF5001F004
:1021A000D9FE00980006009901F47F4140EA012021
:1021B000009901F47F0140EA1120009940EA116082
:1021C000686001980006019901F47F4140EA01200E
:1021D000019901F47F0140EA1120019940EA116060
:1021E000286020465CE7000058520120581100206A
:1021F0006C520120342C014070B505460E46144641
:1022000024B93146284600F0B8F803E031462846A4
:1022100000F0A2F870BD70B505460E46144624B90C
:102220003146284600F0A9F803E03146284600F080
:1022300093F870BD70B505460E46144624B9314674
:10224000284600F089F803E03146284600F095F86A
:1022500070BD70B505460E46144624B93146284671
:1022600000F07AF803E03146284600F086F870BDA9
:10227000F0B50A4600210023002400BF3DE00125FF
:1022800005FA01F3156805EA03049C4234D1056898
:102290004F000326BE40B543056015794E00B5409A
:1022A0000668354305601579012D02D01579022D98
:1022B00016D185684F000326BE40B5438560557929
:1022C0004E00B540866835438560456801268E40DE
:1022D000B5434560456896798E40B6B23543456052
:1022E000C5684F000326BE40B543C560D5794E0092
:1022F000B540C6683543C560491C1029BFD3F0BD41
:10230000F0B5002300244D07ED0E02FA05F3CE10C0
:1023100000F1200555F826504E07F70E0F26BE4057
:10232000B543CF1000F1200646F82750CE1000F13B
:10233000200555F8265045EA0304CE1000F120058B
:1023400045F82640F0BD0246002013690B400BB152
:10235000012000E0002070474183704770B50546BA
:102360000E46144624B931462846FFF7F5FF03E030
:102370003146284600F001F870BD01837047000027
:10238000002009E00649095C064A32F81110064AA5
:1023900022F81010411CC8B20C28F3DB7047000073
:1023A000F40000207C4A0020FC4C00201CB50E4CA0
:1023B0000EA003F0C3FC0DA1204603F0CFFC214684
:1023C0000E48006814F0B0FF08A10D4803F09EFA13
:1023D000032000214FF6FF73094ACDE90010902039
:1023E00014F022F900BFFEE7EC120020686172646D
:1023F0006661756C742121210A0000001C01002017
:10240000147200201CB50121402001F041FC002085
:102410008DF8040001208DF80700802000906946A7
:102420000148FFF725FF1CBD001802402DE9F043CD
:1024300004460D4616461F46DDF81C803B463246D4
:102440002946204600F0BCFB00F0DCFB781B401C5A
:10245000311B491C00FB01F902E00848A0F800808C
:10246000B9F10000A9F10109F7D1F0234FF4A072EE
:102470000021084600F0A4FBBDE8F08300000260E4
:1024800010B50120FEF7F2FEE2204FF0C0410880B7
:102490000120FEF7F7FE2320C44908800120FEF743
:1024A000F1FE0220C14908800120FEF7EBFE042066
:1024B000BE4908800120FEF7E5FEE0204FF0C04154
:1024C00008800120FEF7DEFE0120B8490880FEF7F3
:1024D000D9FEE0204FF0C04108800120FEF7D2FE77
:1024E0000320B24908800120FEF7CCFE01204FF006
:1024F000C0410880FEF7C6FEE620010708800120E3
:10250000FEF7C0FE0020A94908800120FEF7BAFEB0
:10251000DB20A64908800120FEF7B4FE0020A34975
:102520000880B020410608800120FEF7ABFE202085
:102530009E4908800120FEF7A5FE00209B490880E7
:102540000120FEF79FFE012098490880FEF79AFEC1
:102550003F20964908800120FEF794FE0020934911
:1025600008800120FEF78EFEEF20904908800120B0
:10257000FEF788FE00208D4908800120FEF782FECC
:10258000B4204FF0C04108800120FEF77BFE0120FF
:1025900086490880FEF776FEA52084490880012040
:1025A000FEF770FE0020814908800120FEF76AFED8
:1025B00046207E4908800120FEF764FE01207B4909
:1025C0000880FEF75FFE0020784908800120FEF7B2
:1025D00059FE0020754908800120FEF753FE0020B7
:1025E000724908800120FEF74DFEB62001070880E1
:1025F0000120FEF747FE01206C490880FEF742FEED
:102600000C206A4908800120FEF73CFE0020674943
:1026100008800120FEF736FE0D2064490880012065
:10262000FEF730FE012061490880FEF72BFE0020F6
:102630005E4908800120FEF725FE00205B490880E6
:102640000120FEF71FFE2A204FF0C0410880012024
:10265000FEF718FE0020554908800120FEF712FE03
:102660000020524908800120FEF70CFE01204F494E
:102670000880FEF707FE3F204C4908800120FEF746
:1026800001FE2B20410708800120FEF7FBFD002002
:10269000464908800120FEF7F5FD002043490880E7
:1026A0000120FEF7EFFD0020404908800120FEF7E1
:1026B000E9FDEF203D4908800120FEF7E3FDBA2047
:1026C0004FF0C04108800120FEF7DCFD05203749AE
:1026D00008800120FEF7D6FDB8204FF0C0410880E9
:1026E0000120FEF7CFFD0720304908800120FEF7CA
:1026F000C9FD01202D490880FEF7C4FD36200107E1
:1027000008800120FEF7BEFD232028490880012013
:10271000FEF7B8FDF0204FF0C04108800120FEF721
:10272000B1FD0320214908800120FEF7ABFD2920DF
:102730004FF0C04108800120FEF7A4FDBE204FF0FD
:10274000C04108800120FEF79DFD06201749088042
:102750000120FEF797FD8020144908800120FEF734
:1027600091FD012011490880FEF78CFDF0200F49F2
:1027700008800120FEF786FD00200C49088001201A
:10278000FEF780FD0020094908800120FEF77AFD50
:10279000D0204FF0C04108800120FEF773FD0D20CE
:1027A000024908800120FEF76DFD10BD00000260A7
:1027B00010B54FF480511A48FFF7CEFD4FF4005189
:1027C0001748FFF7C9FD04211648FFF7C5FDC820CB
:1027D000FEF758FD04211348FFF7CFFD4FF4805159
:1027E0000F48FFF7CAFD4FF400510D48FFF7C5FD34
:1027F0004FF480510A48FFF7AFFD4FF400510848ED
:10280000FFF7AAFDFFF73CFE4FF480510448FFF7A5
:10281000B4FD4FF400510248FFF7AFFD10BD0000BA
:10282000000C02400018024000B59BB000201A9036
:1028300001217A2001F02CFA0121084601F048FA22
:102840004FF40040189001208DF8640000208DF8AE
:10285000660002208DF8650001208DF8670018A938
:102860008048FFF705FD4CF23370189002208DF878
:10287000640000208DF8660003208DF865000120BB
:102880008DF8670018A97848FFF7F2FC4FF68070C2
:10289000189002208DF8640000208DF86600032057
:1028A0008DF8650001208DF8670018A96F48FFF7C3
:1028B000DFFC4FF40060189002208DF864000020C7
:1028C0008DF8660003208DF8650001208DF8670003
:1028D00018A96548FFF7CCFC4FF4805018900120F0
:1028E0008DF8640000208DF8660003208DF86500E7
:1028F00001208DF8670018A95B48FFF7B9FC4FF479
:102900000050189001208DF8640000208DF86600BA
:1029100003208DF8650001208DF8670018A9524842
:10292000FFF7A6FC0420189001208DF86400002019
:102930008DF8660003208DF8650001208DF8670092
:1029400018A94B48FFF794FC0C2200214648FFF7DA
:10295000D7FC0C2201214448FFF7D2FC0C220421B1
:102960004148FFF7CDFC0C2205213F48FFF7C8FC8A
:102970000C2208213C48FFF7C3FC0C2209213A48ED
:10298000FFF7BEFC0C220A213748FFF7B9FC0C22E6
:102990000B213548FFF7B4FC0C220E213248FFF71B
:1029A000AFFC0C220F213048FFF7AAFC0C220721B4
:1029B0002E48FFF7A5FC0C2208212C48FFF7A0FCAD
:1029C0000C2209212948FFF79BFC0C220A212748E9
:1029D000FFF796FC0C220B212448FFF791FC0C22F8
:1029E00011462248FFF78CFC0C220D211F48FFF7EF
:1029F00087FC0C220E211D48FFF782FC0C220F21C0
:102A00001A48FFF77DFC0F200190002002903C2027
:102A1000039000200490059006900790089009907C
:102A20000A9010200B9000200C900D9013900E90A7
:102A30000F904FF480501090002011904FF4804080
:102A400012900020149001A81690179008A8FFF784
:102A500069FA01210020FFF74BFA3220FEF712FC41
:102A60001BB000BD00040240000C024000100240F8
:102A7000001802402DE9F041804600204B49C87102
:102A80004B48807F30287DDD404613F0D9FEB720CB
:102A90004FF0C04108800A2400BF201EA4F10101AC
:102AA000CCB2FAD1434807884FF6FF7000EA0727F7
:102AB00040480088384487B2404613F0A5FE0A24F7
:102AC00000BF201EA4F10101CCB2FAD1404613F0A0
:102AD000B7FEE32041070880642400BF201EA4F154
:102AE0000101CCB2FAD1334805882D020088054493
:102AF0002D02304800880544404613F085FE0A2424
:102B000000BF201EA4F10101CCB2FAD1404613F05F
:102B100097FEE7204FF0C0410880642400BF201ECC
:102B2000A4F10101CCB2FAD122480688360200880D
:102B3000064436021F4800880644404613F064FEEF
:102B4000B7F5867F05D11C48854202D1B6F55B4FAB
:102B50001ED01648C07940EA08001449C871FFF732
:102B600027FE1648006811490861144801680F489B
:102B70004163406C11490968081A0C498864084689
:102B8000406C00E004E00D490968091A0748C16477
:102B9000064890F85800022804D108480068034904
:102BA000086100E000BFBDE8F08100000C220020B9
:102BB000EC1A002000000260040223004000002004
:102BC00030B52A244FF0C0452C80C0F30F240C4DA3
:102BD0002C80C4B22C80C2F30F242C80D4B22C8061
:102BE0002B2465072C80C1F30F24054D2C80CCB21B
:102BF0002C80C3F30F242C80DCB22C8030BD00006D
:102C0000000002602C20C10608807047F0B5ADF5C9
:102C10000B7DFE4EFE484078002878D10120FC490B
:102C200048704EF660204864801008664FF47A7051
:102C3000C862F848C8604FF4FA60086200241CE0DB
:102C4000204604EBD0714910A4EB4101491CCAB2E3
:102C5000EF4908310A55022C03DB0021EC4808300B
:102C600001550021EA48C01C015571300155092168
:102C700000F517700155601CC4B2042CE0DB002481
:102C800009E0002104EB8402E148783000EB4200C7
:102C90000181601CC4B23C2CF3DB00241EE0DE4842
:102CA0000168DB48303040F82410DB480168D84820
:102CB000483040F824104038005D00280CDDD4482E
:102CC0000830005D1F21F0234FF4A072CDE9001001
:102CD0000021084613F04AFC601CC4B2042CDEDB61
:102CE000CE488078002810D0CC488278CCA13046DD
:102CF00003F034F803204FF6FF7100233246CDE98C
:102D000000102821184613F04DFCFDE3FFE7C048F2
:102D1000406AC1490968081ABD49096A884220D930
:102D2000BB48406ABA49096A0844B9494862002464
:102D30000BE0B7480830005D002804DDB4490831D5
:102D4000085DFFF797FE601CC4B2042CF1DB4CF267
:102D500018600090AE48438D028D0021084602F0B5
:102D6000C7FB0024FEE3AA48C01C005DC0BBA84806
:102D7000303050F82400A8490968081AA449C96AE3
:102D8000884232D9A2480830005D00282DDDA048D5
:102D9000303050F824009E49C96A01449C483030C4
:102DA00040F824100921283001555838406C9A49C0
:102DB0000968091A9648483040F824109648016876
:102DC0009348303040F82410002100F52870015558
:102DD000984830F8140020B101218D48C01C0155DD
:102DE00003E002218A48C01C01558948C01C005DCF
:102DF00001287DD18648303050F824008649096882
:102E0000081A8349C96A884272D981480830005D2E
:102E100000286DDD7E48303050F824007C49C96AB6
:102E200001447B48303040F8241000F52870005DE4
:102E300005287ADC76485830005D022877D07D4836
:102E400030F81400401C81B27A4820F81410704801
:102E5000406C71490968091A6D48483040F82410DF
:102E6000012275A1784808F059FC78490870084695
:102E70000078D0B97448C26804EB8420744B03EB2B
:102E80004001744B704808F043FD70490870002001
:102E900004EB84216E4A02EB410181F8000804EB47
:102EA000842102EB410181F80108674807F02BFFFC
:102EB0006649087068480078032829D101206649CE
:102EC00008701120487002215148583001550920DE
:102ED000614988704E485830025D60A15E480830F4
:102EE00002F03CFF4A480830005D4FF4097200E0F0
:102EF00090E15949083189906846FDF7A4F9564890
:102F000000210CC8084603F0B6F8032052490870A7
:102F1000414801683E48643040F824103E4801684A
:102F20003B48303040F824101AE35DE1FFE74A489F
:102F30000078032868D101204749087011204870A3
:102F4000092088703B4830F814004FF4616190FB11
:102F5000F1F201FB12004FF4167190FBF1F73A46C3
:102F600042A13D48083002F0F9FE29480830005DD2
:102F70004FF409723849083189906846FDF763F9C2
:102F8000354876210CC80E2003F075F8294830F832
:102F900014004FF4167190FBF1F201FB12003C217A
:102FA00090FBF1F73A4631A12B48083002F0D6FEEB
:102FB00017480830005D4FF409722749083189909D
:102FC0006846FDF740F924488B210CC80E2003F019
:102FD00052F8184830F814003C2190FBF1F201FB44
:102FE00012000A2190FBF1F73A4620A11A48083056
:102FF00002F0B4FE06480830005D4FF4097216492D
:1030000008318990684639E072E00000EC12002037
:103010000C220020C027090040000020EC1A0020EC
:1030200053442063617264206572726F723A256442
:10303000000000006A1F002061726561322F303489
:103040002E626D7000000000081001203011002079
:10305000F834002034110020B44D00206172656105
:10306000322F5025642E626D700000006172656120
:10307000322F5425642E626D70000000FDF7E3F8D6
:10308000FE48AE210CC80E2002F0F5FFFC4830F8D7
:1030900014000A2190FBF1F201FB12073A46AFF24D
:1030A0003401F648083002F059FEF648005D4FF44E
:1030B0000972F249083189906846FDF7C4F8EF4873
:1030C000C3210CC80E2002F0D6FFEE48005D4FF67B
:1030D000FF71CDE9001004EB8420EB4901EB4002C5
:1030E00000231946572013F027F90320E3490870FD
:1030F000E4485C3050F82400E4490968081AE149C2
:103100000839096E88426FD9DE485C3050F82400D7
:10311000DC490839096E0144DA485C3040F8241073
:10312000D648007803284CD10120D44908701120DA
:10313000487009208870D3496C31095D01EB810228
:10314000D049703101EB4200CC49083109F052FA04
:103150000122CA490831CE4808F0E0FACD4908708A
:1031600008460078A8B9C7486C30005D00EB8001C4
:10317000C448703000EB41000089401C81B2C14856
:103180006C30005D00EB8002BE48703000EB420006
:103190000181BF4807F0B7FDBE490870B948005D1E
:1031A0004FF40972B549083189906846FDF74BF82C
:1031B000B24800210CC8742002F05DFF0320AF4923
:1031C0000870B0486C30005D401CC1B2AD486C3036
:1031D0000155005DAB49083991F85D10884203DB69
:1031E0000021A8486C300155A54830F8140030B9CA
:1031F000A948005D401CC1B2A748015502E000216A
:10320000A5480155A448005D052803DD00219D481F
:10321000401F01559B48401F005D02287ED1994800
:10322000403050F8240099490968081A954908392E
:10323000496C884273D99348005D00286FDD93483C
:1032400001689048403040F824108D4830F8140050
:10325000002864D1FFF7ACFA8A48005D4FF6FF7191
:10326000F0234FF4A072CDE900100021084613F0BE
:103270007DF9824800780328EBD101207F4908704E
:10328000112048707F485030005D401CC1B27D481D
:1032900050300155005D012803DD00217948503090
:1032A000015509207549887076485030025DAFF2AB
:1032B00054217248083002F051FD7248005D4FF40D
:1032C00009726E49083189906846FCF7BCFF6B486B
:1032D00000210CC8084602F0CEFE704800EBC41274
:1032E0006FA16648083002F039FD66485030005D35
:1032F00040BB6448005D4FF4097260490831899011
:103300006846FCF7A0FF5D4838210CC8502002F049
:10331000B2FE5C48035D614A693A01E047E03DE086
:1033200060A1304602F01AFD5648005D4FF6FF716D
:1033300000233246CDE900106E214FF4877013F060
:1033400031F928E04F485030005D012823D14D4825
:10335000005D4FF409724949083189906846FCF7CD
:1033600072FF464838210CC8732002F084FE45489D
:10337000035D4A4A693A4BA1304602F0EFFC4148EE
:10338000005D4FF6FF7100233246CDE900106E213B
:103390000F2013F007F9032038490870384830F837
:1033A0001400002803DD01213648401F015535482F
:1033B000401F005D032879D13248403050F8240086
:1033C00032490968081A2F490839496C884254D98A
:1033D0002C48005D002850DD2C4801682948403009
:1033E00040F824104038005D4FF47841F023A022CB
:1033F000CDE900100021104613F0B8F81F480078FE
:10340000032825D101201D4908701120487009208A
:1034100088701C48005D401EC870204800EBC41234
:103420001FA11648083002F099FC1648005D4FF4C1
:1034300009721249083189906846FCF704FF0F4869
:1034400038210CC8B02002F016FE03200B4908708A
:103450000C48035D114A693A12A1304602F07EFC25
:103460000848005D4FF4784100233246CDE9001052
:1034700019464FF4987013F095F818E0B44D0020F9
:103480006A1F002014220020F83400204000002091
:103490000810012030110020DC240020611B0020D6
:1034A0002573000025733A256400000057E04FF4AF
:1034B0009075314850F8240030490968081A2E499F
:1034C0003039C96A88424AD92B4850F824002A4921
:1034D0003039C96A0144284840F82410284830F897
:1034E000142028A1304602F039FC03204FF4784123
:1034F000CDE90010202101FB14500023324619466B
:1035000013F050F81E4800E031E0083030F8142085
:103510001EA1304602F022FC03204FF47841CDE991
:103520000010202101FB1451A1F1100000233246AC
:10353000194613F037F81748827817A1304602F081
:103540000DFC0D482838005D4FF4784100233246C9
:10355000CDE90010BE214FF4987013F023F800BF9E
:10356000601C00E000E0C4B2042CFFF6FCAB0020BD
:103570000DF50B7DF0BD00003C2200204000002036
:10358000621F0020533A256400000000553A25646C
:1035900000000000E02400204B563A2564000000A3
:1035A0001CB50121602000F073FB01208DF80400A0
:1035B00000208DF8060001208DF8070000208DF80E
:1035C00005000120009069460D48FEF751FE4FF4BA
:1035D0000040009069460B48FEF74AFE4FF48040D9
:1035E000009069460748FEF743FE01200449183160
:1035F0000880C003034918310880401008801CBDB2
:10360000001802400014024010B586B0924C934856
:103610000078012802D002287ED128E002208F49BC
:1036200008708F4804F0B8FA00208E4908608EA018
:1036300002F084FB92A002F081FB97A002F07EFBD7
:103640009BA1A14802F062F98DA19F4802F05EF9AA
:1036500091A19D4802F05AF9032000214FF6FF7313
:10366000994ACDE90010902012F0DEFFF0E07C488E
:1036700040687C4908600846006800287DD0032027
:1036800076490870764804F0F1FA90A002F056FBF3
:1036900095A002F053FB73480068000E009071483B
:1036A00001780068C0F307436E480088C0F3072222
:1036B00094A002F043FB6A488068000E00906848BE
:1036C0008068C0F3074366480089C0F30722644856
:1036D000017A91A002F032FB6148C068000E0090B0
:1036E0005F48C068C0F307435D488089C0F3072284
:1036F0005B48017B8EA002F021FB012092490880EB
:1037000092A1714802F002F996A16F4802F0FEF80A
:1037100054480068000E00E099E052490968C1F37E
:103720000741CDE900104F4802780088C0F3072315
:1037300091A1204602F012FB2146634802F0E6F810
:1037400047488068000E46498968C1F30741CDE9C2
:10375000001043480089C0F307234148027A6EA154
:10376000204602F0FBFA2146574802F0CFF83C48C9
:10377000C068000E3A49C96800E01CE0C1F3074187
:10378000CDE9001036488089C0F307233448027B16
:1037900067A1204602F0E2FA21464B4802F0B6F853
:1037A000032000214FF6FF73474ACDE90010902017
:1037B00012F03AFF4AE02A48406A407B042845DD7F
:1037C000042026490870264804F050FA70480590F5
:1037D0006FF07F4004906F48039003AB04AA05A9E3
:1037E0001F480DF04FFE6CA002F0A8FA70A002F086
:1037F000A5FAC8200023A822C021009041A002F011
:103800009DFA0020FF231A461946009042A002F0BC
:1038100095FA01200023A822C021009044A002F0C4
:103820008DFA01204849088067A1274802F06EF808
:1038300069A1254802F06AF8032000214FF6FF73C2
:10384000214ACDE90010902012F0EEFE00E000BF0A
:1038500000BF06B010BD0000EC1200203C000020AC
:1038600028120020300000200A20202020204C6F49
:103870006F6B696E6720666F72202020200A00003F
:1038800020202020204448435020736572766572C2
:10389000202020200A0000002020202020706C65BD
:1038A00061736520776169742E2E2E200A00000056
:1038B00020202020204C6F6F6B696E6720666F722E
:1038C000202020200A000000147200200A20204935
:1038D0005020616464726573732061737369676EED
:1038E0006564200A00000000202020206279206109
:1038F0002044484350207365727665722020200A68
:103900000000000049503A2025642E25642E2564CD
:103910002E25640A000000004E45544D41534B3A99
:103920002025642E25642E25642E25640A000000BF
:10393000476174657761793A2025642E25642E25C8
:10394000642E25640A0000001818024049502061C6
:103950006464726573732061737369676E65642054
:103960000A000000627920612044484350207365BA
:10397000727665720A00000053454C465F49503A22
:103980002025642E25642E25642E25640A0000005F
:10399000C0A800C8C0A800010A2020202044484335
:1039A000502074696D656F7574202020200A000016
:1039B00020205374617469632049502061646472EB
:1039C0006573732020200A00444843502074696DB9
:1039D000656F75740A00000053746174696320494F
:1039E0005020616464726573730A000000B587B08B
:1039F0000DF0A0FA0DF0FCFB00200690059004905D
:103A000019481A49002204ABCDE90021029005AA09
:103A100006A917480DF0FEFC15480DF047FD1548A6
:103A2000006811280ED1124890F8310040F01000C3
:103A30000F4981F8310008460DF0DCFD01200E49E8
:103A400008700BE00A480DF037FD05200A490870A0
:103A50000AA002F073F90FA002F070F913490448AC
:103A60000DF082FD07B000BDF5AB0008ADAC00085D
:103A7000281200204C1100203C0000200A20204E7B
:103A80006574776F726B204361626C652069732087
:103A9000200A0000202020206E6F7420636F6E6E5D
:103AA00065637465642020200A000000F11D000891
:103AB00001B52B4900980968401AFA2804D328490F
:103AC0000098086011F01CFE264900980968401A09
:103AD00041F28831884204D322490098086006F0F8
:103AE000E7FF214900980968401AB0F57A7F05D3AD
:103AF0000020FDF757FC1C49009808601B490098FE
:103B00000968401AB0F5FA7F1BD31849009808607D
:103B100003F048FB16480078032812D014480078B8
:103B200004280ED01248007805280AD011480068F1
:103B300080F001000F4908600FA002F0FFF8FFF7C6
:103B400063FD184900980968401A4EF660218842C2
:103B500004D314490098086003F0A6F908BD0000DA
:103B600024000020280000202C0000203400002029
:103B70003C000020141802400A46696E6520444843
:103B8000435020706572696F6469632070726F635F
:103B9000657373206576657279203530306D730AF0
:103BA000000000003800002010B5024807F096F829
:103BB00010BD00002812002000BFFEE7704708B5C6
:103BC00025208DF8000001208DF8010000208DF8DF
:103BD000020001208DF80300684600F011F8122061
:103BE0008DF8000001208DF8010000208DF8020002
:103BF00001208DF80300684600F002F808BD0000BF
:103C000070B5002100230F22C4781CB3174C246820
:103C100004F4E064C4F5E064C4F30721C1F10404D2
:103C2000E3B20A4144789C40E1B2847814402143D5
:103C30000C07210E0E4C05786155047804F01F0521
:103C40000124AC4005786D11AD0005F1E025C5F803
:103C5000004109E0047804F01F050124AC40054D43
:103C60000678761145F8264070BD00000CED00E0A6
:103C700000E400E080E100E002490143024A1160F3
:103C8000704700000000FA050CED00E070470000EE
:103C900029B1064A12680243044B1A6004E0034A41
:103CA00012688243014B1A607047000030380240AE
:103CB00029B1064A12680243044B1A6004E0034A21
:103CC00012688243014B1A607047000010380240AE
:103CD00029B1064A12680243044B1A6004E0034A01
:103CE00012688243014B1A60704700003838024066
:103CF00029B1064A12680243044B1A6004E0034AE1
:103D000012688243014B1A6070470000403802403D
:103D100029B1064A12680243044B1A6004E0034AC0
:103D200012688243014B1A60704700004438024019
:103D300029B1064A12680243044B1A6004E0034AA0
:103D400012688243014B1A60704700002438024019
:103D5000F0B5002100220024022500260223324F64
:103D60003F6807F00C0121B1042905D0082937D19B
:103D700005E02E4F076036E02D4F076033E02A4FF5
:103D80003F1F3F68C7F38056274F3F1F3F6807F02C
:103D90003F036EB1264FB7FBF3F7DFF88CC0ACF1F1
:103DA000040CDCF800C0CCF3881C07FB0CF40CE01E
:103DB0001E4FB7FBF3F7DFF870C0ACF1040CDCF872
:103DC00000C0CCF3881C07FB0CF4174F3F1F3F6863
:103DD000C7F301477F1C7D00B4FBF5F7076002E0E5
:103DE000124F076000BF00BF0F4F3F6807F0F001A0
:103DF0000909104F7A5C0768D74047600A4F3F684F
:103E000007F4E051890A0B4F7A5C4768D740876016
:103E1000054F3F6807F46041490B064F7A5C4768DD
:103E2000D740C760F0BD0000083802400024F4000D
:103E300040787D01140000207CB505460024002058
:103E40000090019000F0EAF800F0007010B10E242C
:103E500020467CBD3D49098888B26946FEF702F9D3
:103E600004460CB12046F4E7012D36D1019800F448
:103E7000802000282ED0354800880004344908608E
:103E800037204860402088600020C860A802086190
:103E9000084600F001F93720FCF71CFF04460CB17E
:103EA0002046D6E702202A490860062048604020C4
:103EB00088600020C8604FF480600861084600F008
:103EC000EBF80620FCF706FF04460CB12046C0E7DD
:103ED0002046BEE725242046BBE7019800F4803049
:103EE00078B31A48008800041949086037204860F0
:103EF000402088600020C8604FF480600861084658
:103F000000F0CAF83720FCF7E5FE04460CB1204665
:103F10009FE700200E490860062048604020886026
:103F20000020C8604FF480600861084600F0B4F8D3
:103F30000620FCF7CFFE04460CB1204689E7204658
:103F400087E7FFE72524204683E70000581100207B
:103F5000585201200149086070470000382C014088
:103F60000149086070470000382C01400149086091
:103F700070470000A080254201490860704700009A
:103F80008C85254200210B4B02681A601B1D42687C
:103F90001A601A1D116821F0F701D0E902231A43B3
:103FA00003691A4343691A431143024A08321160F4
:103FB00070470000242C014010B50121C802FFF712
:103FC000B7FE00214FF40060FFF7B2FE10BD000005
:103FD00001480068C0B27047102C01400146002023
:103FE000034A12680A400AB1012000E0002070472D
:103FF000342C014001460020034A12680A400AB1ED
:10400000012000E000207047342C01400248006885
:1040100000F0030070470000002C014008B5014685
:10402000002000900248084400900098006808BDF5
:10403000142C014010B500F00DFD10BD29B1064A49
:1040400012680243044B1A6004E0034A1268824378
:10405000014B1A60704700003C2C014000210A4AC5
:10406000116847F6FF629143027D83681A434368F3
:104070001A43C3681A4303681A4303691A43114376
:10408000014A116070470000042C0140014800689B
:1040900070470000802C01400021094B02681A6023
:1040A0001A1D11686FF30A01D0E901231A43C3688E
:1040B0001A4303691A431143014A121D11607047E4
:1040C000082C01400149086070470000002C0140A5
:1040D00008B5012000909DF8000008BD70B50446A9
:1040E000002520480068032802D12725284670BDF6
:1040F0001C48006838B11B480068012803D01948E3
:10410000006802282CD1B4F5805F02D1272528460B
:10411000EDE7B4F5006F13D10120FFF78DFE0546E2
:10412000F5B90020104908750860486088604FF4B0
:104130000060C860002008610846FFF78FFF0FE0AD
:104140000020FFF779FE054655B90020064908759D
:10415000086048608860C86008610846FFF77EFF15
:104160002846C4E75411002040520120F0B5014612
:1041700000200022C04B1B7881F85630BF4B1B88B3
:10418000A1F85430BE4B1B681A0E93090B70C2F392
:1041900083034B7002F003038B70B94B1B68C3F3AE
:1041A0000742CA70B64B1B88C3F307220A71B44B8F
:1041B0001A784A715B681A0E1301CB80B04B5B68AA
:1041C000C3F30742CB8843EA1213CB8002F00F03FC
:1041D0000B72AB4B9B88C3F30722D3094B72C2F31C
:1041E00080138B72C2F34013CB72C2F300130B73B4
:1041F00000234B73A04B1B681BB19F4B1B68012B0B
:104200004FD193071B0D0B619D4B1A790B6943EA44
:1042100082030B619A4B9B681A0E0B6943EA921357
:104220000B61C2F3C2030B7502F007034B75944B8D
:104230009B68C3F3074253098B75C2F38203CB75A6
:1042400093075B0F0B768E4B1B89C3F307220B7E04
:1042500043EAD2130B760B695B1C0024C1E91234CC
:104260000B7ED1E912469B1C012505FA03F3DF17EB
:10427000A4FB035C06FB03C304FB0733C1E9125331
:104280000C7A0123A3400B650027D1E912560B6D70
:10429000A5FB034C06FB03C305FB0733C1E912432F
:1042A00036E0754B1B68022B32D1754B1A79930699
:1042B0009B0A0B61724B9B681A0E0B6943EA02233F
:1042C0000B616F4B9B68C3F307420B6913430B6190
:1042D0006B4B1B89C3F307220B6900245B1C44EB67
:1042E00004074FF400760025A3FB064C07FB06C627
:1042F00003FB05664FF480650027A4FB053C06FB25
:1043000005C504FB0754C1E912344FF400730B6573
:10431000C2F3801301F8193F93065B0E4B70584BA4
:104320001A7A4B7843EAD2134B7002F07F038B70FA
:10433000534BDB681A0ED309CB70C2F341130B71D8
:10434000C2F382034B7193071B0F8B714C4BDB68DD
:10435000C3F307428B7943EA92138B71C2F3401384
:10436000CB7100230B7202F001034B72444B9B890B
:10437000C3F30722D3098B72C2F38013CB72C2F34B
:1043800040130B73C2F300134B73C2F381038B739F
:1043900002F00303CB733A4B1A7B53080B740123CF
:1043A0004B74384B1B681A0ECA741939354B1B688D
:1043B000C3F307421402CC85324B1B88C3F3072298
:1043C000CB8D1343CB852F4B1A7814060C635B6897
:1043D0001A0E0B6B43EA02440C632A4B5B68C3F36F
:1043E00007420B6B43EA02240C63264B9B88C3F302
:1043F00007220B6B13430B63224B1A7934235A5455
:10440000204B9B681A0E35235A541E4B9B68C3F3EE
:10441000074214068C631B4B1B89C3F307228B6B6B
:1044200043EA02448C63174B1A7A8B6B43EA0224EB
:104430008C63144BDB681A0E8B6B13438B63114B2D
:10444000DB68C3F307423C235B5C43EA12143C2362
:104450005C5413071C0DCC870A4B9B89C3F30722BE
:10446000CB8F1343CB87074B1A7B540840235C54F4
:10447000012441235C54F0BD541100205811002048
:10448000B8510120C851012008B500200090FFF765
:104490001FFE012809D1684600F0CAFB08B1FF20C1
:1044A00008BD0098C0F34320FAE7FF20F8E710B5F5
:1044B0000424FFF7E9FF0446042C01D1002010BDBD
:1044C000FF2C01D10220FAE70120F8E71CB50020FB
:1044D00001904FF4C060FFF7CFFB31208DF8000052
:1044E00001208DF8010000208DF8020001208DF8D8
:1044F00003006846FFF784FB3B208DF80000012095
:104500008DF801006846FFF77BFB00F06DF9FFF7BF
:1045100053FD00F0BBF901909DF8040010B19DF827
:1045200004001CBD00F032F801909DF8040010B1A9
:104530009DF80400F5E700201249087508604860FE
:104540008860C86008610846FFF788FD0E48FFF7DD
:104550000DFE01909DF8040040B90B48B0F85400DE
:1045600002041046002100F047FB01909DF8040072
:1045700020B94FF40060FFF7B1FD01909DF80400F1
:10458000CFE7000040520120E851012038B5002457
:1045900001200090FFF73AFD10B92524204638BDD0
:1045A00044480068042828D00020434908600220BD
:1045B0004860C02088600020C8604FF480600861B7
:1045C0000846FFF769FDFCF71FFC04460CB12046C6
:1045D000E5E70020FFF722FD384908600420FFF7D7
:1045E0001DFD364948600820FFF718FD33498860F3
:1045F0000C20FFF713FD3149C8602E48006858B100
:104600002C480068012807D02A480068062803D0F3
:1046100028480068022816D1002027490860032096
:104620004860402088600020C8604FF480600861C6
:104630000846FFF731FD69460320FCF727FC0446D6
:104640000CB12046ABE71B48006804282ED0BDF80B
:1046500000001B490860BDF800000004164908600E
:1046600009204860C02088600020C8604FF4806046
:1046700008610846FFF710FDFCF7C6FB04460CB1C5
:1046800020468CE70020FFF7C9FC0E490860042093
:10469000FFF7C4FC0B4948600820FFF7BFFC09493D
:1046A00088600C20FFF7BAFC0649C8600024204649
:1046B00075E700005411002058520120C851012014
:1046C00058110020B851012030B58FB004460D4676
:1046D0004FF0FA511E48FCF751FC00211C48FCF732
:1046E00067FC1B48FCF770FC4FF000600090194815
:1046F0000190029400200390012004900020059076
:104700004FF48060069080000790800008900020A1
:1047100009904FF440300A9004200B9003200C9035
:104720004FF400000D9080100E9069460848FCF789
:104730001FFD012210210648FCF7FDFC2021044842
:10474000FCF7EEFC01210248FCF732FC0FB030BD53
:1047500058640240802C014030B58FB004460D46AD
:104760004FF0FA511E48FCF709FC00211C48FCF7E9
:104770001FFC1B48FCF728FC4FF000600090194814
:1047800001900294402003900120049000200590A5
:104790004FF4806006908000079080000890002011
:1047A00009904FF440300A9004200B9003200C90A5
:1047B0004FF400000D9080100E9069460848FCF7F9
:1047C000D7FC012210210648FCF7B5FC2021044843
:1047D000FCF7A6FC01210248FCF7EAFB0FB030BD54
:1047E00058640240802C01401CB501210C20FFF7C9
:1047F0004FFA0C2208212348FDF782FD0C220921E3
:104800002048FDF77DFD0C220A211E48FDF778FDAA
:104810000C220B211B48FDF773FD0C221146194891
:10482000FDF76EFD0C2202211748FDF769FD4FF4DC
:104830007060009002208DF805008DF804000020C3
:104840008DF8060001208DF8070069460D48FDF738
:104850000FFD0420009069460B48FDF709FD4FF459
:104860008050009000208DF8070069460548FDF74C
:10487000FFFC0121C802FFF74BFA01218805FFF771
:1048800007FA1CBD00080240000C0240F8B50020E9
:104890000090002500240026002776205F49087537
:1048A0000020086048608860C86008610846FFF71B
:1048B000D5FB0320FFF706FC0120FFF757FB002084
:1048C0005749086048608860C8604FF4806008619C
:1048D0000846FFF7E1FBFCF7E7F900909DF80000C0
:1048E00010B19DF80000F8BD4FF4D5704C49086038
:1048F00008204860402088600020C8604FF4806035
:1049000008610846FFF7C8FBFCF70EFB00909DF816
:10491000000020B9012043490860870712E0002009
:104920003F49086037204860402088600020C86008
:104930004FF4806008610846FFF7AEFB3720FCF7B4
:10494000C9F90090002036490860372048604020AF
:1049500088600020C8604FF4806008610846FFF757
:104960009BFB3720FCF7B6F900909DF8000000286B
:1049700051D13BE000202A490860372048604020A0
:1049800088600020C8604FF4806008610846FFF727
:1049900083FB3720FCF79EF900909DF8000010B1D2
:1049A0009DF800009FE7204838431D4908602920F2
:1049B0004860402088600020C8604FF48060086133
:1049C0000846FFF769FBFCF745FA00909DF80000E8
:1049D00010B19DF8000086E70020FFF71FFB054699
:1049E000012080EAD57080F00106641C1EB94FF6E4
:1049F000FF708442BED34FF6FF70844204D31B2065
:104A000000909DF800006EE705F08040051E02D082
:104A10000220044908609DF8000064E7405201202C
:104A200058520120541100200000108010B5074892
:104A3000006800F0C05040B10120054908604FF007
:104A4000C25102485830FCF799FA10BD0064024088
:104A50006811002010B54FF48070FFF7CBFA50B109
:104A60000020254908704FF48070FFF779FA012083
:104A70002249086037E00220FFF7BCFA30B102207B
:104A8000FFF76EFA02201C4908702CE00820FFF79F
:104A9000B1FA30B10820FFF763FA04201649087014
:104AA00021E02020FFF7A6FA30B12020FFF758FAC6
:104AB00006201149087016E01020FFF79BFA30B16C
:104AC0001020FFF74DFA05200B4908700BE04FF45A
:104AD0000070FFF78FFA30B14FF40070FFF740FA23
:104AE00007200549087000214CF23A30FFF7A6FA7A
:104AF0000148007810BD0000601100206411002002
:104B00002DE9F047814614461D46DDE90868002777
:104B1000002032490870324908600120314908609C
:104B2000002031490860012140F22A30FFF786FA5F
:104B300008FB06F14846FFF7C7FD0120FFF71CFA06
:104B40002A480068022808D10602020200232046F3
:104B50002946FBF747FB04460D4625480660102012
:104B600023494860402088600020C8604FF480607E
:104B700008610846FFF790FA1020FCF7ABF80746EB
:104B800017B13846BDE8F0874FF0FF30194908608B
:104B900008FB06F04860902088600220C860002072
:104BA0000861012048610846FFF7ECF910480460ED
:104BB00012200F494860402088600020C8604FF4F0
:104BC000806008610846FFF767FA1220FCF782F858
:104BD00007460FB13846D5E73846D3E760110020C5
:104BE000641100205C1100202C2C01405411002085
:104BF000585201206C52012070B504460D46002623
:104C00000A48046007200949486040208860002065
:104C1000C8604FF4806008610846FFF73DFA07203E
:104C2000FCF758F80646304670BD00005852012087
:104C300070B50446002514B92625284670BD0F48D6
:104C4000008800040E4908600D20486040208860FC
:104C50000020C8604FF4806008610846FFF71CFA26
:104C60000D20FCF737F805460DB12846E6E7002091
:104C7000FFF7D4F920602846E0E700005811002033
:104C80005852012010B5002400200A4908600C2069
:104C90004860402088600020C8604FF48060086150
:104CA0000846FFF7F9F90C20FCF714F804462046F3
:104CB00010BD00005852012070B500256C1E00E0A8
:104CC000641E1848006838B91748006820B91748AA
:104CD000007808B9002CF3D1002012490860441E66
:104CE00000E0641E1248006800F4005008B1002C77
:104CF000F7D110480068012805D1FFF7C3FF05462A
:104D000000200C4908600CB905B9042540F2FF5099
:104D1000FFF720F90548007810B10448007870BD0D
:104D20002846FCE768110020641100206011002073
:104D3000342C01405C11002070B500256C1E00E091
:104D4000641E1848006838B91748006820B9174829
:104D5000007808B9002CF3D1002012490860441EE5
:104D600000E0641E1248006800F4805008B1002C76
:104D7000F7D110480068012805D1FFF783FF0546E9
:104D800000200C4908600CB905B9042540F2FF5019
:104D9000FFF7E0F80548007810B10448007870BDCE
:104DA0002846FCE7681100206411002060110020F3
:104DB000342C01405C1100202DE9F0478146154656
:104DC0001E46DDE908780024002049490870494959
:104DD0000860012048490860002048490860012116
:104DE00040F21A30FFF72AF908FB07F14846FFF7AF
:104DF000B3FC0120FFF7C0F841480068022808D141
:104E000007020202002328463146FBF7EBF905466C
:104E10000E463C48076010203A49486040208860B0
:104E20000020C8604FF4806008610846FFF734F93D
:104E30001020FBF74FFF044614B12046BDE8F08771
:104E40003148008800042F4908603720486040201E
:104E500088600020C8604FF4806008610846FFF752
:104E60001BF93720FBF736FF04460CB12046E5E777
:104E70002448C0F8008017202249486040208860FC
:104E80000020C8604FF4806008610846FFF704F90D
:104E90001720FBF71FFF04460CB12046CEE7194848
:104EA0000560192017494860402088600020C860CC
:104EB0004FF4806008610846FFF7EEF81920FBF711
:104EC00009FF04460CB12046B8E74FF0FF300F4908
:104ED000086008FB07F04860902088600020C860E8
:104EE0000861012048610846FFF74CF82046A5E715
:104EF00060110020641100205C1100202C2C014066
:104F00005411002058520120581100206C520120E9
:104F100021B1028842F04002028004E002884FF68C
:104F2000BF731A400280704770B505460C4616469E
:104F300010200F494883032000F084F9C4F3074090
:104F400000F080F9C4F3072000F07CF9E0B200F033
:104F500079F904E0FF2000F075F928706D1C301E0F
:104F6000A6F101018EB2F5D110200149088370BD70
:104F7000001002402DE9F05F07460E4614464FF040
:104F80000008C146C2460025AB4606F0FF0ACAF13A
:104F90000000C5B22046E11704EB1161C1F30728F8
:104FA000E11704EB11610912A4EB012101F0FF09E3
:104FB000BAF1000F20D1B8F1000F05D122463146D9
:104FC000384600F0D3F864E009E04FF480723146CF
:104FD000384600F0CBF806F5807607F58077B8F113
:104FE0000000A8F1010101F0FF08EED14A46314668
:104FF000384600F0BBF84CE0B8F1000F18D1A945D5
:1050000010DDA9EB050000F0FF0B2A4631463846BB
:1050100000F0ACF82E442F445A463146384600F092
:10502000A5F836E022463146384600F09FF830E0D9
:10503000601B84B22046E11704EB1161C1F307281D
:10504000E11704EB11610912A4EB012101F0FF0942
:105050002A463146384600F089F82E442F4409E0AC
:105060004FF480723146384600F080F806F58076BD
:1050700007F58077B8F10000A8F1010101F0FF0801
:10508000EED1B9F1000F04D04A463146384600F05F
:105090006DF8BDE8F09F000000B587B00121102039
:1050A000FEF7F6FD01214803FEF732FE052202213C
:1050B0002C48FDF725F9052211462A48FDF720F96D
:1050C000052206212748FDF71BF904200090022045
:1050D0008DF805008DF8040000208DF806008DF88D
:1050E000070069461F48FDF7C3F820200090694675
:1050F0001C48FDF7BDF84020009069461948FDF7AF
:10510000B7F81020009001208DF80400694615487A
:10511000FDF7AEF81020134908830020ADF8080011
:105120004FF48270ADF80A000020ADF80C000220A8
:10513000ADF80E000120ADF810004002ADF81200ED
:105140000020ADF81400ADF816000720ADF81800E7
:1051500002A9054800F0F6F801210348FFF7D8FE40
:1051600007B000BD001002400034014070B5054694
:105170000C46164600F0CAF8102014494883022055
:1051800000F060F8C4F3074000F05CF8C4F30720B7
:1051900000F058F8E0B200F055F8B6F5807F04DD75
:1051A0004FF480760AA000F0C9FD03E0287800F0F3
:1051B00049F86D1C301EA6F101018EB2F6D1102007
:1051C0000249088300F07AF870BD00000010024028
:1051D0003C3C2D464C4153482D4552524F522D3E9A
:1051E0003E205350495F464C4153485F50616765CC
:1051F000577269746520746F6F206C6172676521E6
:105200000A00000010B5044600F080F800F056F8DF
:1052100010200B494883202000F014F8C4F3074005
:1052200000F010F8C4F3072000F00CF8E0B200F032
:1052300009F810200249088300F040F810BD000072
:105240000010024010B504464FF480501949086020
:105250000AE018490868411E164A116020B900206A
:1052600000F08EF8C0B210BD0221134800F05CF8C7
:105270000028EED02146104800F062F84FF480502C
:105280000C4908600AE00B490868411E094A116090
:1052900020B9012000F074F8C0B2E4E7012106480B
:1052A00000F042F80028EED0034800F046F8C0B203
:1052B000D9E70000080100200034014010B50024A7
:1052C0001020104948830520FFF7BCFF4FF48050A1
:1052D0000D49086000BFFF20FFF7B4FF04460A49EC
:1052E0000868411E084A116018B9042000F048F807
:1052F00010BD04F001000028EDD110200149088301
:1053000000BFF5E7001002400801002010B5102092
:10531000044948830620FFF795FF102001490883C0
:1053200010BD0000001002400246002013890B400F
:105330000BB1012000E000207047014688897047CA
:105340008181704710B50022028802F441520B8817
:105350004C8823438C882343CC8823430C892343E4
:105360004C8923438C892343CC8923431A430280ED
:10537000838B4FF2FF74234083830B8A038210BD1B
:1053800010B50446214602A000F0D8FC002010BD54
:105390003C3C2D464C4153482D4552524F522D3ED8
:1053A0003E2053504920B5C8B4FDB3ACCAB1216505
:1053B00072726F72436F6465203D2025640A00009D
:1053C000704700000149086070470000DC00274278
:1053D0000CB50020019000904148006840F48030F6
:1053E0003F49086000BF3E48006800F4003000906C
:1053F0000198401C0190009818B90198B0F5A04F91
:10540000F1D13748006800F4003010B1012000905D
:1054100001E0002000900098012860D13048403021
:10542000006840F080502E49403108602D480068E7
:1054300040F440402B49086029480830006828495A
:10544000083108600846006840F4004008600846DB
:10545000006840F4A05008602348091F0860081F36
:10546000006840F08070091F086000BF1C48006899
:1054700000F000700028F9D01A48006840F480302D
:105480001849086000BF1748406800F480300028C1
:10549000F9D01448006840F400301249086000BF99
:1054A0001048406800F400300028F9D040F2057040
:1054B0000E4908600A480830006820F003000849D7
:1054C000083108600846006840F00200086000BF2C
:1054D00003480830006800F00C000828F8D10CBD23
:1054E0000038024000700040195A4007003C02405A
:1054F0002DE9FC5F8346174698460C9C03204FF627
:10550000FF7106230522CDE900100121022011F0D0
:105510002DF8F648C079052190FBF1F201FB12004D
:105520001FFA80FA03204FF4784101235246CDE957
:1055300000101946022011F019F8ED480068ED49F5
:105540000968401A47F23051884237D303204CF2A1
:10555000186101231A46CDE900100146022011F01E
:1055600005F803204CF2186101230246CDE9001032
:105570000421022010F0FAFF03204CF218610123ED
:105580000522CDE900101146022010F0EFFF0320A4
:105590004CF2186101230246CDE9001006210420D7
:1055A00010F0E4FF03204CF2186101230222CDE940
:1055B00000100721104610F0D9FF36E003204FF409
:1055C000FC6101231A46CDE900100146022010F0CB
:1055D000CDFF03204FF4FC6101230246CDE900100A
:1055E0000421022010F0C2FF03204FF4FC610123CC
:1055F0000522CDE900101146022010F0B7FF03206C
:105600004FF4FC6101230246CDE90010062104207D
:1056100010F0ACFF03204FF4FC6101230222CDE91E
:1056200000100721104610F0A1FF1FB30320012333
:1056300005220C21CDE90070002010F097FF032017
:10564000052301220A21CDE90070184610F08EFFD3
:105650000320034601220B21CDE90070062010F043
:1056600085FF032001231A460C21CDE90070072095
:1056700010F07CFFB8F1000F22D003200123052297
:105680001321CDE9008010F071FF032005230122D2
:105690001121CDE90080022010F068FF03200346AD
:1056A00001221221CDE90080104610F05FFF032097
:1056B00001231A461321CDE90080002010F056FF87
:1056C0008D48018D8D4880892930814202DD4FF45B
:1056D000FC6401E04CF218640120034602461A21E2
:1056E000CDE90040002010F041FF012002230246D6
:1056F0001A21CDE9004010F039FF012003230246B2
:105700001A21CDE90040022010F030FF01200423CF
:1057100002461A21CDE90040032010F027FF0120A6
:10572000042302461721CDE90040184610F01EFF61
:105730000120032302461821CDE90040052010F086
:1057400015FF0120022302461921CDE90040062061
:1057500010F00CFF0120034602461A21CDE900405B
:10576000072010F003FF6448C18D6448C0892930C8
:10577000814202DD4FF4FC6401E04CF21864022027
:1057800001231A461A21CDE90040002010F0EEFE58
:105790000220034601221A21CDE90040104610F0F4
:1057A000E5FE0220032301221A21CDE9004010F07A
:1057B000DDFE0220042301221A21CDE9004003204E
:1057C00010F0D4FE0220042301221721CDE900406D
:1057D000184610F0CBFE0220032301221821CDE948
:1057E0000040052010F0C2FE0220034601221921CC
:1057F000CDE90040062010F0B9FE022001231A4630
:105800001A21CDE90040072010F0B0FE4FF000094A
:105810000025312229466D1C394842543A22294636
:105820006D1C425400260AE03648805D3030C2B21A
:105830002846691CCDB232490A54701CC6B2032EE8
:10584000F2DB00222846691CCDB22D490A542E48AD
:10585000C07C01280CD14FF6FF71CDE900104FEA52
:10586000C90000F123010023254A184610F09AFED2
:105870000025322229466D1C214842543A222946ED
:105880006D1C425400260BE0F01C1E49085C3030B1
:10589000C2B22846691CCDB219490A54701CC6B25E
:1058A000032EF1DB00222846691CCDB214490A54AC
:1058B0001548C07C01280DD102204FF6FF71CDE9BB
:1058C00000104FEAC90000F1230100230C4A1846DA
:1058D00010F068FE09F1800000F0FF094CF218603A
:1058E000024908854885BDE8FC9F00000C22002085
:1058F00040000020640000207C4A0020FC4C002076
:10590000FC4400206C000020602100202DE9F043C1
:1059100004460F462078012802D0204610F0A6FF4A
:105920000026002504E0785D08B92E4603E06D1CD2
:10593000E068A842F7D800BF0EB9BDE8F083D4F8FC
:105940000480D4F80890002515E0A8EB0600284450
:10595000E168884208D3785DA8EB06012944E26833
:10596000114409F8010005E0785DA8EB060129441F
:1059700009F801006D1CB542E7D36068801B6060C8
:10598000E1686068884203D3E16860680844606049
:1059900000BFD2E710B50B480068401C09490860F9
:1059A000084600680A21B0FBF1F201FB120038B989
:1059B00000F026F90448FBF733F80448FBF730F809
:1059C00010BD0000400000200020014000220140E6
:1059D00030B5164800684FF47A72B0FBF2F1481EF9
:1059E000B0F1807F01D301201BE0481E4FF0E02280
:1059F000506150170F22002807DA13071D0E0C4BB9
:105A000000F00F04241F1D5503E013071C0E094B63
:105A10001C5400BF00204FF0E0229061072010616D
:105A2000002008B100BFFEE730BD000000000020EC
:105A300018ED00E000E400E010B51548006840F4FF
:105A40007000134908601348006840F001001149D4
:105A5000086000200F49083108600E4800680E49B0
:105A600008400C4908600D48091D0860081F0068BF
:105A700020F48020091F0860002006490C310860CE
:105A8000FFF7A6FC4FF0006001498039086010BDA7
:105A900088ED00E000380240FFFFF6FE10300024E1
:105AA0007FB504460D4601210220FEF721F9ADF82D
:105AB00004500020ADF806000294ADF80C0001A9D6
:105AC0000D4800F05BF8012211460B4800F04CF83D
:105AD0000121094800F02BF81D208DF8000001205D
