:020000040800F2
:10000000F8B30120C1010008053B00085D2300088A
:10001000013B00086D0C0008655800080000000056
:10002000000000000000000000000000095300086C
:100030009111000800000000D53B0008C1540008E1
:10004000DB010008DB010008DB010008DB01000820
:10005000DB010008DB010008DB010008DB01000810
:10006000DB010008DB010008DB010008DB01000800
:10007000DB010008DB010008DB010008DB010008F0
:10008000DB010008DB01000805070008DB010008B0
:10009000DB010008DB010008DB010008DB010008D0
:1000A000DB010008DB010008DB010008DB010008C0
:1000B000DB01000829560008DB010008DB0100080D
:1000C000DB010008DB010008DB010008DB010008A0
:1000D000DB010008DB010008DB010008DB01000890
:1000E000DB010008DB010008DB010008DB01000880
:1000F000DB010008DB010008DB010008DB01000870
:10010000DB0100087D3F0008DB010008DB0100087F
:10011000DB010008DB010008DB010008DB0100084F
:10012000DB010008DB010008DB0100083D0F0008CF
:10013000DB010008DB010008DB010008DB0100082F
:10014000DB010008DB010008DB010008DB0100081F
:10015000DB010008DB010008DB010008DB0100080F
:10016000DB010008DB010008DB010008DB010008FF
:10017000DB010008DB010008DB010008DB010008EF
:10018000DB010008DB010008DB010008DB010008DF
:10019000DB010008DB010008DB010008DB010008CF
:1001A000DB010008DB010008DB010008DFF80CD0F0
:1001B00000F000F900480047BDDC0008F8B301205A
:1001C0000648804706480047FEE7FEE7FEE7FEE7F1
:1001D000FEE7FEE7FEE7FEE7FEE7FEE765550008FF
:1001E000AD0100082DE9F05F0546002092469B46D0
:1001F00088460646814640241BE02846414647463D
:10020000224600F08EF853465A46C01A914110D348
:1002100011461846224600F075F82D1A67EB0108C2
:100220004F4622460120002100F06CF817EB000930
:100230004E41201EA4F10104DFDC484631462A4627
:100240004346BDE8F09F40EA01039B0703D009E065
:1002500008C9121F08C0042AFAD203E011F8013BB2
:1002600000F8013B521EF9D27047D2B201E000F80B
:10027000012B491EFBD270470022F6E710B513464A
:100280000A4604461946FFF7F0FF204610BD421EFD
:1002900012F8013F002BFBD111F8013B02F8013BA2
:1002A000002BF9D17047421C10F8011B0029FBD12B
:1002B000801A704710B5002200E0521C835C8C5CF1
:1002C000A34201D1002BF8D1D8B2E1B2401A10BD3F
:1002D00030B504460020034600E05B1C934203D285
:1002E000E05CCD5C401BF8D030BD70B5064605F033
:1002F000DFFA046805460A220021304600F021F8A2
:100300002C6070BD202A04DB203A00FA02F10020A4
:1003100070479140C2F1200320FA03F31943904043
:100320007047202A04DB203A21FA02F000217047AE
:1003300021FA02F3D040C2F120029140084319464D
:1003400070472DE9F04791460F4680460446002647
:1003500014F8015B2DB100F03FF80068405DC00764
:10036000F6D12B2D02D02D2D18D0641E4A463946C9
:10037000204600F035F827B13968A14201D1C7F80D
:10038000008071054FF002040BD54042002803DDC8
:1003900005F08EFA0460A007BDE8F08746F4806699
:1003A000E4E70028F8DA05F083FA04606FF0004013
:1003B000F2E70000064C074D06E0E06840F001035C
:1003C00094E8070098471034AC42F6D3FFF7F2FEEA
:1003D00010C4040830C404080048704704C304086B
:1003E0002DE9F05F82460078002715468B460AF11A
:1003F0000104B946302801D09DB113E014F8010B77
:100400000127782803D0582801D045B10AE00DB162
:10041000102D07D10027102514F8010B02E0082544
:1004200000E00A250026B0460EE005FB080005FBAB
:1004300006F1012701EB10461FFA80F8B6F5803F60
:1004400000D3B94614F8010B294600F018F800282B
:10045000EBDABBF1000F05D00FB1641E00E054468B
:10046000CBF80040B9F1000F06D005F021FA0221C7
:100470000160C81EBDE8F09F48EA0640FAE73A2846
:1004800000D2303820F02002412A01D3A2F13700F7
:10049000884201D34FF0FF30704770B58C1810F8C8
:1004A000015B15F0070301D110F8013B2A1106D1B9
:1004B00010F8012B03E010F8016B01F8016B5B1ED3
:1004C000F9D12B0705D40023521E0DD401F8013BAE
:1004D000FAE710F8013BCB1A921C03E013F8015B1A
:1004E00001F8015B521EF9D5A142D8D3002070BD9E
:1004F00000220A12D3430360704721B1826842F0A0
:100500000102826003E0826822F00102826070478B
:100510000021084A1168084A1140D0E900231A4313
:1005200083681A43C3681A431143044AC2F8041388
:100530007047000004230140E030FCFF0020014030
:100540001CB50121202003F047FB4FF48060009090
:1005500003208DF8040000208DF8070069465B48F1
:1005600001F06EFE0121202003F036FB4FF4807075
:10057000009003208DF8040000208DF807006946E4
:10058000524801F05DFE0121202003F025FB4020B0
:10059000009003208DF8040000208DF807006946C4
:1005A0004A4801F04DFE0121084603F015FB2020CA
:1005B000009003208DF8040000208DF807006946A4
:1005C000434801F03DFE0121084603F005FB0820E9
:1005D000009003208DF8040000208DF80700694684
:1005E0003B4801F02DFE0121202003F0F5FA1020F8
:1005F000009003208DF8040000208DF80700694664
:10060000324801F01DFE0121202003F0E5FA4FF4ED
:100610000070009003208DF8040000208DF8070082
:1006200069462A4801F00CFE0121202003F0D4FA8B
:100630008020009003208DF8040000208DF8070032
:100640006946224801F0FCFD0121202003F0C4FA94
:100650002020009003208DF8040000208DF8070072
:1006600069461A4801F0ECFD0121202003F0B4FA9C
:100670000820009003208DF8040000208DF807006A
:100680006946124801F0DCFD0121084603F0A4FA96
:100690001020009003208DF8040000208DF8070042
:1006A00069460B4801F0CCFD0121084603F094FA9D
:1006B0004020009003208DF8040000208DF80700F2
:1006C0006946034801F0BCFD1CBD00000014024057
:1006D000000002400146C86C80B2704770B5024607
:1006E0000020002300240B12556801268E4005EAE5
:1006F000060415681D4015B10CB1012000E0002072
:1007000070BD000010B540F205213748FFF7E6FF45
:1007100088B340F205213448FFF7EAFE3248FFF77C
:10072000D9FF3249097801EB4101314A127811446D
:10073000304A126822F811002D480078401C2C49DC
:10074000087008460078032815DB00200870274849
:100750000078401C2549087008460078042801DB11
:10076000002008702448214A1278815C0523012268
:100770001D4800F0F9F840F205212048FFF7AEFFD0
:1007800088B340F205211D48FFF7B2FE1B48FFF772
:10079000A1FF1B49097801EB41011A4A1278114463
:1007A000194A126822F8110016480078401C1549B1
:1007B000087008460078032815DB002008701048F0
:1007C0000078401C0E49087008460078082801DBB4
:1007D000002008700D480A4A1278815C0523012226
:1007E000064800F0C1F810BD002001405A01002069
:1007F0006E01002024010020480100200022014059
:100800006D0100206F0100203C0100205B010020F1
:1008100010B50B460021D9B2012404FA01F11AB136
:1008200044680C43446002E044688C43446010BD5B
:1008300030B50246002000235068104C20400D794E
:100840000C6844EA05242043506090680C4C20401A
:10085000D1E903542C438D682C434D7944EA450477
:1008600020439060D06A20F470000C7D641EE4B2D6
:10087000234340EA0350D06230BD0000FFFEFFFC7E
:10088000FDF7FFC000B58BB00121080203F0E4F9C9
:100890000020019002900390049001A8FFF738FE19
:1008A000002005908DF818008DF819000790099028
:1008B00001208DF8280005A92548FFF7B9FF254834
:1008C000254A1278815C00230122214800F04CF86F
:1008D00001211F48FFF711FE012240F205211C48AB
:1008E000FFF796FF1A4800F09BF80121880203F0F9
:1008F000B3F90020019002900390049001A8FFF743
:1009000007FE002005908DF818008DF8190007905B
:10091000099001208DF8280005A91048FFF788FFED
:100920000F48104A1278815C002301220B4800F026
:100930001BF801210948FFF7E0FD012240F20521E3
:100940000648FFF765FF054800F06AF80BB000BDE8
:1009500000200140480100205A01002000220140EF
:100960005B0100206D010020F0B504460D4600201B
:100970000021092D11DDE068A5F10A0606EB460706
:10098000072606FA07F18843A5F10A0606EB460694
:1009900003FA06F10843E0600CE0206905EB450727
:1009A000072606FA07F1884305EB450603FA06F128
:1009B00008432061072A0FDA606B561E06EB860794
:1009C0001F2606FA07F18843561E06EB860605FA2F
:1009D00006F10843606322E00D2A0FDA206BD61F70
:1009E00006EB86071F2606FA07F18843D61F06EB9B
:1009F000860605FA06F10843206310E0E06AA2F1DA
:100A00000D0606EB86071F2606FA07F18843A2F1BA
:100A10000D0606EB860605FA06F10843E062F0BD16
:100A2000816841F0804181607047000010B5054841
:100A300005490860183005490860FFF781FDFFF798
:100A400021FF10BD90480020240100203C0100201F
:100A50001CB501208DF8040000208DF8060001204F
:100A60008DF8070002208DF80500012103F0B4F88D
:100A7000802000906946784801F0E2FB01210220C5
:100A800003F0AAF8202000906946734801F0D8FBD3
:100A90000121402003F0A0F84FF4805000906946F7
:100AA0006E4801F0CDFB0121082003F095F80420E9
:100AB000009069466A4801F0C3FB0121082003F059
:100AC0008BF8402000906946654801F0B9FB012190
:100AD000402003F081F84FF48060009069465F4841
:100AE00001F0AEFB0121022003F076F840200090D7
:100AF0006946594801F0A4FB0121402003F06CF83D
:100B00004FF4004000906946544801F099FB0121E0
:100B1000402003F061F84FF40060009069464F48B0
:100B200001F08EFB0121042003F056F84FF48050B1
:100B3000009069464B4801F083FB0121082003F037
:100B40004BF8082000906946454801F079FB0121E7
:100B5000402003F041F84FF40070009069463F4890
:100B600001F06EFB0121202003F036F84FF4006005
:100B7000009069463C4801F063FB0121022003F02C
:100B80002BF8022000906946334801F059FB0121FF
:100B9000022003F021F80120009069462E4801F060
:100BA0004FFB02208DF8050000208DF804008DF821
:100BB000070000228021284801F024FB0022202188
:100BC000254801F01FFB00224FF48051234801F01B
:100BD00019FB00220421224801F014FB00224021CD
:100BE0001F4801F00FFB00224FF480611B4801F009
:100BF00009FB00224021184801F013FB00224FF4AA
:100C00000041164801F00DFB00224FF4006113482B
:100C100001F007FB00224FF48051124801F001FB64
:100C2000002208210E4801F0FCFA00224FF4007166
:100C30000A4801F0F6FA00224FF400610A4801F078
:100C4000D2FA00220221044801F0BEFA002201215A
:100C5000014801F0B9FA1CBD00040240001802402E
:100C6000000C0240000802400014024000BFFEE7F2
:100C700070B500254FF4803400E0641E24B180205C
:100C800003F050F90028F8D014B90325284670BDA8
:100C900040F2FF5003F002F92846F8E72DE9F04151
:100CA000064600274848056801E04748056805F002
:100CB00045000028F9D005F0040030B103270420D6
:100CC00003F0ECF83846BDE8F08105F0010028B1EA
:100CD0000127012003F0E2F83846F4E703F01CF99D
:100CE000B04202D010273846EDE740F2FF5003F043
:100CF000D5F8002003F036F904463448204008B9FE
:100D00003846E0E704F0004008B11C20DBE704F0BF
:100D1000804008B10920D6E704F0005008B10A204D
:100D2000D1E704F0805008B10B20CCE704F000605C
:100D300008B10C20C7E704F0806008B10D20C2E7BD
:100D400004F0807008B10E20BDE704F4000008B183
:100D50000F20B8E704F4800008B11020B3E704F4D2
:100D6000001008B11120AEE704F4801008B1122081
:100D7000A9E704F4002008B11320A4E704F48020BC
:100D800008B114209FE704F4003008B115209AE759
:100D900004F4803008B1162095E704F4004008B14F
:100DA000172090E704F4804008B118208BE704F482
:100DB000005008B1192086E704F0080008B11A2095
:100DC00081E738467FE70000342C014008E0FFFD52
:100DD00070B500251048046801E00F48046804F06D
:100DE00045000028F9D004F0040028B103250420B0
:100DF00003F054F8284670BD04F0010028B1012525
:100E0000012003F04BF82846F5E740F2FF5003F0CD
:100E100045F82846EFE70000342C014070B5002566
:100E20000B48046801E00A48046804F04500002803
:100E3000F9D004F0040028B10325042003F02EF8B3
:100E4000284670BD40F2FF5003F028F82846F8E726
:100E5000342C01402DE9F04106460F464FF00008C2
:100E60002248056801E02148056805F04500002892
:100E7000F9D005F0040038B14FF00308042003F066
:100E80000DF84046BDE8F08105F0010030B14FF0AB
:100E90000108012003F002F84046F3E703F03CF8B4
:100EA000B04203D04FF010084046EBE740F2FF504D
:100EB00002F0F4FF002003F055F8044604F460400B
:100EC00018B9200C38804046DCE704F4005008B123
:100ED0001320D7E704F4804008B11020D2E704F4CF
:100EE000004008B10F20CDE74046CBE7342C01404D
:100EF00070B500264FF480350F48046802E06D1E7F
:100F00000D48046804F0450008B9002DF7D115B16B
:100F100004F0040028B10326042002F0BFFF30468D
:100F200070BD04F0400028B10026402002F0B6FF5A
:100F30003046F5E73046F3E7342C014010B503F0B6
:100F400019FD10BD0246094B9A4201D2084801E042
:100F50000648103801F000531BB1064B0B40C3602C
:100F600002E0044B0B4083607047000010640240B5
:100F7000006002407D0F7D0F21B1026842F0010246
:100F8000026003E0026822F0010202607047000084
:100F9000016821F001010160002101604160816070
:100FA000C1600161212141614A49884204D13D214A
:100FB000484A103A91608CE046491831884205D180
:100FC0004FF47461434A103A916082E041493031F4
:100FD000884205D14FF474113E4A103A916078E08E
:100FE0003C494831884205D14FF07461394A103A82
:100FF00091606EE037496031884204D13649354A04
:10100000103AD16065E033497831884204D13349E0
:10101000304A103AD1605CE02E499031884204D1C8
:101020002F492C4A103AD16053E02A49A83188420E
:1010300005D14FF03D51274A103AD16049E0294986
:10104000884204D13D21274A083A116041E02549F0
:101050001831884205D14FF47461224A083A116070
:1010600037E020493031884205D14FF474111D4AD0
:10107000083A11602DE01B494831884205D14FF0F4
:101080007461184A083A116023E0164960318842B9
:1010900004D11149134A121F11601AE01149783125
:1010A000884204D10D490F4A121F116011E00D4909
:1010B0009031884204D10A490A4A121F116008E09F
:1010C0000849A831884204D14FF03D51054A121F0A
:1010D00011607047106002403D000020400F00206A
:1010E00000003D201064024021B1026842F020025D
:1010F000026003E0026822F020020260704710B52F
:1011000001F080034BB122B1436943F08003436196
:1011100003E0436923F08003436180290BD02AB1A7
:10112000036801F01E042343036004E0036801F038
:101130001E04A343036010BD10B500220268134BC8
:101140001A40CC680B6823434C6923438C692343C2
:10115000CC6923430C6A23434C6A23438C6A2343A0
:101160004C6B23438C6B23431A430260426922F089
:101170000702D1E90B3423431A4342610B694360F0
:101180004B6883608B68C36010BD00003F801CF01B
:101190007047000000B587B00121084602F01CFD31
:1011A0000121102002F058FD07220A211F4801F0FA
:1011B0008FF8072209211D4801F08AF800208DF8D8
:1011C0001A0001208DF81B0002208DF81800000283
:1011D000059002208DF8190005A9144801F030F897
:1011E00002208DF818004002059005A90F4801F073
:1011F00027F84FF4E13001900020ADF80800ADF879
:101200000A00ADF80C00ADF810000C20ADF80E008F
:1012100001A9074804F0B8FA0121054804F09BFA37
:101220004021034804F08EFA07B000BD00000240E0
:101230000010014001B504490098086000BF024851
:1012400000680028FBD108BDB411002008B50021BA
:10125000009102E00099491C009100EBC00101EBF4
:101260000011009AB2EB411FF4D308BD10B500F095
:101270004BF900F0C5FB0121002000F0B3FC00F0A9
:10128000040028B10348006840F0100001490860DC
:1012900010BD0000C811002034480068006800F04C
:1012A0000040E8B931480068006800F48070B8B1C7
:1012B0002F4800688068401C2D49096888602C48C8
:1012C00000688068012804D1284800682849096816
:1012D0000860264800682649096848600120704770
:1012E00022480068006800F00040F0B91F4800681C
:1012F000006800F40070C0B11C480068006800F489
:10130000807090B919480068194909680860002080
:101310001749096848600120154909688860134821
:101320000068C068114908601DE010480068006846
:1013300000F00040B8B90D480068006800F4007083
:1013400088B90A480068006800F4807058B90848F5
:1013500000688068401C0649096888600348006886
:10136000C068024908600020B9E70000BC110020F5
:10137000C011002070B505460121002000F032FCAC
:1013800000F0040444B10B48007828B90A480EF074
:10139000BBFF0120074908705CB90648007840B1DE
:1013A00001200649087004480EF099FF0020014909
:1013B000087070BDCD110020A4120020CC110020B7
:1013C00030B10749896941F00201054A916105E0A0
:1013D0000349896921F00201014A916170470000C7
:1013E0000090024070B50C4613460021124D286053
:1013F00000BF18E000EB41124FF00045156044F2C9
:10140000F4555560C1EBC11505EB450504EB8505A9
:1014100095605D1E8D4204D900EB41152035D560E5
:1014200000E0D060491C9942E4D3044DE860044DCB
:10143000044E356070BD0000BC11002000900240D9
:10144000044F0120C011002030B10749896941F4DF
:101450000051054A916105E00349896921F4005171
:10146000014A9161704700000090024030B50C467F
:10147000134600210F4D286000BF15E000EB41121C
:101480004FF480151560C1EBC11505EB450504EB64
:10149000850595605D1E8D4204D900EB4115203510
:1014A000D56000E0D060491C9942E7D3024D286125
:1014B00030BD0000B81100200090024002680A43CD
:1014C0000260704710B50121480602F095FB00212B
:1014D0004FF0007002F090FB10BD000008B5002036
:1014E00000900848806940F48010064988610846E9
:1014F000806900900120FFF79DFE024900988861F5
:1015000008BD0000009002401CB5012140F24710C8
:1015100002F062FB0121880302F09EFB012003F030
:10152000F5FE0220009003208DF8050001208DF8C3
:10153000040000208DF806008DF807006946414838
:1015400000F07EFE02213F4800F0EEFE0520FFF78E
:1015500071FE02213B4800F0E9FE0520FFF76AFE1C
:101560000420009003208DF8050002208DF804006F
:1015700000208DF806008DF807006946324800F01B
:101580005FFE0B220221304800F0A2FE02200090F4
:1015900069462E4800F054FE0B2201212B4800F032
:1015A00097FE022000906946274800F049FE0B2272
:1015B0000121254800F08CFE8020009069462248D9
:1015C00000F03EFE0B2207211F4800F081FE102094
:1015D000009069461D4800F033FE0B2204211B4891
:1015E00000F076FE202000906946184800F028FEA2
:1015F0000B220521154800F06BFE4FF400600090AF
:101600006946134800F01CFE0B221146104800F0FA
:101610005FFE4FF40050009069460E4800F010FE47
:101620000B220D210B4800F053FE4FF48040009038
:101630006946084800F004FE0B220E21054800F020
:1016400047FE1CBD0020024000000240000802408E
:10165000000402400018024000200449096801F01B
:10166000010109B1012000E0002070470090024014
:101670001EB5002100220092019202920C4A1268CB
:101680001268C2F30D42111F00910A4A12681268D3
:101690000292084A1268126892680192044A12681B
:1016A000D268034B1A609DE81C0080E81C001EBD38
:1016B000BC110020C01100202DE9F04188B0044683
:1016C0000F464FF00008002500200790B54E02900D
:1016D00001200190B448056925F01C0503A802F01B
:1016E000DBFA049EB148864205D3B148864202D255
:1016F00045F008051AE0AE48864205D3A94886425F
:1017000002D245F00C0511E0A648864203D3A94851
:10171000864200D20AE0A748864205D3A648864200
:1017200002D245F0040501E045F010059E48056130
:101730004FF400420021384600F00EFB10B90020A3
:1017400001906AE0FF20FFF775FD2068002850D067
:1017500000BF0298401C02900121384600F042FA76
:1017600000F0040018B9954902988842F1D39349D2
:101770000298884202D1002001904EE000200290A1
:101780004FF480520021384600F0E6FA08B90020F4
:10179000019000BF0298401C02900121384600F0E1
:1017A00021FA00F0200018B9844902988842F1D348
:1017B00082490298884202D1002001902DE0002049
:1017C00002901F21384600F00DFA804608F0100004
:1017D00018B14FF40060206201E00020206208F0A0
:1017E000040010B10020606116E04FF48040606199
:1017F00012E0206AC0F3CF006169C1F34F0140EAF3
:1018000001020021384600F0A7FA08B90020019033
:1018100040F6FF70FFF70EFD00BF019820B94FF4AE
:1018200000602062C00060615F4805686448054050
:10183000D4E901010843E16808432169084361696B
:101840000843A1690843E1690843216A0843616AC2
:101850000843A16A0843E16A0843216B0843616BAE
:10186000084305435048056005680120FFF7E2FC86
:101870004D480560D4E90E010843216C0843616CB2
:101880000843A16C0843E16C0843216D0843616D76
:10189000084345494860084645680120FFF7CAFCEF
:1018A000414845604049A06D8860E06DC8600846C9
:1018B00085694FF641700540B4F86010606E40EAEB
:1018C0000140A16E0843E16E0843216F0843616F38
:1018D000084305433448856185690120FFF7AAFC68
:1018E00031488561D4E91E0108432F49C861084683
:1018F000C5690120FFF79EFC2B48C5613148856909
:1019000031480540D4E920010843D4F88810084341
:10191000D4F88C100843D4F890100843D4F89410ED
:101920000843D4F898100843D4F89C100843D4F81E
:10193000A010084305432348856185690120FFF70E
:1019400079FC20488561D4E929010843D4F8AC101A
:101950000843D4F8B0100843D4F8B41040EA81002A
:10196000D4F8B810084340F400001649086008464F
:1019700005680120FFF75EFC12480560006840F032
:10198000800010490860084605680120FFF752FCF6
:101990000C4805600198012802D108B0BDE8F0812B
:1019A0000020FAE70087930300800240002D3101F8
:1019B000C00E160200E1F50580D1F008FFFF04001B
:1019C0000F8120FF00900240233FDEF810B50B7915
:1019D0004C7943EA0422094B03441A64CB781B0672
:1019E0008C7843EA04434C7843EA04230C7843EAB6
:1019F0000402024B03445A6410BD00000080024000
:101A000010B501214FF0606002F0E6F8FFF75AFDD3
:101A100000F01EF900BFFFF71FFE0128FBD01E4893
:101A200000F040F901201C4908600020C8614FF413
:101A3000007088620020C86288634864C8640865D2
:101A400048654FF4806048620020C1F880004FF084
:101A50000070C1F884000011C1F88C000020C1F8AA
:101A60009400C1F898000420C1F8A000C005C1F896
:101A7000A4004012C1F8A8008001C1F8AC004012D7
:101A8000C1F8B0004000C1F8B80000210248FFF7DB
:101A900013FE0249086010BD104F0120C81100203C
:101AA00038B504460020009034B10B48006840F07F
:101AB00004000949086005E00748006820F00400B8
:101AC000054908600448006800900120FFF7B2FB58
:101AD00001490098086038BD0080024038B50446CE
:101AE0000020009034B10B48006840F0080009491C
:101AF000086005E00748006820F008000549086014
:101B00000448006800900120FFF794FB0149009809
:101B1000086038BD0080024070B5024600230025F1
:101B200000242E480068006800F0004008B1002042
:101B300070BD2A48016840F2F450824208DD92FBF1
:101B4000F0F392FBF0F600FB162010B15B1C00E0F6
:101B50000123012B0CD1086840F040500860C2F30B
:101B60000C004860086840F000400860C96826E042
:101B7000002422E0086820F0405008601CB9086882
:101B800040F08050086040F2F4504860581EA04277
:101B90000DD1086840F000500860581EC0EBC0101E
:101BA00000EB4000A2EB8005C5F30C00486008681C
:101BB00040F000400860C968641C9C42DAD30748C2
:101BC00001600748406900F0040020B10420044E81
:101BD0007061002070600120AAE70000B8110020A9
:101BE0000090024018B502460B46002100200090EC
:101BF0001548016901F01C014FF4784000EAC22049
:101C000001434FF4F86000EA8310014321F0020120
:101C100041F001010C48016100BF0098401C009098
:101C20000948016901F0010018B1084C0098A04270
:101C3000F3D3064C0098A04201D1002018BD024801
:101C4000406980B2FAE7000000800240FFFF040014
:101C50000348006840F00100014908607047000037
:101C60000090024010B50120FFF738FF0120FFF778
:101C700017FFFFF733FC0120FFF7E6FB0120FFF71A
:101C80009FFB10BD10B50020FFF7DEFB0020FFF723
:101C900097FB0020FFF704FFFFF720FC0020FFF771
:101CA0001DFF10BD01210160002141608160C16004
:101CB00001614FF48041416100218161C1614FF4B4
:101CC00000610162002141628162C162016341637E
:101CD0008163C1634021016420214164002181644A
:101CE000C164016541658165C16501668021416608
:101CF00000218166C166016741678167C1674FF056
:101D00008061C0F880104910C0F884100021C0F82C
:101D100088104FF40011C0F88C100021C0F890100A
:101D2000C0F89410C0F89810C0F89C10C0F8A0102B
:101D30004FF00071C0F8A4104912C0F8A810890132
:101D4000C0F8AC104912C0F8B0100021C0F8B410AF
:101D5000C0F8B8107047000038B503460C460021A3
:101D6000002000901448016901F01C014FF47840F4
:101D700000EAC32001434FF4F86000EA84100143F5
:101D800041F0020141F001010B484261016100BFD5
:101D90000098401C00900848016901F0010018B14A
:101DA000064D0098A842F3D3044D0098A84201D1F3
:101DB000002038BD0120FCE700800240FFFF040046
:101DC0007FB506460020039096F83100C0F300105E
:101DD00000285CD034480068002842D000200390DE
:101DE0004FF4805200210846FFF7B6FF00BF03986A
:101DF000401C039001210020FFF7F4FE00F02000BA
:101E000018B92A4903988842F1D3002003901F2172
:101E1000FFF7E8FE044604F0100020B14FF4006024
:101E20002149086202E000201F49086204F0040012
:101E300018B100201C49486103E04FF480401A4962
:101E400048611B480568184840691749096A0843F2
:101E50000543174805600120FFF7ECF914480568B1
:101E60000560FFF7FFFE0020029001900090012026
:101E7000104908706B4601AA02A90F480EF0BAF982
:101E80000D480EF06FFA00200C4908700AE0FFF7C9
:101E9000F9FE052007490870304605F081FC064828
:101EA0000EF0C2F97FBD0000104F0120FFFF0400BB
:101EB000008002403C000020A4120020CC11002031
:101EC00051B18200A2F1C042126842F001038200C7
:101ED000A2F1C042136009E08200A2F1C042126880
:101EE000034B1A408300A3F1C0431A6070470000FF
:101EF000FEFF0F0010B50022002103689B00A3F134
:101F0000C04319684A4B1940D0E901342343C468DF
:101F10002343046923434469234384692343C469F5
:101F20002343046A2343446A2343846A2343C46AE1
:101F30002343046B2343446B2343194303689B00EF
:101F4000A3F1C04319608368082B0BD103689B0081
:101F5000A3F1C0431B6843F0400403689B00A3F156
:101F6000C0431C60436BB3F5801F19D10368BBB13C
:101F70004FF020435B6823F470024FF020431B684E
:101F8000446B23434FF02044236023461B6843F4F3
:101F900080732360836B1B8A5B1E42EA035363607A
:101FA000836B1B68846B646843EA0413846BA468C6
:101FB00043EA0423846BA48943EA0443846B248AA0
:101FC00043EA0453846B247D43EA0463846BA4696D
:101FD00023430468641CA400A4F1C0442360836A02
:101FE000B3F5804F1BD1C36B1B68C46B646843EAB5
:101FF0000413C46BA46843EA0423C46B248A43EA31
:102000000453C46B247D43EA0463C46BA469234373
:102010000468A400A4F1C044C4F8043107E06FF0E0
:10202000704403689B00A3F1C043C3F8044110BD92
:102030008000E7FF2DE9FC4107460D4600260024FD
:1020400000200090019008205B4908601020486043
:10205000402088600020C8604FF480600861084616
:1020600001F0BEFF1020FEF719FE044614B1204611
:10207000BDE8FC815148008800044F4908603720C2
:102080004860402088600020C8604FF4806008618C
:10209000084601F0A5FF3720FEF700FE04460CB10C
:1020A0002046E5E74FF0FF304549086008204860CA
:1020B000302088600220C86000200861012048614B
:1020C000084601F003FF00203B49086033204860C8
:1020D000402088600020C8604FF480600861084696
:1020E00001F07EFF3320FEF7D9FD04460CB12046F7
:1020F000BEE709E04FF4001001F014FF20B101F039
:1021000069FF4DF82600761C2E48006840F22A61CF
:1021100008400028EED0082001F004FF28B1082074
:1021200001F0BCFE04242046A2E7022001F0FAFEE2
:1021300028B1022001F0B2FE0224204698E72020B8
:1021400001F0F0FE28B1202001F0A8FE0624204670
:102150008EE74FF4007001F0E5FE30B14FF40070EF
:1021600001F09CFE0724204682E740F2FF5001F078
:1021700095FE00980006009901F47F4140EA012095
:10218000009901F47F0140EA1120009940EA1160B2
:10219000686001980006019901F47F4140EA01203E
:1021A000019901F47F0140EA1120019940EA116090
:1021B000286020465CE7000070500120D411002008
:1021C00084500120342C014070B505460E4614465B
:1021D00024B93146284600F0A9F803E031462846E4
:1021E00000F0A2F870BD70B505460E46144624B93D
:1021F0003146284600F09AF803E03146284600F0C0
:1022000093F870BD70B505460E46144624B93146A4
:10221000284600F08BF803E03146284600F084F8A9
:1022200070BD70B505460E46144624B931462846A1
:1022300000F07AF803E03146284600F077F870BDE8
:10224000F0B50A4600210023002400BF3DE001252F
:1022500005FA01F3156805EA03049C4234D10568C8
:102260004F000326BE40B543056015794E00B540CA
:102270000668354305601579012D02D01579022DC8
:1022800016D185684F000326BE40B5438560557959
:102290004E00B540866835438560456801268E400E
:1022A000B5434560456896798E40B6B23543456082
:1022B000C5684F000326BE40B543C560D5794E00C2
:1022C000B540C6683543C560491C1029BFD3F0BD71
:1022D000F0B5002300244D07ED0E02FA05F3CE10F1
:1022E00000F1200555F826504E07F70E0F26BE4088
:1022F000B543CF1000F1200646F82750CE1000F16C
:10230000200555F8265045EA0304CE1000F12005BB
:1023100045F82640F0BD0246002013690B400BB182
:10232000012000E00020704741837047018370471F
:10233000002009E00649095C064A32F81110064AF5
:1023400022F81010411CC8B20C28F3DB70470000C3
:102350007001002090480020104B00201CB50E4C4E
:102360000EA003F081FA0DA1204603F08DFA21465C
:102370000E48006813F0D6FD08A10D4803F05CF884
:10238000032000214FF6FF73094ACDE90010902089
:1023900013F0C2F800BFFEE76813002068617264A2
:1023A0006661756C742121210A00000098010020EB
:1023B000287000201CB50121402001F00DFC0020F8
:1023C0008DF8040001208DF80700802000906946F8
:1023D0000148FFF735FF1CBD0018024070B50446E8
:1023E000F026EF2340F23F120021084600F0D0FC17
:1023F00000F0F0FC08E0002503E006480480681CBB
:1024000085B2B5F5A07FF8DB301EA6F101018EB2D2
:10241000F1D170BD000002602DE9F04304460D4685
:1024200016461F46DDF81C803B46324629462046AC
:1024300000F0AEFC00F0CEFC781B401C311B491CA8
:1024400000FB01F902E00848A0F80080B9F10000A3
:10245000A9F10109F7D1F0234FF4A0720021084639
:1024600000F096FCBDE8F0830000026010B5042186
:10247000D648FFF75BFF4FF48051D548FFF754FF74
:102480003220FEF7E3FEE2204FF0C0410880012039
:10249000FEF7DCFE2320CF4908800120FEF7D6FEA0
:1024A0000220CC4908800120FEF7D0FE0420C94953
:1024B00008804FF4FA70FEF7C9FEE0204FF0C041EB
:1024C00008800120FEF7C2FE0120C24908804FF4B7
:1024D000FA70FEF7BBFEE0204FF0C04108800120FB
:1024E000FEF7B4FE0320BB4908800520FEF7AEFED0
:1024F00001204FF0C04108800520FEF7A7FEE6202E
:10250000010708800120FEF7A1FE0220B1490880E2
:102510000120FEF79BFE9320AE4908800120FEF7C4
:1025200095FEE020AB490880B020410608800120DC
:10253000FEF78CFE2020A74908800120FEF786FECA
:102540000020A44908800120FEF780FE0120A14957
:102550000880FEF77BFE3F209E4908800120FEF7A1
:1025600075FE00209B4908800120FEF76FFEEF20DA
:10257000984908800120FEF769FE002095490880EF
:102580000120FEF763FEB4204FF0C0410880012017
:10259000FEF75CFE01208F490880FEF757FEA5205C
:1025A0008C4908800120FEF751FE002089490880EF
:1025B0000120FEF74BFE4620864908800120FEF7E9
:1025C00045FE012083490880FEF740FE0020814936
:1025D00008800120FEF73AFE00207E490880012095
:1025E000FEF734FE00207B4908800120FEF72EFE16
:1025F000B620010708800120FEF728FE012075495A
:102600000880FEF723FE0C20724908800120FEF7A7
:102610001DFE00206F4908800120FEF717FE0D20E7
:102620006C4908800120FEF711FE012069490880ED
:10263000FEF70CFE0020674908800120FEF706FE29
:102640000020644908800120FEF700FE2A204FF098
:10265000C04108800120FEF7F9FD00205D49088097
:102660000120FEF7F3FD00205A4908800120FEF703
:10267000EDFD012057490880FEF7E8FD3F20554950
:1026800008800120FEF7E2FD2B2041070880012091
:10269000FEF7DCFD00204F4908800120FEF7D6FD43
:1026A00000204C4908800120FEF7D0FD0020494958
:1026B00008800120FEF7CAFDEF204649088001206E
:1026C000FEF7C4FDBA204FF0C04108800120FEF79C
:1026D000BDFD05203F4908800120FEF7B7FDB82069
:1026E0004FF0C04108800120FEF7B0FD07203949B6
:1026F00008800120FEF7AAFD012036490880FEF778
:10270000A5FD3620010708800120FEF79FFD23204C
:10271000304908800120FEF799FDF0204FF0C041BC
:1027200008800120FEF792FD03202A490880052039
:10273000FEF78CFD29204FF0C04108800120FEF7F4
:1027400085FDBE204FF0C04108800120FEF77EFDD0
:102750000620204908800120FEF778FD80201D49D1
:1027600008800120FEF772FD01201A490880FEF75B
:102770006DFDF020174908800120FEF767FD00205D
:10278000144908800120FEF761FD002011490880EE
:102790000120FEF75BFDD0204FF0C04108800120F2
:1027A000FEF754FD0D200B4908800520FEF74EFD75
:1027B0004FF47840FFF712FE0120FEF747FD4FF47B
:1027C00080510348FFF7B2FD10BD00000018024021
:1027D000000C02400000026010B50421D648FFF74B
:1027E000A5FD4FF40051D548FFF79EFD3220FEF7BE
:1027F0002DFDE2204FF0C04108800120FEF726FDAC
:102800002320CF4908800120FEF720FD0220CC497B
:1028100008800120FEF71AFD0420C94908804FF402
:10282000FA70FEF713FDE0204FF0C0410880012050
:10283000FEF70CFD0120C24908804FF4FA70FEF744
:1028400005FDE0204FF0C04108800120FEF7FEFCAE
:102850000320BB4908800520FEF7F8FC01204FF05B
:10286000C04108800520FEF7F1FCE6200107088042
:102870000120FEF7EBFC0220B14908800120FEF7A1
:10288000E5FC9320AE4908800120FEF7DFFCE02044
:10289000AB490880B020410608800120FEF7D6FC35
:1028A0002020A74908800120FEF7D0FC0020A44981
:1028B00008800120FEF7CAFC0120A1490880FEF72C
:1028C000C5FC3F209E4908800120FEF7BFFC002088
:1028D0009B4908800120FEF7B9FCEF209849088049
:1028E0000120FEF7B3FC0020954908800120FEF787
:1028F000ADFCB4204FF0C04108800120FEF7A6FCDB
:1029000001208F490880FEF7A1FCA5208C49088092
:102910000120FEF79BFC0020894908800120FEF77A
:1029200095FC4620864908800120FEF78FFC012097
:1029300083490880FEF78AFC002081490880012035
:10294000FEF784FC00207E4908800120FEF77EFC13
:1029500000207B4908800120FEF778FCB6200107A3
:1029600008800120FEF772FC012075490880FEF7FF
:102970006DFC0C20724908800120FEF767FC0020E6
:102980006F4908800120FEF761FC0D206C4908802A
:102990000120FEF75BFC012069490880FEF756FC28
:1029A0000020674908800120FEF750FC00206449A0
:1029B00008800120FEF74AFC2A204FF0C041088021
:1029C0000120FEF743FC00205D4908800120FEF74E
:1029D0003DFC00205A4908800120FEF737FC012009
:1029E00057490880FEF732FC3F20554908800120F6
:1029F000FEF72CFC2B20410708800120FEF726FC67
:102A000000204F4908800120FEF720FC00204C499F
:102A100008800120FEF71AFC0020494908800120A7
:102A2000FEF714FCEF20464908800120FEF70EFC5B
:102A3000BA204FF0C04108800120FEF707FC0520B6
:102A40003F4908800120FEF701FCB8204FF0C0414B
:102A500008800120FEF7FAFB072039490880012091
:102A6000FEF7F4FB012036490880FEF7EFFB362025
:102A7000010708800120FEF7E9FB23203049088088
:102A80000120FEF7E3FBF0204FF0C0410880012059
:102A9000FEF7DCFB03202A4908800520FEF7D6FB61
:102AA00029204FF0C04108800120FEF7CFFBBE2057
:102AB0004FF0C04108800120FEF7C8FB06202049E6
:102AC00008800120FEF7C2FB80201D4908800120FC
:102AD000FEF7BCFB01201A490880FEF7B7FBF02087
:102AE000174908800120FEF7B1FB00201449088037
:102AF0000120FEF7ABFB0020114908800120FEF702
:102B0000A5FBD0204FF0C04108800120FEF79EFBBE
:102B10000D200B4908800520FEF798FB4FF4784004
:102B2000FFF75CFC0120FEF791FB4FF400510348D6
:102B3000FFF7FCFB10BD000000180240000C024033
:102B40000000026000B59BB000201A9001217A209D
:102B500001F042F80121084601F05EF84FF4004010
:102B6000189001208DF8640000208DF86600022086
:102B70008DF8650001208DF8670018A98048FFF7DF
:102B80005FFB4CF23370189002208DF86400002037
:102B90008DF8660003208DF8650001208DF8670030
:102BA00018A97848FFF74CFB4FF680701890022068
:102BB0008DF8640000208DF8660003208DF8650014
:102BC00001208DF8670018A96F48FFF739FB4FF413
:102BD0000060189002208DF8640000208DF86600D7
:102BE00003208DF8650001208DF8670018A965485D
:102BF000FFF726FB4FF48050189001208DF86400F9
:102C000000208DF8660003208DF8650001208DF806
:102C1000670018A95B48FFF713FB4FF400501890AA
:102C200001208DF8640000208DF8660003208DF8E7
:102C3000650001208DF8670018A95248FFF700FBD6
:102C40000420189001208DF8640000208DF86600A3
:102C500003208DF8650001208DF8670018A94B4806
:102C6000FFF7EEFA0C2200214648FFF731FB0C2259
:102C700001214448FFF72CFB0C2204214148FFF7B7
:102C800027FB0C2205213F48FFF722FB0C220821DD
:102C90003C48FFF71DFB0C2209213A48FFF718FBBF
:102CA0000C220A213748FFF713FB0C220B21354871
:102CB000FFF70EFB0C220E213248FFF709FB0C2216
:102CC0000F213048FFF704FB0C2207212E48FFF7A5
:102CD000FFFA0C2208212C48FFF7FAFA0C220921EE
:102CE0002948FFF7F5FA0C220A212748FFF7F0FAE6
:102CF0000C220B212448FFF7EBFA0C221146224844
:102D0000FFF7E6FA0C220D211F48FFF7E1FA0C222B
:102D10000E211D48FFF7DCFA0C220F211A48FFF79D
:102D2000D7FA0F200190002002903C200390002051
:102D30000490059006900790089009900A90102042
:102D40000B9000200C900D9013900E900F904FF46C
:102D500080501090002011904FF48040129000207D
:102D6000149001A81690179008A8FFF7C3F8012146
:102D70000020FFF7A5F83220FEF768FA1BB000BD6F
:102D800000040240000C0240001002400018024003
:102D900030B52A244FF0C0452C80C0F30F240C4DD1
:102DA0002C80C4B22C80C2F30F242C80D4B22C808F
:102DB0002B2465072C80C1F30F24054D2C80CCB249
:102DC0002C80C3F30F242C80DCB22C8030BD00009B
:102DD000000002602C20C10608807047F0B5ADF5F8
:102DE0000B7DFE4EFE48407800284ED10120FC4964
:102DF00048700020C87047F2305048634FF47A7032
:102E0000C861002412E0204604EBD0714910A4EB05
:102E10004101491CCAB2F249091D0A55022C03DBC3
:102E20000021EF48001D0155601CC4B2042CEADBF0
:102E3000002427E0EB480168E948203040F82410DE
:102E4000E8480168E648383040F824103438005D1E
:102E5000002815DDE248001D035DE34AE3A130468A
:102E600002F012FDDE48001D005D4FF478410023A2
:102E70003246CDE9001019464FF4987012F002FB6B
:102E8000601CC4B2042CD5DB11E3D548C0780028FF
:102E90007CD100240DE1D248203050F82400D149E3
:102EA0000968081ACE49C969884270D9CC48001D02
:102EB000005D00286BDDCA48203050F82400C84966
:102EC000C9690144C648203040F82410C94830F888
:102ED000140000285BD0C2484830005D02283BDA6D
:102EE000C44830F81400401C81B2C24820F81410C5
:102EF000BB48406BBB490968091AB948383040F8EB
:102F000024100122BCA1C04808F0B4FABF490870DF
:102F100008460078D0B9BC48C26804EB8420BC4B9A
:102F200003EB4001BB4BB84808F063FBB74908709E
:102F3000002004EB8421B64A02EB410181F800082D
:102F400004EB842102EB410181F80108AE4807F04F
:102F500090FDAE490870AAE0AF480078032816D16A
:102F60000120AD4908700A20487009208870A148E6
:102F700030F814004FF4616190FBF1F201FB120094
:102F80004FF4167190FBF1F73A4601E0BBE18DE09A
:102F9000A2A1A148083002F077FC9148001D005D15
:102FA0004FF409729C49083189906846FDF74BF946
:102FB000994876210CC80E2002F0F3FD8D4830F8B8
:102FC00014004FF4167190FBF1F201FB12003C214A
:102FD00090FBF1F73A4691A18F48083002F054FC7B
:102FE0007F48001D005D4FF409728B4908318990BC
:102FF0006846FDF728F988488B210CC80E2002F09E
:10300000D0FD7C4830F814003C2190FBF1F201FB2C
:1030100012000A2190FBF1F73A4680A17E48083061
:1030200002F032FC6E48001D005D4FF409727A49CF
:10303000083189906846FDF706F97748AE210CC83B
:103040000E2002F0AEFD6B4830F814000A2190FB10
:10305000F1F201FB12073A4670A16F48083002F006
:1030600013FC5F48001D005D4FF409726A49083186
:1030700089906846FDF7E7F86748C3210CC80E2021
:1030800002F08FFD5648001D005D4FF6FF71CDE93F
:10309000001004EB84205E4901EB40020023194636
:1030A000572012F0B9F803205B49087000BF601C7C
:1030B000C4B2042CFFF6EFAE002420E148483830BB
:1030C00050F8240047490968081A4549496B884265
:1030D00047D94348001D005D002842DD4148016892
:1030E0003F48383040F824103438005D4FF47841C0
:1030F000F0234FF4A072CDE900100021084612F031
:10310000A5F93C4830F8140060B343480078032820
:1031100027D10120404908700A2048700221304818
:103120004830015509203C4988702D484830025DDF
:103130003EA13948083002F0A7FB2948001D005D78
:103140004FF409723449083189906846FDF77BF8DD
:10315000314800210CC8084602F023FD03202E4907
:103160000870CAE02C4800780328FAD101202A49C7
:1031700008700A2048701A484830005D401CC1B2EF
:10318000174848300155005D012803DD002114482F
:103190004830015509202049887011484830025DA7
:1031A00022A11D48083002F06FFB0D48001D005D94
:1031B0004FF409721849083189906846FDF743F8C1
:1031C000154800210CC8084602F0EBFC064869309F
:1031D00000EBC41219A11048083031E06813002038
:1031E0008822002040000020741B002025733A250F
:1031F00064000000E61F002061726561322F3034E8
:103200002E626D70000000001C0E0120AC11002029
:103210000C330020B0110020C84B002061726561A2
:10322000322F5425642E626D70000000617265615A
:10323000322F5025642E626D70000000257300004F
:1032400002F022FB9C48005D40BB9B484438005D77
:103250004FF40972994989906846FCF7F4FF974842
:10326000083838210CC8502002F09BFC92484438A2
:10327000035D934AAFF28C01304602F005FB8E48A5
:103280004438005D4FF6FF7100233246CDE900104F
:103290006E214FF4877012F0F5F82AE08648005D41
:1032A000012826D184484438005D4FF409728349CF
:1032B00089906846FCF7C7FF8048083838210CC859
:1032C000732002F06EFC7C484438035D7C4AAFF208
:1032D000E401304602F0D8FA77484438005D4FF6F2
:1032E000FF7100233246CDE900106E210F2012F04D
:1032F000C9F80320714908390870601CC4B2042C55
:10330000FFF6DCAED3E06C484838C0780128F9D12C
:1033100000246BE06848103850F8240069490968B7
:10332000081A65494839496B88425DD96248443872
:10333000005D002858DD634801685F48103840F898
:1033400024103438005D4FF47841F023A022CDE9F9
:1033500000100021104612F079F85848083800781B
:1033600003282AD101205549083908700A204870DD
:103370000920887050484438005D401EC87050488D
:10338000693000EBC412AFF24C114C4802F07CFAE9
:1033900049484438005D4FF40972484989906846AD
:1033A000FCF751FF4548083838210CC8B02002F01E
:1033B000F8FB03204149083908703F484438035D51
:1033C0003F4AAFF2D811304602F05EFA3A4844382C
:1033D000005D4FF4784100233246CDE900101946D4
:1033E0004FF4987012F04EF8601CC4B2042C91DBBC
:1033F0004FF49075002458E02F48283850F82400E6
:1034000030490968081A2C494839C96988424AD99B
:103410002948283850F8240027494839C969014407
:103420002548283840F82410274830F8142027A1D0
:10343000304602F029FA03204FF47841CDE900101C
:10344000202101FB145000233246194612F01AF8CD
:103450001D48083030F814201EA1304602F014FA3E
:1034600003204FF47841CDE90010202101FB1451D5
:10347000A1F1100000233246194612F003F8174854
:10348000827817A1304602F0FFF90B484438005DFE
:103490004FF4784100233246CDE90010BE214FF4AD
:1034A000987011F0EFFF601CC4B2042CA4DB002064
:1034B0000DF50B7DF0BD0000D0220020D04B002088
:1034C000741B002040000020DE1F0020533A2564BA
:1034D00000000000553A256400000000F42200209E
:1034E0004B563A25640000001CB50121602000F015
:1034F00073FB01208DF8040000208DF806000120E8
:103500008DF8070000208DF8050001200090694625
:103510000D48FEF795FE4FF40040009069460B48B9
:10352000FEF78EFE4FF48040009069460748FEF794
:1035300087FE0120044918310880C003034918316F
:103540000880401008801CBD001802400014024092
:1035500010B586B0924C93480078012802D002281A
:103560007ED128E002208F4908708F4804F0AEF821
:1035700000208E4908608EA002F076F992A002F039
:1035800073F997A002F070F99BA1A14801F054FFD4
:103590008DA19F4801F050FF91A19D4801F04CFF83
:1035A000032000214FF6FF73994ACDE900109020C7
:1035B00011F0B2FFF0E07C4840687C4908600846A2
:1035C000006800287DD0032076490870764804F012
:1035D000E7F890A002F048F995A002F045F9734889
:1035E0000068000E0090714801780068C0F307433E
:1035F0006E480088C0F3072294A002F035F96A48AB
:103600008068000E009068488068C0F307436648F1
:103610000089C0F307226448017A91A002F024F9DE
:103620006148C068000E00905F48C068C0F307435F
:103630005D488089C0F307225B48017B8EA002F0C1
:1036400013F901209249088092A1714801F0F4FE1B
:1036500096A16F4801F0F0FE54480068000E00E0AB
:1036600099E052490968C1F30741CDE900104F487C
:1036700002780088C0F3072391A1204602F004F9E4
:103680002146634801F0D8FE47488068000E46494D
:103690008968C1F30741CDE9001043480089C0F3B0
:1036A00007234148027A6EA1204602F0EDF8214638
:1036B000574801F0C1FE3C48C068000E3A49C9684D
:1036C00000E01CE0C1F30741CDE9001036488089D5
:1036D000C0F307233448027B67A1204602F0D4F8E8
:1036E00021464B4801F0A8FE032000214FF6FF734E
:1036F000474ACDE90010902011F00EFF4AE02A4819
:10370000406A407B042845DD04202649087026488D
:1037100004F046F8704805906FF07F4004906F48C1
:10372000039003AB04AA05A91F480CF063FD6CA02D
:1037300002F09AF870A002F097F8C8200023A8229F
:10374000C021009041A002F08FF80020FF231A460C
:103750001946009042A002F087F801200023A82219
:10376000C021009044A002F07FF801204849088061
:1037700067A1274801F060FE69A1254801F05CFEC1
:10378000032000214FF6FF73214ACDE9001090205D
:1037900011F0C2FE00E000BF00BF06B010BD000087
:1037A000681300203C000020A412002030000020FC
:1037B0000A20202020204C6F6F6B696E6720666F97
:1037C00072202020200A000020202020204448438E
:1037D0005020736572766572202020200A00000058
:1037E0002020202020706C656173652077616974EA
:1037F0002E2E2E200A00000020202020204C6F6F4B
:103800006B696E6720666F72202020200A0000001E
:10381000287000200A20204950206164647265737A
:10382000732061737369676E6564200A000000008D
:103830002020202062792061204448435020736575
:10384000727665722020200A0000000049503A205C
:1038500025642E25642E25642E25640A00000000B0
:103860004E45544D41534B3A2025642E25642E2558
:10387000642E25640A000000476174657761793A17
:103880002025642E25642E25642E25640A00000060
:103890001818024049502061646472657373206196
:1038A000737369676E6564200A00000062792061A5
:1038B0002044484350207365727665720A00000008
:1038C00053454C465F49503A2025642E25642E25E9
:1038D000642E25640A000000C0A800C8C0A800012A
:1038E0000A20202020444843502074696D656F757C
:1038F00074202020200A0000202053746174696322
:1039000020495020616464726573732020200A008E
:10391000444843502074696D656F75740A00000057
:1039200053746174696320495020616464726573E3
:10393000730A000000B587B00CF0BAF90CF016FB62
:10394000002006900590049019481A49002204AB03
:10395000CDE90021029005AA06A917480CF012FC37
:1039600015480CF05BFC1548006811280ED1124870
:1039700090F8310040F010000F4981F831000846FE
:103980000CF0F0FC01200E4908700BE00A480CF026
:103990004BFC05200A4908700AA001F065FF0FA042
:1039A00001F062FF134904480CF096FC07B000BD1B
:1039B00061A9000819AA0008A4120020C81100205B
:1039C0003C0000200A20204E6574776F726B204304
:1039D00061626C6520697320200A0000202020208D
:1039E0006E6F7420636F6E6E656374656420202053
:1039F0000A000000C11D000801B52B4900980968A4
:103A0000401AFA2804D328490098086010F014FEE0
:103A1000264900980968401A41F28831884204D347
:103A200022490098086006F0F9FE214900980968CB
:103A3000401AB0F57A7F05D30020FDF79BFC1C49A6
:103A4000009808601B4900980968401AB0F5FA7F91
:103A50001BD318490098086003F03EF91648007817
:103A6000032812D01448007804280ED01248007899
:103A700005280AD01148006880F001000F4908604D
:103A80000FA001F0F1FEFFF763FD184900980968E7
:103A9000401A4EF66021884204D314490098086009
:103AA00002F09CFF08BD0000240000202800002038
:103AB0002C000020340000203C000020141802409C
:103AC0000A46696E65204448435020706572696FEC
:103AD0006469632070726F636573732065766572C5
:103AE00079203530306D730A000000003800002066
:103AF00010B5024806F0A8FF10BD0000A412002077
:103B000000BFFEE7704708B525208DF800000120B2
:103B10008DF8010000208DF8020001208DF80300CF
:103B2000684600F011F812208DF8000001208DF891
:103B3000010000208DF8020001208DF80300684686
:103B400000F002F808BD000070B5002100230F222C
:103B5000C4781CB3174C246804F4E064C4F5E06432
:103B6000C4F30721C1F10404E3B20A4144789C4044
:103B7000E1B28478144021430C07210E0E4C0578E5
:103B80006155047804F01F050124AC4005786D11DF
:103B9000AD0005F1E025C5F8004109E0047804F026
:103BA0001F050124AC40054D0678761145F82640E6
:103BB00070BD00000CED00E000E400E080E100E0FA
:103BC00002490143024A1160704700000000FA05F3
:103BD0000CED00E07047000029B1064A126802436C
:103BE000044B1A6004E0034A12688243014B1A60D6
:103BF000704700003038024029B1064A126802437B
:103C0000044B1A6004E0034A12688243014B1A60B5
:103C1000704700001038024029B1064A126802437A
:103C2000044B1A6004E0034A12688243014B1A6095
:103C3000704700003838024029B1064A1268024332
:103C4000044B1A6004E0034A12688243014B1A6075
:103C5000704700004038024029B1064A126802430A
:103C6000044B1A6004E0034A12688243014B1A6055
:103C7000704700004438024029B1064A12680243E6
:103C8000044B1A6004E0034A12688243014B1A6035
:103C90007047000024380240F0B5002100220024C3
:103CA000022500260223324F3F6807F00C0121B1A4
:103CB000042905D0082937D105E02E4F076036E0EA
:103CC0002D4F076033E02A4F3F1F3F68C7F38056F0
:103CD000274F3F1F3F6807F03F036EB1264FB7FBEA
:103CE000F3F7DFF88CC0ACF1040CDCF800C0CCF3C7
:103CF000881C07FB0CF40CE01E4FB7FBF3F7DFF852
:103D000070C0ACF1040CDCF800C0CCF3881C07FBDD
:103D10000CF4174F3F1F3F68C7F301477F1C7D001E
:103D2000B4FBF5F7076002E0124F076000BF00BF69
:103D30000F4F3F6807F0F0010909104F7A5C0768E0
:103D4000D74047600A4F3F6807F4E051890A0B4F9C
:103D50007A5C4768D7408760054F3F6807F4604149
:103D6000490B064F7A5C4768D740C760F0BD00003A
:103D7000083802400024F40040787D01140000203F
:103D80007CB50546002400200090019000F0EAF880
:103D900000F0007010B10E2420467CBD3D4909881A
:103DA00088B26946FEF746F904460CB12046F4E7AE
:103DB000012D36D1019800F4802000282ED03548FE
:103DC000008800043449086037204860402088603B
:103DD0000020C860A8020861084600F001F93720F9
:103DE000FCF75CFF04460CB12046D6E702202A49C6
:103DF000086006204860402088600020C8604FF4BA
:103E000080600861084600F0EBF80620FCF746FFEA
:103E100004460CB12046C0E72046BEE725242046D4
:103E2000BBE7019800F4803078B31A48008800049A
:103E30001949086037204860402088600020C86029
:103E40004FF480600861084600F0CAF83720FCF79C
:103E500025FF04460CB120469FE700200E4908606C
:103E600006204860402088600020C8604FF48060D1
:103E70000861084600F0B4F80620FCF70FFF04467E
:103E80000CB1204689E7204687E7FFE72524204636
:103E900083E70000D4110020705001200149086020
:103EA00070470000382C014001490860704700004D
:103EB000382C01400149086070470000A08025426D
:103EC00001490860704700008C85254200210B4B9A
:103ED00002681A601B1D42681A601A1D116821F0E1
:103EE000F701D0E902231A4303691A4343691A43CD
:103EF0001143024A0832116070470000242C01402F
:103F000010B50121C802FFF7B7FE00214FF4006091
:103F1000FFF7B2FE10BD000001480068C0B2704754
:103F2000102C014001460020034A12680A400AB1E1
:103F3000012000E000207047342C014001460020A1
:103F4000034A12680A400AB1012000E000207047CD
:103F5000342C01400248006800F003007047000064
:103F6000002C014008B5014600200090024808449A
:103F700000900098006808BD142C014010B500F0B6
:103F80000DFD10BD29B1064A12680243044B1A60A8
:103F900004E0034A12688243014B1A607047000034
:103FA0003C2C014000210A4A116847F6FF62914308
:103FB000027D83681A4343681A43C3681A4303683F
:103FC0001A4303691A431143014A11607047000004
:103FD000042C01400148006870470000802C01401B
:103FE0000021094B02681A601A1D11686FF30A015B
:103FF000D0E901231A43C3681A4303691A431143E2
:10400000014A121D11607047082C014001490860E7
:1040100070470000002C014008B5012000909DF879
:10402000000008BD70B5044600252048006803283C
:1040300002D12725284670BD1C48006838B11B48AE
:104040000068012803D01948006802282CD1B4F573
:10405000805F02D127252846EDE7B4F5006F13D124
:104060000120FFF78DFE0546F5B9002010490875BF
:104070000860486088604FF40060C86000200861F4
:104080000846FFF78FFF0FE00020FFF779FE054697
:1040900055B9002006490875086048608860C86006
:1040A00008610846FFF77EFF2846C4E7D0110020CC
:1040B00058500120F0B5014600200022C04B1B786B
:1040C00081F85630BF4B1B88A1F85430BE4B1B689B
:1040D0001A0E93090B70C2F383034B7002F00303B3
:1040E0008B70B94B1B68C3F30742CA70B64B1B8871
:1040F000C3F307220A71B44B1A784A715B681A0E2F
:104100001301CB80B04B5B68C3F30742CB8843EA13
:104110001213CB8002F00F030B72AB4B9B88C3F3DF
:104120000722D3094B72C2F380138B72C2F3401380
:10413000CB72C2F300130B7300234B73A04B1B68AD
:104140001BB19F4B1B68012B4FD193071B0D0B61BC
:104150009D4B1A790B6943EA82030B619A4B9B686A
:104160001A0E0B6943EA92130B61C2F3C2030B757B
:1041700002F007034B75944B9B68C3F30742530946
:104180008B75C2F38203CB7593075B0F0B768E4B57
:104190001B89C3F307220B7E43EAD2130B760B690C
:1041A0005B1C0024C1E912340B7ED1E912469B1C32
:1041B000012505FA03F3DF17A4FB035C06FB03C329
:1041C00004FB0733C1E912530C7A0123A3400B65AA
:1041D0000027D1E912560B6DA5FB034C06FB03C368
:1041E00005FB0733C1E9124336E0754B1B68022B10
:1041F00032D1754B1A7993069B0A0B61724B9B68FF
:104200001A0E0B6943EA02230B616F4B9B68C3F3E1
:1042100007420B6913430B616B4B1B89C3F30722E6
:104220000B6900245B1C44EB04074FF40076002567
:10423000A3FB064C07FB06C603FB05664FF480652F
:104240000027A4FB053C06FB05C504FB0754C1E998
:1042500012344FF400730B65C2F3801301F8193F59
:1042600093065B0E4B70584B1A7A4B7843EAD21385
:104270004B7002F07F038B70534BDB681A0ED3092F
:10428000CB70C2F341130B71C2F382034B719307DE
:104290001B0F8B714C4BDB68C3F307428B7943EAEE
:1042A00092138B71C2F34013CB7100230B7202F097
:1042B00001034B72444B9B89C3F30722D3098B72D2
:1042C000C2F38013CB72C2F340130B73C2F300131B
:1042D0004B73C2F381038B7302F00303CB733A4B2E
:1042E0001A7B53080B7401234B74384B1B681A0E4E
:1042F000CA741939354B1B68C3F307421402CC85C5
:10430000324B1B88C3F30722CB8D1343CB852F4B36
:104310001A7814060C635B681A0E0B6B43EA0244AE
:104320000C632A4B5B68C3F307420B6B43EA02241E
:104330000C63264B9B88C3F307220B6B13430B6361
:10434000224B1A7934235A54204B9B681A0E35237A
:104350005A541E4B9B68C3F3074214068C631B4BD5
:104360001B89C3F307228B6B43EA02448C63174B10
:104370001A7A8B6B43EA02248C63144BDB681A0EA7
:104380008B6B13438B63114BDB68C3F307423C23F6
:104390005B5C43EA12143C235C5413071C0DCC876E
:1043A0000A4B9B89C3F30722CB8F1343CB87074B61
:1043B0001A7B540840235C54012441235C54F0BD13
:1043C000D0110020D4110020D04F0120E04F012057
:1043D00008B500200090FFF71FFE012809D16846AC
:1043E00000F0CAFB08B1FF2008BD0098C0F34320CD
:1043F000FAE7FF20F8E710B50424FFF7E9FF0446C9
:10440000042C01D1002010BDFF2C01D10220FAE7BD
:104410000120F8E71CB5002001904FF4C060FFF7C1
:10442000CFFB31208DF8000001208DF80100002025
:104430008DF8020001208DF803006846FFF784FB29
:104440003B208DF8000001208DF801006846FFF741
:104450007BFB00F06DF9FFF753FD00F0BBF9019015
:104460009DF8040010B19DF804001CBD00F032F866
:1044700001909DF8040010B19DF80400F5E70020BC
:1044800012490875086048608860C860086108467D
:10449000FFF788FD0E48FFF70DFE01909DF8040020
:1044A00040B90B48B0F8540002041046002100F057
:1044B00047FB01909DF8040020B94FF40060FFF71E
:1044C000B1FD01909DF80400CFE700005850012095
:1044D0000050012038B5002401200090FFF73AFD7C
:1044E00010B92524204638BD44480068042828D047
:1044F00000204349086002204860C02088600020F6
:10450000C8604FF4806008610846FFF769FDFCF75A
:104510005FFC04460CB12046E5E70020FFF722FDD2
:10452000384908600420FFF71DFD3649486008201F
:10453000FFF718FD334988600C20FFF713FD314960
:10454000C8602E48006858B12C480068012807D080
:104550002A480068062803D028480068022816D197
:104560000020274908600320486040208860002020
:10457000C8604FF4806008610846FFF731FD694666
:104580000320FCF767FC04460CB12046ABE71B4850
:10459000006804282ED0BDF800001B490860BDF853
:1045A000000000041649086009204860C0208860A7
:1045B0000020C8604FF4806008610846FFF710FDD6
:1045C000FCF706FC04460CB120468CE70020FFF700
:1045D000C9FC0E4908600420FFF7C4FC0B49486081
:1045E0000820FFF7BFFC094988600C20FFF7BAFCE0
:1045F0000649C8600024204675E70000D01100205D
:1046000070500120E04F0120D4110020D04F012034
:1046100030B58FB004460D464FF0FA511E48FCF7F6
:1046200091FC00211C48FCF7A7FC1B48FCF7B0FCE0
:104630004FF0006000901948019002940020039010
:1046400001200490002005904FF4806006908000C7
:10465000079080000890002009904FF440300A90A5
:1046600004200B9003200C904FF400000D9080105C
:104670000E9069460848FCF75FFD012210210648AC
:10468000FCF73DFD20210448FCF72EFD01210248E6
:10469000FCF772FC0FB030BD58640240802C014022
:1046A00030B58FB004460D464FF0FA511E48FCF766
:1046B00049FC00211C48FCF75FFC1B48FCF768FC28
:1046C0004FF0006000901948019002944020039040
:1046D00001200490002005904FF480600690800037
:1046E000079080000890002009904FF440300A9015
:1046F00004200B9003200C904FF400000D908010CC
:104700000E9069460848FCF717FD01221021064863
:10471000FCF7F5FC20210448FCF7E6FC01210248E7
:10472000FCF72AFC0FB030BD58640240802C0140D9
:104730001CB501210C20FFF74FFA0C220821234859
:10474000FDF7C6FD0C2209212048FDF7C1FD0C2212
:104750000A211E48FDF7BCFD0C220B211B48FDF76A
:10476000B7FD0C2211461948FDF7B2FD0C220221BB
:104770001748FDF7ADFD4FF47060009002208DF8F2
:1047800005008DF8040000208DF8060001208DF84A
:10479000070069460D48FDF753FD04200090694667
:1047A0000B48FDF74DFD4FF48050009000208DF830
:1047B000070069460548FDF743FD0121C802FFF7E0
:1047C0004BFA01218805FFF707FA1CBD00080240DB
:1047D000000C0240F8B500200090002500240026BF
:1047E000002776205F4908750020086048608860CF
:1047F000C86008610846FFF7D5FB0320FFF706FCF9
:104800000120FFF757FB0020574908604860886087
:10481000C8604FF4806008610846FFF7E1FBFCF7D1
:1048200027FA00909DF8000010B19DF80000F8BD37
:104830004FF4D5704C4908600820486040208860DB
:104840000020C8604FF4806008610846FFF7C8FB8D
:10485000FCF74EFB00909DF8000020B90120434971
:104860000860870712E000203F4908603720486051
:10487000402088600020C8604FF4806008610846CE
:10488000FFF7AEFB3720FCF709FA0090002036490D
:10489000086037204860402088600020C8604FF4DE
:1048A000806008610846FFF79BFB3720FCF7F6F9AC
:1048B00000909DF80000002851D13BE000202A49DB
:1048C000086037204860402088600020C8604FF4AE
:1048D000806008610846FFF783FB3720FCF7DEF9AC
:1048E00000909DF8000010B19DF800009FE720485F
:1048F00038431D4908602920486040208860002016
:10490000C8604FF4806008610846FFF769FBFCF758
:1049100085FA00909DF8000010B19DF8000086E730
:104920000020FFF71FFB0546012080EAD57080F0CC
:104930000106641C1EB94FF6FF708442BED34FF6C9
:10494000FF70844204D31B2000909DF800006EE7A6
:1049500005F08040051E02D00220044908609DF841
:10496000000064E75850012070500120D011002051
:104970000000108010B50748006800F0C05040B13A
:104980000120054908604FF0C25102485830FCF739
:10499000D9FA10BD00640240E411002010B54FF4B4
:1049A0008070FFF7CBFA50B10020254908704FF412
:1049B0008070FFF779FA01202249086037E0022071
:1049C000FFF7BCFA30B10220FFF76EFA02201C4953
:1049D00008702CE00820FFF7B1FA30B10820FFF78B
:1049E00063FA04201649087021E02020FFF7A6FA98
:1049F00030B12020FFF758FA06201149087016E060
:104A00001020FFF79BFA30B11020FFF74DFA052078
:104A10000B4908700BE04FF40070FFF78FFA30B1CC
:104A20004FF40070FFF740FA072005490870002195
:104A30004CF23A30FFF7A6FA0148007810BD0000AA
:104A4000DC110020E01100202DE9F04781461446DA
:104A50001D46DDE908680027002032490870324908
:104A600008600120314908600020314908600121B7
:104A700040F22A30FFF786FA08FB06F14846FFF7B6
:104A8000C7FD0120FFF71CFA2A480068022808D158
:104A900006020202002320462946FBF7A3FB044638
:104AA0000D46254806601020234948604020886054
:104AB0000020C8604FF4806008610846FFF790FA54
:104AC0001020FCF7EBF8074617B13846BDE8F08731
:104AD0004FF0FF301949086008FB06F0486090204D
:104AE00088600220C86000200861012048610846F3
:104AF000FFF7ECF91048046012200F49486040208D
:104B000088600020C8604FF4806008610846FFF7A5
:104B100067FA1220FCF7C2F807460FB13846D5E70E
:104B20003846D3E7DC110020E0110020D811002026
:104B30002C2C0140D0110020705001208450012005
:104B400070B504460D4600260A480460072009494E
:104B50004860402088600020C8604FF48060086191
:104B60000846FFF73DFA0720FCF798F8064630465E
:104B700070BD00007050012070B50446002514B9C6
:104B80002625284670BD0F48008800040E4908609D
:104B90000D204860402088600020C8604FF480608D
:104BA00008610846FFF71CFA0D20FCF777F8054668
:104BB0000DB12846E6E70020FFF7D4F9206028462B
:104BC000E0E70000D41100207050012010B500244F
:104BD00000200A4908600C204860402088600020BE
:104BE000C8604FF4806008610846FFF7F9F90C20AF
:104BF000FCF754F80446204610BD00007050012018
:104C000070B500256C1E00E0641E1848006838B9B5
:104C10001748006820B91748007808B9002CF3D16C
:104C2000002012490860441E00E0641E124800681B
:104C300000F4005008B1002CF7D11048006801289A
:104C400005D1FFF7C3FF054600200C4908600CB9E9
:104C500005B9042540F2FF50FFF720F90548007818
:104C600010B10448007870BD2846FCE7E41100202C
:104C7000E0110020DC110020342C0140D81100206C
:104C800070B500256C1E00E0641E1848006838B935
:104C90001748006820B91748007808B9002CF3D1EC
:104CA000002012490860441E00E0641E124800689B
:104CB00000F4805008B1002CF7D11048006801289A
:104CC00005D1FFF783FF054600200C4908600CB9A9
:104CD00005B9042540F2FF50FFF7E0F805480078D9
:104CE00010B10448007870BD2846FCE7E4110020AC
:104CF000E0110020DC110020342C0140D8110020EC
:104D00002DE9F047814615461E46DDE90878002466
:104D10000020494908704949086001204849086055
:104D2000002048490860012140F21A30FFF72AF9B3
:104D300008FB07F14846FFF7B3FC0120FFF7C0F876
:104D400041480068022808D10702020200232846D1
:104D50003146FBF747FA05460E463C4807601020EF
:104D60003A494860402088600020C8604FF4806065
:104D700008610846FFF734F91020FBF78FFF04465F
:104D800014B12046BDE8F0873148008800042F495F
:104D9000086037204860402088600020C8604FF4D9
:104DA000806008610846FFF71BF93720FBF776FFA4
:104DB00004460CB12046E5E72448C0F800801720DF
:104DC00022494860402088600020C8604FF480601D
:104DD00008610846FFF704F91720FBF75FFF044658
:104DE0000CB12046CEE719480560192017494860E4
:104DF000402088600020C8604FF480600861084649
:104E0000FFF7EEF81920FBF749FF04460CB12046E6
:104E1000B8E74FF0FF300F49086008FB07F0486023
:104E2000902088600020C860086101204861084621
:104E3000FFF74CF82046A5E7DC110020E011002028
:104E4000D81100202C2C0140D011002070500120DE
:104E5000D41100208450012021B1028842F0400288
:104E6000028004E002884FF6BF731A400280704748
:104E700070B505460C46164610200F49488303209E
:104E800000F084F9C4F3074000F080F9C4F3072070
:104E900000F07CF9E0B200F079F904E0FF2000F0C6
:104EA00075F928706D1C301EA6F101018EB2F5D186
:104EB00010200149088370BD001002402DE9F05F09
:104EC00007460E4614464FF00008C146C24600256C
:104ED000AB4606F0FF0ACAF10000C5B22046E11752
:104EE00004EB1161C1F30728E11704EB116109120A
:104EF000A4EB012101F0FF09BAF1000F20D1B8F1B4
:104F0000000F05D122463146384600F0D3F864E060
:104F100009E04FF480723146384600F0CBF806F5D0
:104F2000807607F58077B8F10000A8F1010101F063
:104F3000FF08EED14A463146384600F0BBF84CE057
:104F4000B8F1000F18D1A94510DDA9EB050000F05C
:104F5000FF0B2A463146384600F0ACF82E442F4469
:104F60005A463146384600F0A5F836E0224631462A
:104F7000384600F09FF830E0601B84B22046E1170D
:104F800004EB1161C1F30728E11704EB1161091269
:104F9000A4EB012101F0FF092A463146384600F012
:104FA00089F82E442F4409E04FF480723146384688
:104FB00000F080F806F5807607F58077B8F10000FC
:104FC000A8F1010101F0FF08EED1B9F1000F04D002
:104FD0004A463146384600F06DF8BDE8F09F0000C3
:104FE00000B587B001211020FEF7F6FD012148032E
:104FF000FEF732FE052202212C48FDF769F9052251
:1050000011462A48FDF764F9052206212748FDF7D5
:105010005FF90420009002208DF805008DF804004F
:1050200000208DF806008DF8070069461F48FDF73F
:1050300007F92020009069461C48FDF701F940203F
:10504000009069461948FDF7FBF8102000900120F8
:105050008DF8040069461548FDF7F2F81020134951
:1050600008830020ADF808004FF48270ADF80A0004
:105070000020ADF80C000220ADF80E000120ADF8C4
:1050800010004002ADF812000020ADF81400ADF899
:1050900016000720ADF8180002A9054800F0F6F840
:1050A00001210348FFF7D8FE07B000BD0010024001
:1050B0000034014070B505460C46164600F0CAF8AB
:1050C000102014494883022000F060F8C4F3074020
:1050D00000F05CF8C4F3072000F058F8E0B200F0EC
:1050E00055F8B6F5807F04DD4FF480760AA000F015
:1050F000BBFB03E0287800F049F86D1C301EA6F1D8
:1051000001018EB2F6D110200249088300F07AF82E
:1051100070BD0000001002403C3C2D464C415348FD
:105120002D4552524F522D3E3E205350495F464C22
:105130004153485F50616765577269746520746FA9
:105140006F206C61726765210A00000010B504468B
:1051500000F080F800F056F810200B49488320201A
:1051600000F014F8C4F3074000F010F8C4F307206F
:1051700000F00CF8E0B200F009F8102002490883B2
:1051800000F040F810BD00000010024010B50446C9
:105190004FF48050194908600AE018490868411E18
:1051A000164A116020B9002000F08EF8C0B210BD80
:1051B0000221134800F05CF80028EED02146104888
:1051C00000F062F84FF480500C4908600AE00B4987
:1051D0000868411E094A116020B9012000F074F8E6
:1051E000C0B2E4E70121064800F042F80028EED002
:1051F000034800F046F8C0B2D9E70000840100205F
:105200000034014010B500241020104948830520C7
:10521000FFF7BCFF4FF480500D49086000BFFF202E
:10522000FFF7B4FF04460A490868411E084A1160A6
:1052300018B9042000F048F810BD04F0010000285F
:10524000EDD110200149088300BFF5E700100240AE
:105250008401002010B51020044948830620FFF780
:1052600095FF10200149088310BD00000010024086
:105270000246002013890B400BB1012000E0002002
:1052800070470146888970478181704710B50022B8
:10529000028802F441520B884C8823438C882343B4
:1052A000CC8823430C8923434C8923438C89234393
:1052B000CC8923431A430280838B4FF2FF7423402F
:1052C00083830B8A038210BD10B50446214602A0D9
:1052D00000F0CAFA002010BD3C3C2D464C4153481A
:1052E0002D4552524F522D3E3E2053504920B5C8B5
:1052F000B4FDB3ACCAB1216572726F72436F64655D
:10530000203D2025640A0000704700000149086024
:1053100070470000DC0027420CB50020019000908F
:105320004148006840F480303F49086000BF3E4873
:10533000006800F4003000900198401C0190009833
:1053400018B90198B0F5A04FF1D13748006800F4C2
:10535000003010B10120009001E000200090009882
:10536000012860D130484030006840F080502E491C
:10537000403108602D48006840F440402B490860E7
:105380002948083000682849083108600846006844
:1053900040F4004008600846006840F4A0500860EF
:1053A0002348091F0860081F006840F08070091F2B
:1053B000086000BF1C48006800F000700028F9D0A9
:1053C0001A48006840F480301849086000BF174848
:1053D000406800F480300028F9D01448006840F498
:1053E00000301249086000BF1048406800F40030E7
:1053F0000028F9D040F205700E4908600A480830CC
:10540000006820F003000849083108600846006879
:1054100040F00200086000BF03480830006800F058
:105420000C000828F8D10CBD003802400070004084
:10543000195A4007003C02402DE9F04304460F464C
:105440002078012802D0204610F0F0F9002600252F
:1054500004E0785D08B92E4603E06D1CE068A842C0
:10546000F7D800BF0EB9BDE8F083D4F80480D4F8B3
:105470000890002515E0A8EB06002844E168884262
:1054800008D3785DA8EB06012944E268114409F8C5
:10549000010005E0785DA8EB0601294409F8010048
:1054A0006D1CB542E7D36068801B6060E16860688E
:1054B000884203D3E16860680844606000BFD2E7B7
:1054C00010B50B480068401C094908600846006890
:1054D0000A21B0FBF1F201FB120038B900F026F905
:1054E0000448FBF79DFA0448FBF79AFA10BD000048
:1054F00040000020002001400022014030B5164845
:1055000000684FF47A72B0FBF2F1481EB0F1807F70
:1055100001D301201BE0481E4FF0E02250615017DC
:105520000F22002807DA13071D0E0C4B00F00F04A2
:10553000241F1D5503E013071C0E094B1C5400BF0C
:1055400000204FF0E022906107201061002008B198
:1055500000BFFEE730BD00000000002018ED00E0B5
:1055600000E400E010B51548006840F470001349ED
:1055700008601348006840F00100114908600020ED
:105580000F49083108600E4800680E4908400C4970
:1055900008600D48091D0860081F006820F480207D
:1055A000091F0860002006490C310860FFF7B4FEAF
:1055B0004FF0006001498039086010BD88ED00E0BF
:1055C00000380240FFFFF6FE103000247FB504468D
:1055D0000D4601210220FEF72FFBADF804500020FC
:1055E000ADF806000294ADF80C0001A90D4800F0DA
:1055F0005BF8012211460B4800F04CF801210948E4
:1056000000F02BF81D208DF8000001208DF801001E
:1056100003208DF8020001208DF803006846FEF794
:1056200093FA7FBD0004004010B50121074800F047
:1056300020F8012804D1064800680A3004490860AF
:105640000121024800F006F810BD000000040040EF
:1056500090010020CA430282704721B1028842F0C3
:105660000102028004E002884FF6FE731A400280B5
:10567000704730B50246002000230024158A05EA51
:105680000103958905EA010413B10CB1012000E082
:10569000002030BD1AB183890B43838102E08389E6
:1056A0008B4383817047000000220288184B984288
:1056B0000ED0184B98420BD0B0F1804F08D0164B4B
:1056C000984205D0154B984202D0154B984204D110
:1056D0004FF68F731A404B881A43124B984207D0EB
:1056E000114B984204D04FF6FF431A400B891A43DE
:1056F00002804B68C3620B880385054B984202D039
:10570000044B984201D18B7A038601238382704730
:105710000000014000040140000400400008004077
:10572000000C0040001000400014004004480068D5
:1057300020B103480068401E01490860704700001E
:10574000B411002001F40072B2F5007F00D100BF57
:10575000CA430280704721B1828942F4005282819B
:1057600004E082894DF6FF731A4082817047024639
:105770000020B1F5007F00D100BF13880B400BB1B2
:10578000012000E0002070472DE9FF4705460E4646
:105790000024A14600BFA046B08900B100BF2C8AFA
:1057A00024F44054F08804432C82AC8941F20C600C
:1057B0008443B08831890843718908430443AC812C
:1057C000AC8A24F44074B0890443AC826846FEF786
:1057D00063FA2048854202D01F48854202D1DDF895
:1057E0000C9001E0DDF80890A88900F4004040B179
:1057F00009EBC90000EB091031684900B0FBF1F773
:1058000007E009EBC90000EB091031688900B0FB23
:10581000F1F76420B7FBF0F004012009642101FBDB
:105820001078A88900F4004040B1322000EBC80095
:10583000B0FBF1F000F00700044308E0322000EB79
:1058400008106421B0FBF1F000F00F0004432C813C
:10585000BDE8FF870010014000140140C1F30802B9
:105860008280704700BFFEE70FB4054B10B503A957
:10587000044A029800F030F810BC5DF814FB0000F8
:1058800011C00008941200200FB4084B10B504A9F1
:1058900002AA039800F020F8044602A9002000F0B4
:1058A0007BF9204610BC5DF814FB0000995B0008F2
:1058B00000487047A012002002E008C8121F08C16B
:1058C000002AFAD170477047002001E001C1121F81
:1058D000002AFBD1704700002DE9FF4F8DB09B4699
:1058E0000F460446002606E025280BD05A460F999D
:1058F0009047641C761C20780028F5D111B0304602
:10590000BDE8F08F0025A8460122984900E0054334
:1059100014F8013F203B02FA03F00842F7D1207847
:105920002E2817D114F8010F45F004052A280ED0AF
:105930006FF02F022078A0F1300109290AD808EB76
:10594000880102EB410100EB0108641CF2E757F803
:10595000048B641C20786C280DD004DC4C2812D0F9
:105960006A2811D104E074280DD07A280CD10AE0FD
:1059700045F4001507E0617845F48015814202D1B5
:10598000641C05F58015641C2278692A45D008DC62
:10599000002AB3D0582A69D0632A10D0642A08D1CB
:1059A0003BE0702A67D0732A13D0752A5CD0782A1E
:1059B0005CD010465A460F999047761CD3E017F8F2
:1059C000040B8DF8000000208DF80100E94601204D
:1059D00003E057F8049B4FF0FF3069074FF00005D4
:1059E00001D40AE06D1C45450DDA8542FADB19F851
:1059F00005100029F6D106E06D1C8542FCDB19F884
:105A000005100029F8D12E4404E019F8010B5A467C
:105A10000F9990476D1EF8D2A5E00A200021CDE92C
:105A20000801C5F3025002280DD001CFC117031E93
:105A300071F100030DDA4FF0000CD0EB0C006CEBB1
:105A400001012D2308E0FF1D27F00707F7E80201F9
:105A5000EDE72B0504D52B238DF8283001233BE0FF
:105A6000EB0739D02023F7E70A2000E010200021BF
:105A7000CDE9080107E01020002145F00405CDE93B
:105A800008014FF00808C5F3025002280FD001CFDB
:105A900000214FF0000A2B071FD5702A0DD0DDE939
:105AA00008C38CF0100C5CEA030C0CD015E0FF1D51
:105AB00027F00707F7E80201EBE740228DF82820DE
:105AC0004FF0010A0BE050EA010306D030238DF8B5
:105AD00028308DF8292002239A46582A04D024A27F
